:020000040800F2
:10000000B8060020CD010008D5030008A9030008A8
:10001000D103000887020008E9050008000000007D
:1000200000000000000000000000000011040008B3
:100030008B02000800000000ED030008FD0400082A
:10004000E7010008E7010008E7010008E7010008F0
:10005000E7010008E7010008E7010008E7010008E0
:10006000E7010008E7010008E7010008E7010008D0
:10007000E7010008E7010008E7010008E7010008C0
:10008000E7010008E7010008E7010008E7010008B0
:10009000E7010008E7010008E7010008E7010008A0
:1000A000E7010008E7010008E7010008E701000890
:1000B000E7010008E7010008E7010008E701000880
:1000C000E7010008E7010008E7010008E701000870
:1000D000E7010008E7010008E7010008E701000860
:1000E000E7010008E7010008E7010008E701000850
:1000F000E7010008E7010008E7010008E701000840
:10010000E7010008E7010008E7010008E70100082F
:10011000E7010008E7010008E7010008E70100081F
:10012000E7010008E7010008E7010008E70100080F
:1001300000F002F800F03AF80AA090E8000C8244BF
:100140008344AAF10107DA4501D100F02FF8AFF29C
:10015000090EBAE80F0013F0010F18BFFB1A43F0A5
:10016000010318471806000038060000103A24BFA3
:1001700078C878C1FAD8520724BF30C830C144BF0C
:1001800004680C607047000000230024002500264E
:10019000103A28BF78C1FBD8520728BF30C148BFEA
:1001A0000B6070471FB51FBD10B510BD00F031F8D2
:1001B0001146FFF7F7FF00F0D5FA00F04FF803B44F
:1001C000FFF7F2FF03BC00F057F800000948804732
:1001D00009480047FEE7FEE7FEE7FEE7FEE7FEE729
:1001E000FEE7FEE7FEE7FEE704480549054A064B41
:1001F000704700008905000831010008B8000020A0
:10020000B8060020B8020020B802002070477047EE
:100210007047754600F02CF8AE4605006946534617
:1002200020F00700854618B020B5FFF7DDFFBDE8D8
:1002300020404FF000064FF000074FF000084FF04D
:10024000000B21F00701AC46ACE8C009ACE8C009DE
:10025000ACE8C009ACE8C0098D46704710B504464B
:10026000AFF300802046BDE81040FFF7A8BF0000B4
:10027000004870475400002001491820ABBEFEE73B
:1002800026000200704700BFFEE770472DE9F041ED
:10029000024600250026002000230024002791F8B4
:1002A00003C00CF00F0591F803C00CF0100CBCF16A
:1002B000000F03D091F802C04CEA050591F800C088
:1002C000BCF1000F31D0146800202BE04FF0010C7E
:1002D0000CFA00F3B1F800C00CEA03069E4220D1EC
:1002E00083004FF00F0C0CFA03F7BC4305FA03FC34
:1002F0004CEA040491F803C0BCF1280F06D14FF07A
:10030000010C0CFA00FCC2F814C00AE091F803C01A
:10031000BCF1480F05D14FF0010C0CFA00FCC2F8FB
:1003200010C0401C0828D1D31460B1F800C0BCF143
:10033000FF0F34DD546800202EE000F1080C4FF070
:10034000010808FA0CF3B1F800C00CEA03069E425B
:1003500021D183004FF00F0C0CFA03F7BC4305FAD0
:1003600003FC4CEA040491F803C0BCF1280F05D14A
:1003700000F1080C08FA0CF8C2F8148091F803C0D8
:10038000BCF1480F07D100F1080C4FF0010808FA42
:100390000CF8C2F81080401C0828CED35460BDE889
:1003A000F0810161704700000EE00849C96881F4DE
:1003B0000061064AD160002001E0411C88B242F28F
:1003C00010718842F9DB00BFEFE700000020014018
:1003D00000BFFEE77047000002490143024A116076
:1003E000704700000000FA050CED00E070470000C7
:1003F00029B1064A92690243044B9A6104E0034A18
:1004000092698243014B9A617047000000100240DC
:10041000704710B500F002F810BD00000CB50020C8
:10042000019000903348006840F480303149086002
:1004300000BF3048006800F4003000900198401C74
:100440000190009818B90198B0F5A06FF1D1294832
:10045000006800F4003010B10120009001E000209D
:1004600000900098012843D12348006840F0100014
:10047000214908600846006820F00300086008462B
:10048000006840F0020008601A4840681949486056
:100490000846406848600846406840F4806048600C
:1004A0000846406820F47C1048600846406840F4E4
:1004B000E81048600846006840F08070086000BF9F
:1004C0000C48006800F000700028F9D00948406826
:1004D00020F00300074948600846406840F00200E9
:1004E000486000BF0348406800F00C000828F9D1BC
:1004F0000CBD0000001002400020024010B500F0CA
:1005000001F810BD10B51B48006840B119480068DB
:10051000401E1849086010B90120174908700024CE
:1005200008E004EB4401154A02EB810000F006F9F3
:10053000601CC4B2042CF4DB11480068401C104954
:100540000860084600686FF00041884202D1002030
:100550000B49086000F0F1F80A480078401CC0B26E
:10056000084908700A2803DB0020087000F0E4F84E
:1005700010BD000000000020040000202400002026
:10058000080000200C00002010B51348006840F05F
:1005900001001149086008464068104908400E49AA
:1005A0004860084600680E4908400B490860084644
:1005B000006820F4802008600846406820F4FE00AF
:1005C00048604FF41F008860FFF723FF4FF0006082
:1005D0000449086010BD0000001002400000FFF850
:1005E000FFFFF6FE08ED00E000BFFEE780F3108895
:1005F0007047000010B5044604B910BD012C00D1AD
:1006000002240120FFF7F2FF094804600020094995
:100610000870FFF7EBFF06E000F00EF805480078E1
:10062000012800D100E0F7E700BF00BFE5E70000C8
:100630000000002004000020704710B54FF4A060B7
:10064000FFF7CAFE00F004F800F01CF810BD00002F
:1006500008B501210820FFF7CBFE20210848FFF74D
:10066000A0FE03208DF8020010208DF8030020204A
:10067000ADF8000069460248FFF708FE08BD00001B
:10068000000C014070B5002016E0002100EB400294
:100690001F4B03EB8202516000EB400203EB82022E
:1006A000916000EB400203EB8202517000EB4002CC
:1006B00003F82210411CC8B20428E6DB154909687A
:1006C0004FF47A73B1FBF3F2B2F1807F00D31DE0F7
:1006D00022F07F41491E4FF0E023596159170F2343
:1006E000002907DA1C07260E0B4C01F00F052D1F01
:1006F000665503E01C07250E084C655400BF002119
:100700004FF0E02399610721196100BF70BD00001F
:10071000240000201000002018ED00E000E400E0BC
:10072000012805D10349096881F02001014A1160BF
:10073000704700000C0C014070477047416851B190
:100740004168491E416031B9012141700178012998
:1007500001D181684160704710B504462046FFF71B
:1007600049FF10BDFFF769FF06E00120FFF7D8FF42
:1007700041F28830FFF7F0FFF7E700009C07000820
:1007800000000020240000006C010008C0070008E1
:1007900024000020940600008801000800000000EA
:1007A00000000000000000000000000000A24A0459
:1007B0000000000000000000010203040607080911
:0400000508000131BD
:00000001FF
