:020000040800F2
:10000000500B0020E1010008CD0E00088D0900080A
:10001000C90E0008C10600083927000800000000CA
:10002000000000000000000000000000F5200008B3
:10003000C506000800000000411E0008E12100087C
:1000400055270008FB010008FB010008FB01000820
:10005000FB010008FB010008FB010008FB01000890
:10006000FB010008FB010008FB010008FB01000880
:10007000FB010008FB010008FB010008FB01000870
:10008000FB010008FB010008FB010008FB01000860
:10009000FB010008FB010008FB010008FB01000850
:1000A000FB010008FB010008FB010008FB01000840
:1000B000FB010008FB010008FB010008FB01000830
:1000C000FB010008FB010008FB010008FB01000820
:1000D000FB0100084D250008FB010008FB0100089A
:1000E000FB010008FB010008FB010008FB01000800
:1000F000FB010008FB010008FB010008FB010008F0
:10010000FB010008FB010008FB010008FB010008DF
:10011000FB010008FB010008FB010008FB010008CF
:10012000FB010008FB010008FB010008FB010008BF
:1001300000F002F800F045F80AA090E8000C8244B4
:100140008344AAF10107DA4501D100F03AF8AFF291
:10015000090EBAE80F0013F0010F18BFFB1A43F0A5
:10016000010318477846000098460000103A24BF63
:1001700078C878C1FAD8520724BF30C830C144BF0C
:1001800004680C607047000000230024002500264E
:10019000103A28BF78C1FBD8520728BF30C148BFEA
:1001A0000B607047642900F0AD80782900F0E6808C
:1001B000732900F03882002070471FB51FBD10B5AD
:1001C00010BD00F04BFA1146FFF7F7FF02F0E0FD1B
:1001D00000F069FA03B4FFF7F2FF03BC02F0D6FAAD
:1001E0000948804709480047FEE7FEE7FEE7FEE7CB
:1001F000FEE7FEE7FEE7FEE7FEE7FEE70448054907
:10020000054A064B704700006D22000831010008C6
:1002100050050020500B0020500700205007002000
:10022000704700000FB4044910B503AA029800F00B
:10023000FFF910BC5DF814FB140000200FB41CB5CE
:10024000074B06AA7B4469460090059800F0C1F967
:100250000020694600F0D0F91CBC5DF814FB0000DA
:10026000B103000070B5044685690068C10601D578
:10027000302600E02026C00707D070BDD4E9012158
:1002800030469047206A401C20626D1EF6D570BD36
:1002900070B5044685690078C00707D170BDD4E900
:1002A000012120209047206A401C20626D1EF6D557
:1002B00070BD70B50C460546012A05D02878800629
:1002C00000D5EA69002302E0012305E05B1C9342AC
:1002D00002D2E05C0028F9D1A869E618C01AA8612A
:1002E000286A184428622846FFF7BCFF04E0D5E9D5
:1002F000012114F8010B9047B442F8D32846FFF7C8
:10030000C7FF70BD2DE9F04106460024106875292D
:10031000314616A510D0AFF30080002802DA404223
:1003200013A507E031688A0701D512A502E0490745
:1003300004D511A5012401E0AFF3008000210A22B9
:1003400006F1240709E0B0FBF2FCB0FBF2F302FB7C
:100350001C00303078541846491C0028F3D123463D
:100360002A463046BDE8F04100F0D4B80000000055
:100370002D0000002B0000002000000070B5044696
:100380000D4621461068AFF300802188090502D58B
:100390000F4A7A4402E00E4A7A440E32002104F1F8
:1003A000240305E000F00F060009965D5E54491C29
:1003B0000028F7D120780023000704D5702D02D043
:1003C00009B1022311322046BDE8704000F0A2B806
:1003D0005A4300002DE9F05F894604464FF0000AB9
:1003E000DFF824B1FB44C0F820A02046E16888472C
:1003F00000287DD0252806D0D4E901219047206A25
:10040000401C2062F1E700255F462046E1688847EE
:100410002028064607DB312E05D2B81910F8200C2B
:1004200008B10543F1E7A80701D525F00405C4F894
:100430001CA00027C4F818A02A2E09D0304602F0CC
:100440009EF938B304EB8708303EC8F8186019E00D
:1004500059F8041B204604EB87029161E168884744
:10046000012F064618D1E069002820DA25F0200582
:100470001DE0D8F8180000EB800006EB4000303893
:10048000C8F818002046E1688847064602F077F968
:100490000028EED1012F0AD02E2E08D12046E16887
:1004A00088477F1C0646022F45F02005C4DBA06963
:1004B000002803DA404245F00105A061E80701D0B9
:1004C00025F01005A6B1A6F14100192802D8203662
:1004D00045F400654A463146204625604D46FFF703
:1004E00061FE60B1012807D0ED1D25F0070000E096
:1004F00007E000F1080978E705F1040975E73046DF
:100500007AE7206ABDE8F09F3043000070477047EB
:10051000704770472DE9F0470D46994692460446CC
:1005200000F124080168880604D5E06921F0100173
:10053000216000E00120A84201DD471B00E0002708
:10054000A1697A1902EB0900081AA0612078C00697
:1005500002D42046FFF786FE002608E0D4E90121F8
:100560001AF806009047206A401C761C20624E450F
:10057000F4DB2078C0060AD52046FFF773FE06E0BC
:10058000D4E9012130209047206A401C2062381EA7
:10059000A7F10107F4DC07E0D4E9012118F8050010
:1005A0009047206A401C2062281EA5F10105F3DC5B
:1005B0002046FFF76DFE2078000602D50220BDE838
:1005C000F0870120FBE7000001694A1C02610878FE
:1005D000704700B58FB0CDE9013100210591054983
:1005E0007944CDE9031011466846FFF7F3FE0FB0DA
:1005F00000BD0000E5FFFFFF0A6802F8010B0A607A
:10060000704710B5436913B1AFF3008001E0FFF705
:1006100050FE012010BD127800F124010A70002262
:100620004A700122EDE711684FF0FF32E9E7000060
:10063000074B70B50D467B44FFF7CBFF04462846B9
:1006400000F008F810B14FF0FF3070BD204670BDCB
:100650003B270000007B00F080007047754600F0EB
:100660002BF8AE4605006946534620F00700854644
:1006700018B020B5FFF7C2FDBDE820404FF00006DE
:100680004FF000074FF000084FF0000B21F007017A
:10069000AC46ACE8C009ACE8C009ACE8C009ACE8BD
:1006A000C0098D46704710B50446AFF30080204660
:1006B000BDE81040FFF78EBD00487047F0040020F1
:1006C00000BFFEE77047000051B18200A2F1C042B6
:1006D000126842F001038200A2F1C042136009E0F7
:1006E0008200A2F1C0421268034B1A408300A3F1BA
:1006F000C0431A6070470000FEFF0F00D0E90112EE
:100700001143C2681143026911434269114382696E
:100710001143C2691143026A1143426A1143826A5A
:100720001143C26A1143026B114302689200A2F1A5
:10073000C0421160816808290BD101688900A1F1CC
:10074000C041096841F0400201688900A1F1C0413F
:100750000A60416B0968426B526841EA0211426BC0
:10076000926841EA0221426B928941EA0241426B5E
:10077000128A41EA0251426B127D41EA0261426BE8
:10078000926911430268521C9200A2F1C0421160AA
:10079000C16AB1F5804F1BD1816B0968826B5268C9
:1007A00041EA0211826B926841EA0221826B128A4D
:1007B00041EA0251826B127D41EA0261826B9269C9
:1007C000114302689200A2F1C042C2F8041107E08E
:1007D0006FF0704201688900A1F1C041C1F80421A5
:1007E00070472DE9F0410246002500260020002335
:1007F0000024002791F803C00CF00F0591F803C006
:100800000CF0100CBCF1000F03D091F802C04CEAC0
:10081000050591F800C0BCF1000F31D0146800202C
:100820002BE04FF0010C0CFA00F3B1F800C00CEA19
:1008300003069E4220D183004FF00F0C0CFA03F701
:10084000BC4305FA03FC4CEA040491F803C0BCF174
:10085000280F06D14FF0010C0CFA00FCC2F814C0AE
:100860000AE091F803C0BCF1480F05D14FF0010C2C
:100870000CFA00FCC2F810C0401C0828D1D3146048
:10088000B1F800C0BCF1FF0F34DD546800202EE049
:1008900000F1080C4FF0010808FA0CF3B1F800C0A1
:1008A0000CEA03069E4221D183004FF00F0C0CFA94
:1008B00003F7BC4305FA03FC4CEA040491F803C0B7
:1008C000BCF1280F05D100F1080C08FA0CF8C2F8A9
:1008D000148091F803C0BCF1480F07D100F1080C57
:1008E0004FF0010808FA0CF8C2F81080401C0828E4
:1008F000CED35460BDE8F081F0B50A460023002451
:100900000021002500F00046B6F1004F02D11D4E37
:10091000F16901E01B4E7168C0F3034583B200F436
:100920004016B6F5401F08D121F07061154E76686B
:1009300026F07066134F7E6012E000F48016B6F564
:10094000801F06D1032606FA05F4A14341F0706129
:1009500006E0460D360103FA06F6B14341F0706138
:1009600022B1460D360103FA06F6314300F0004687
:10097000B6F1004F02D1034EF16101E0014E71600A
:10098000F0BD000000000140016170470EE0084921
:10099000C96881F40061064AD160002001E0411C71
:1009A00088B242F210718842F9DB00BFEFE7000025
:1009B000002001400948006801280CD1084800685F
:1009C00048B10748001F006828B10548083800688A
:1009D00008B1012070470020FCE70000000121421F
:1009E000100123420948006801280CD0084800681B
:1009F00048B90748001F006828B105480838006852
:100A000008B1012070470020FCE7000000012142EE
:100A1000100123420948006801280CD008480068EA
:100A200048B10748001F006828B905480838006821
:100A300008B1012070470020FCE7000000012142BE
:100A4000100123420948006801280CD008480068BA
:100A500048B10748001F006828B1054808380068F9
:100A600008B9012070470020FCE700000001214286
:100A7000100123420948006801280CD10848006889
:100A800048B90748001F006828B1054808380068C1
:100A900008B1012070470020FCE70000000121425E
:100AA000100123420948006801280CD0084800685A
:100AB00048B90748001F006828B905480838006889
:100AC00008B1012070470020FCE70000000121422E
:100AD0001001234270B50646002409480588408865
:100AE00045430021084600F0EFF800F0DBF900BFB5
:100AF00003E0304600F0CAF9641CAC42F9D370BD83
:100B0000E204002010B504467CB900201049887129
:100B10002C2008812A2048812B2088814FF4A07046
:100B200008804FF4F07048800EE001200849887179
:100B30002C2008812A2048812B2088814FF4F070D6
:100B400008804FF4A0704880002000F029F810BD04
:100B5000E204002070B504460D4616460C4948894B
:100B600000F09AF9201200F091F9E0B200F08EF94D
:100B70000749888900F090F9281200F087F9E8B257
:100B800000F084F902490889314600F093F970BDFC
:100B9000E204002001480088704700000008006C53
:100BA00070B50546002447488079012818D1082DE2
:100BB00015D2DFE805F00406080A0C0E101206250F
:100BC0000DE007250BE0042509E0052507E00125D8
:100BD00005E0002503E0032501E0022500BF00BF7A
:100BE000082D1CD2DFE805F00406090C0F121518B9
:100BF00000BF14E044F0800411E044F040040EE033
:100C000044F0C0040BE044F0200408E044F0600429
:100C100005E044F0A00402E044F0E00400BF00BF9F
:100C20002146362000F046F904F0200068B125483E
:100C3000008824494988884214DA22480688408876
:100C400020490880084646800CE01E4800881D495F
:100C50004988884206DD1B48068840881949088073
:100C6000084646801749488900F016F9002000F030
:100C70000DF9002000F00AF912490988491EC1F354
:100C80000F2000F003F90F490978491EC8B200F09F
:100C9000FDF80C49888900F0FFF8002000F0F6F814
:100CA000002000F0F3F807494988491EC1F30F20DE
:100CB00000F0ECF803498978491EC8B200F0E6F864
:100CC00070BD0000E204002000B502460B460A4950
:100CD000488900F0E1F8101200F0D8F8D0B200F026
:100CE000D5F80549888900F0D7F8181200F0CEF839
:100CF000D8B200F0CBF800BDE20400202DE9F84F97
:100D000080460E4617461C46B3462046E31704EBC2
:100D10005373DB1021464FEAE47C04EB5C7C4FEA22
:100D2000EC0CA4EBCC0CBCF1000F02D04FF0010C8A
:100D300001E04FF0000C6344224604EBD27C4FEA02
:100D40006C0C03FB0CF3DBB20093A7F12000C7B2DD
:100D5000002556E00C2C07D107EB47002B4901EB8F
:100D6000800010F8059013E0102C05D1284800EB06
:100D7000071010F805900BE0182C07D107EBC700FF
:100D8000244901EB800010F8059001E0BDE8F88FE0
:100D90004FF0000A2FE009F0800030B11E480288B1
:100DA00031464046FFF7D6FE07E00A9828B91B48AF
:100DB000028831464046FFF7CDFE4FEA49604FEAD0
:100DC0001069701C86B216484088B04200DCDDE72E
:100DD000A6EB0B00A0420AD15E4608F101001FFA03
:100DE00080F80F480088404500DCCFE706E00AF1B4
:100DF000010000F0FF0ABAF1080FCCDB00BF681C4D
:100E0000C5B200988542A5DB00BFBFE7302F0008C0
:100E1000A433000894390008180000201A000020AC
:100E2000E20400202DE9F84704460D469046994615
:100E3000DDE9096704F0FF0A08EB04001FFA80F8F7
:100E400009EB05001FFA80F916E0444502DB544621
:100E5000A81985B24D4500DB14E0002000903A78D7
:100E6000334629462046FFF749FF304606EBD0714E
:100E700004EB61018CB27F1C38787E2802DC387864
:100E80002028E2DA00BFBDE8F887000001490880A9
:100E9000704700000008006C01490880704700009E
:100EA000FE07006C00B502490889FFF7F5FF00BD99
:100EB000E204002000B503460A461846FFF7ECFF9F
:100EC0001046FFF7E3FF00BD00BFFEE7704710B517
:100ED000ED20FFF7E1FF0120FFF7D8FFFE20FFF72D
:100EE000D5FFEE20FFF7D8FFDE20FFF7CFFF212050
:100EF000FFF7CCFFF120FFF7CFFF0120FFF7C6FF80
:100F0000DF20FFF7C9FF1020FFF7C0FFC420FFF765
:100F1000C3FF8F20FFF7BAFFC620FFF7BDFF0020F9
:100F2000FFF7B4FFE220FFF7B1FFE220FFF7AEFFCB
:100F3000E220FFF7ABFFBF20FFF7AEFFAA20FFF7CD
:100F4000A5FFB020FFF7A8FF0D20FFF79FFF0020AF
:100F5000FFF79CFF0D20FFF799FF0020FFF796FF9A
:100F60001120FFF793FF0020FFF790FF1920FFF7F4
:100F70008DFF0020FFF78AFF2120FFF787FF002069
:100F8000FFF784FF2D20FFF781FF0020FFF77EFF92
:100F90003D20FFF77BFF0020FFF778FF5D20FFF784
:100FA00075FF0020FFF772FF5D20FFF76FFF002045
:100FB000FFF76CFFB120FFF76FFF8020FFF766FFA0
:100FC0000020FFF763FF8B20FFF760FF0020FFF793
:100FD0005DFF9620FFF75AFF0020FFF757FFB22072
:100FE000FFF75AFF0020FFF751FF0020FFF74EFFE9
:100FF0000220FFF74BFF0020FFF748FF0320FFF719
:1010000045FF0020FFF742FFB320FFF745FF002018
:10101000FFF73CFF0020FFF739FF0020FFF736FF06
:101020000020FFF733FF0020FFF730FF0020FFF71D
:101030002DFF0020FFF72AFF0020FFF727FF0020E9
:10104000FFF724FF0020FFF721FF0020FFF71EFF1E
:101050000020FFF71BFF0020FFF718FF0020FFF71D
:1010600015FF0020FFF712FF0020FFF70FFF002001
:10107000FFF70CFF0020FFF709FF0020FFF706FF36
:101080000020FFF703FF0020FFF700FF0020FFF71D
:10109000FDFE0020FFF7FAFE0020FFF7F7FEB42068
:1010A000FFF7FAFE8B20FFF7F1FE0020FFF7EEFEC0
:1010B0009620FFF7EBFE0020FFF7E8FEA120FFF7E8
:1010C000E5FE0020FFF7E2FEB520FFF7E5FE022077
:1010D000FFF7DCFE0020FFF7D9FE0320FFF7D6FE66
:1010E0000020FFF7D3FE0420FFF7D0FE0020FFF71B
:1010F000CDFEB620FFF7D0FE0020FFF7C7FE002090
:10110000FFF7C4FEB720FFF7C7FE0020FFF7BEFEC3
:101110000020FFF7BBFE3F20FFF7B8FE0020FFF7DF
:10112000B5FE5E20FFF7B2FE0020FFF7AFFE6420A1
:10113000FFF7ACFE0020FFF7A9FE8C20FFF7A6FE0C
:101140000020FFF7A3FEAC20FFF7A0FE0020FFF772
:101150009DFEDC20FFF79AFE0020FFF797FE70202F
:10116000FFF794FE0020FFF791FE9020FFF78EFE20
:101170000020FFF78BFEEB20FFF788FE0020FFF733
:1011800085FEDC20FFF782FE0020FFF77FFEB820FF
:10119000FFF782FE0020FFF779FE0020FFF776FEC2
:1011A0000020FFF773FE0020FFF770FE0020FFF71E
:1011B0006DFE0020FFF76AFE0020FFF767FE0020AB
:1011C000FFF764FEBA20FFF767FE2420FFF75EFEFC
:1011D0000020FFF75BFE0020FFF758FE0020FFF71E
:1011E00055FEC120FFF758FE2020FFF74FFE0020DC
:1011F000FFF74CFE5420FFF749FE0020FFF746FEA4
:10120000FF20FFF743FE0020FFF740FEC220FFF75C
:1012100043FE0A20FFF73AFE0020FFF737FE0420C6
:10122000FFF734FE0020FFF731FEC320FFF734FE46
:101230003C20FFF72BFE0020FFF728FE3A20FFF7A7
:1012400025FE0020FFF722FE3920FFF71FFE0020B9
:10125000FFF71CFE3720FFF719FE0020FFF716FEF0
:101260003C20FFF713FE0020FFF710FE3620FFF7AB
:101270000DFE0020FFF70AFE3220FFF707FE0020D8
:10128000FFF704FE2F20FFF701FE0020FFF7FEFD11
:101290002C20FFF7FBFD0020FFF7F8FD2920FFF7CA
:1012A000F5FD0020FFF7F2FD2620FFF7EFFD0020FF
:1012B000FFF7ECFD2420FFF7E9FD0020FFF7E6FD36
:1012C0002420FFF7E3FD0020FFF7E0FD2320FFF7D8
:1012D000DDFD0020FFF7DAFD3C20FFF7D7FD002001
:1012E000FFF7D4FD3620FFF7D1FD0020FFF7CEFD3C
:1012F0003220FFF7CBFD0020FFF7C8FD2F20FFF7BE
:10130000C5FD0020FFF7C2FD2C20FFF7BFFD002028
:10131000FFF7BCFD2920FFF7B9FD0020FFF7B6FD60
:101320002620FFF7B3FD0020FFF7B0FD2420FFF7D4
:10133000ADFD0020FFF7AAFD2420FFF7A7FD002048
:10134000FFF7A4FD2320FFF7A1FD0020FFF79EFD7E
:10135000C420FFF7A1FD6220FFF798FD0020FFF7F2
:1013600095FD0520FFF792FD0020FFF78FFD8420FB
:10137000FFF78CFD0020FFF789FDF020FFF786FDC9
:101380000020FFF783FD1820FFF780FD0020FFF706
:101390007DFDA420FFF77AFD0020FFF777FD1820E0
:1013A000FFF774FD0020FFF771FD5020FFF76EFD81
:1013B0000020FFF76BFD0C20FFF768FD0020FFF712
:1013C00065FD1720FFF762FD0020FFF75FFD952008
:1013D000FFF75CFD0020FFF759FDF320FFF756FDF6
:1013E0000020FFF753FDE620FFF750FD0020FFF738
:1013F0004DFDC520FFF750FD3220FFF747FD0020CF
:10140000FFF744FD4420FFF741FD0020FFF73EFDBC
:101410006520FFF73BFD0020FFF738FD7620FFF742
:1014200035FD0020FFF732FD8820FFF72FFD00205B
:10143000FFF72CFDC620FFF72FFD2020FFF726FD2C
:101440000020FFF723FD1720FFF720FD0020FFF706
:101450001DFD0120FFF71AFD0020FFF717FDC72033
:10146000FFF71AFD0020FFF711FD0020FFF70EFD2A
:101470000020FFF70BFD0020FFF708FDC820FFF755
:101480000BFD0020FFF702FD0020FFF7FFFC00200E
:10149000FFF7FCFC0020FFF7F9FCC920FFF7FCFC7C
:1014A0000020FFF7F3FC0020FFF7F0FC0020FFF71F
:1014B000EDFC0020FFF7EAFC0020FFF7E7FC00202E
:1014C000FFF7E4FC0020FFF7E1FC0020FFF7DEFC63
:1014D0000020FFF7DBFC0020FFF7D8FC0020FFF71F
:1014E000D5FC0020FFF7D2FC0020FFF7CFFC002046
:1014F000FFF7CCFC0020FFF7C9FC0020FFF7C6FC7B
:10150000E020FFF7C9FC1620FFF7C0FC0020FFF722
:10151000BDFC1C20FFF7BAFC0020FFF7B7FC212020
:10152000FFF7B4FC0020FFF7B1FC3620FFF7AEFC5C
:101530000020FFF7ABFC4620FFF7A8FC0020FFF7D8
:10154000A5FC5220FFF7A2FC0020FFF79FFC6420BF
:10155000FFF79CFC0020FFF799FC7A20FFF796FC30
:101560000020FFF793FC8B20FFF790FC0020FFF793
:101570008DFC9920FFF78AFC0020FFF787FCA8204C
:10158000FFF784FC0020FFF781FCB920FFF77EFC09
:101590000020FFF77BFCC420FFF778FC0020FFF75A
:1015A00075FCCA20FFF772FC0020FFF76FFCD22009
:1015B000FFF76CFC0020FFF769FCD920FFF766FC01
:1015C0000020FFF763FCE020FFF760FC0020FFF73E
:1015D0005DFCF320FFF75AFC0020FFF757FCE120E9
:1015E000FFF75AFC1620FFF751FC0020FFF74EFCD6
:1015F0001C20FFF74BFC0020FFF748FC2220FFF7E0
:1016000045FC0020FFF742FC3620FFF73FFC00209E
:10161000FFF73CFC4520FFF739FC0020FFF736FCC4
:101620005220FFF733FC0020FFF730FC6420FFF767
:101630002DFC0020FFF72AFC7A20FFF727FC002072
:10164000FFF724FC8B20FFF721FC0020FFF71EFC96
:101650009920FFF71BFC0020FFF718FCA820FFF7DC
:1016600015FC0020FFF712FCB920FFF70FFC00204B
:10167000FFF70CFCC420FFF709FC0020FFF706FC75
:10168000CA20FFF703FC0020FFF700FCD220FFF781
:10169000FDFB0020FFF7FAFBD820FFF7F7FB002047
:1016A000FFF7F4FBE020FFF7F1FB0020FFF7EEFB74
:1016B000F320FFF7EBFB0020FFF7E8FBE220FFF74A
:1016C000EBFB0520FFF7E2FB0020FFF7DFFB0B2021
:1016D000FFF7DCFB0020FFF7D9FB1B20FFF7D6FB51
:1016E0000020FFF7D3FB3420FFF7D0FB0020FFF7EB
:1016F000CDFB4420FFF7CAFB0020FFF7C7FB4F20BC
:10170000FFF7C4FB0020FFF7C1FB6120FFF7BEFB22
:101710000020FFF7BBFB7920FFF7B8FB0020FFF7A5
:10172000B5FB8820FFF7B2FB0020FFF7AFFB972047
:10173000FFF7ACFB0020FFF7A9FBA620FFF7A6FBF5
:101740000020FFF7A3FBB720FFF7A0FB0020FFF767
:101750009DFBC220FFF79AFB0020FFF797FBC720F5
:10176000FFF794FB0020FFF791FBD120FFF78EFBE2
:101770000020FFF78BFBD620FFF788FB0020FFF748
:1017800085FBDD20FFF782FB0020FFF77FFBF320C6
:10179000FFF77CFB0020FFF779FBE320FFF77CFBE2
:1017A0000520FFF773FB0020FFF770FB0A20FFF70F
:1017B0006DFB0020FFF76AFB1C20FFF767FB002092
:1017C000FFF764FB3320FFF761FB0020FFF75EFBB0
:1017D0004420FFF75BFB0020FFF758FB5020FFF78A
:1017E00055FB0020FFF752FB6220FFF74FFB002064
:1017F000FFF74CFB7820FFF749FB0020FFF746FB83
:101800008820FFF743FB0020FFF740FB9720FFF7FE
:101810003DFB0020FFF73AFBA620FFF737FB002037
:10182000FFF734FBB720FFF731FB0020FFF72EFB5B
:10183000C220FFF72BFB0020FFF728FBC720FFF794
:1018400025FB0020FFF722FBD120FFF71FFB002024
:10185000FFF71CFBD520FFF719FB0020FFF716FB55
:10186000DD20FFF713FB0020FFF710FBF320FFF74D
:101870000DFB0020FFF70AFBE420FFF70DFB012022
:10188000FFF704FB0020FFF701FB0120FFF7FEFA42
:101890000020FFF7FBFA0220FFF7F8FA0020FFF71D
:1018A000F5FA2A20FFF7F2FA0020FFF7EFFA3C20C2
:1018B000FFF7ECFA0020FFF7E9FA4B20FFF7E6FA12
:1018C0000020FFF7E3FA5D20FFF7E0FA0020FFF7C2
:1018D000DDFA7420FFF7DAFA0020FFF7D7FA842048
:1018E000FFF7D4FA0020FFF7D1FA9320FFF7CEFAE2
:1018F0000020FFF7CBFAA220FFF7C8FA0020FFF77D
:10190000C5FAB320FFF7C2FA0020FFF7BFFABE20E6
:10191000FFF7BCFA0020FFF7B9FAC420FFF7B6FAC8
:101920000020FFF7B3FACD20FFF7B0FA0020FFF751
:10193000ADFAD320FFF7AAFA0020FFF7A7FADD20BF
:10194000FFF7A4FA0020FFF7A1FAF320FFF79EFAB1
:101950000020FFF79BFAE520FFF79EFA0020FFF733
:1019600095FA0020FFF792FA0020FFF78FFA002087
:10197000FFF78CFA0220FFF789FA0020FFF786FABA
:101980002920FFF783FA0020FFF780FA3C20FFF7B9
:101990007DFA0020FFF77AFA4B20FFF777FA002054
:1019A000FFF774FA5D20FFF771FA0020FFF76EFA77
:1019B0007420FFF76BFA0020FFF768FA8420FFF726
:1019C00065FA0020FFF762FA9320FFF75FFA002024
:1019D000FFF75CFAA220FFF759FA0020FFF756FA4A
:1019E000B320FFF753FA0020FFF750FABE20FFF7AD
:1019F0004DFA0020FFF74AFAC420FFF747FA00200B
:101A0000FFF744FACD20FFF741FA0020FFF73EFA36
:101A1000D320FFF73BFA0020FFF738FADC20FFF76E
:101A200035FA0020FFF732FAF320FFF72FFA0020F3
:101A3000FFF72CFAE620FFF72FFA1120FFF726FA1E
:101A40000020FFF723FA3420FFF720FA0020FFF7E9
:101A50001DFA5620FFF71AFA0020FFF717FA762032
:101A6000FFF714FA0020FFF711FA7720FFF70EFABC
:101A70000020FFF70BFA6620FFF708FA0020FFF7B7
:101A800005FA8820FFF702FA0020FFF7FFF99920F6
:101A9000FFF7FCF90020FFF7F9F9BB20FFF7F6F993
:101AA0000020FFF7F3F99920FFF7F0F90020FFF786
:101AB000EDF96620FFF7EAF90020FFF7E7F9552076
:101AC000FFF7E4F90020FFF7E1F95520FFF7DEF911
:101AD0000020FFF7DBF94520FFF7D8F90020FFF7DA
:101AE000D5F94320FFF7D2F90020FFF7CFF94420C2
:101AF000FFF7CCF90020FFF7C9F9E720FFF7CCF991
:101B00003220FFF7C3F90020FFF7C0F95520FFF797
:101B1000BDF90020FFF7BAF97620FFF7B7F90020EA
:101B2000FFF7B4F96620FFF7B1F90020FFF7AEF92F
:101B30006720FFF7ABF90020FFF7A8F96720FFF750
:101B4000A5F90020FFF7A2F98720FFF79FF90020F1
:101B5000FFF79CF99920FFF799F90020FFF796F914
:101B6000BB20FFF793F90020FFF790F99920FFF7CA
:101B70008DF90020FFF78AF97720FFF787F9002019
:101B8000FFF784F94420FFF781F90020FFF77EF981
:101B90005620FFF77BF90020FFF778F92320FFF7A5
:101BA00075F90020FFF772F93320FFF76FF9002075
:101BB000FFF76CF94520FFF769F90020FFF766F998
:101BC000E820FFF769F90020FFF760F90020FFF730
:101BD0005DF99920FFF75AF90020FFF757F98720A0
:101BE000FFF754F90020FFF751F98820FFF74EF96D
:101BF0000020FFF74BF97720FFF748F90020FFF7A7
:101C000045F96620FFF742F90020FFF73FF98820E9
:101C1000FFF73CF90020FFF739F9AA20FFF736F962
:101C20000020FFF733F9BB20FFF730F90020FFF762
:101C30002DF99920FFF72AF90020FFF727F96620F0
:101C4000FFF724F90020FFF721F95520FFF71EF9CF
:101C50000020FFF71BF95520FFF718F90020FFF7C8
:101C600015F94420FFF712F90020FFF70FF944207F
:101C7000FFF70CF90020FFF709F95520FFF706F9E7
:101C80000020FFF703F9E920FFF706F9AA20FFF784
:101C9000FDF80020FFF7FAF80020FFF7F7F8002022
:101CA000FFF7F4F80020FFF7F7F8AA20FFF7EEF8A7
:101CB000CF20FFF7F1F80020FFF7E8F80020FFF74A
:101CC000E5F80020FFF7E2F80020FFF7DFF800203A
:101CD000FFF7DCF80020FFF7D9F80020FFF7D6F86F
:101CE0000020FFF7D3F80020FFF7D0F80020FFF71F
:101CF000CDF80020FFF7CAF80020FFF7C7F8002052
:101D0000FFF7C4F80020FFF7C1F80020FFF7BEF886
:101D10000020FFF7BBF80020FFF7B8F8F020FFF72E
:101D2000BBF80020FFF7B2F85020FFF7AFF8002013
:101D3000FFF7ACF80020FFF7A9F80020FFF7A6F89E
:101D4000F320FFF7A9F80020FFF7A0F8F920FFF72C
:101D5000A3F80620FFF79AF81020FFF797F829203C
:101D6000FFF794F80020FFF791F83A20FFF794F876
:101D70005520FFF78BF81120FFF78EF8642000F054
:101D8000F3FF2920FFF788F83520FFF785F80020BA
:101D9000FFF77CF85120FFF77FF8FF20FFF776F878
:101DA0005320FFF779F82C20FFF770F85520FFF744
:101DB00073F88220FFF76AF810BD000070B50021AB
:101DC00000230F22C47804B3154C246804F4E064A3
:101DD000C4F5E064210AC1F10403CA40447804FA5E
:101DE00003F184781440214309010E4C0678A15573
:101DF000047804F01F050124AC4005786D11AD0096
:101E000005F1E025C5F8004109E0047804F01F055C
:101E10000124AC40044D0678761145F8264070BD8B
:101E20000CED00E000E400E080E100E00249014345
:101E3000024A1160704700000000FA050CED00E056
:101E40007047000070B515480468001D0568001D46
:101E5000066823462A46314611A0FEF7E3F91DA085
:101E6000FEF7E0F91C48FEF7DDF91CA125A0FEF7FE
:101E7000D9F928A128A0FEF7D5F92BA12DA0FEF7AE
:101E8000D1F90023052203212E48FEF7CBF92EA01D
:101E9000FEF7C8F91048FEF7C5F970BDE8F7FF1F57
:101EA0000D0A4350553A53544D3332463130335A6C
:101EB0004554362C4C5146503134342C5549443D10
:101EC00025303858202530385820253038580A0D0C
:101ED000000000000D0A000074470008B9F9CEC4E4
:101EE000C1FA5F32B0E05FCEC2B6C8B4ABB8D0C6FC
:101EF000F7CAB5D1E9A3A8B4F2D3A1CAB5D1E9A371
:101F0000A9000000C0FDB3CCC3FBB3C6A3BA2573C0
:101F10000D0A0000312E3000C0FAB3CCB0E6B1BEDD
:101F2000A3BA25730D0A0000323032332E2D352D21
:101F300032320000B7A2B2BCC8D5C6DAA3BA257344
:101F40000D0A00002C4700082A0D0A0010B506A053
:101F5000FEF768F907A0FEF765F911A0FEF762F930
:101F60001DA0FEF75FF910BDB2D9D7F7CCE1CABE0C
:101F70003A0D0A00312EB1BEB3CCD0F2D6D0A3AC0C
:101F8000C3BF2033303020BAC1C3EB2044533020CC
:101F9000BAECB5C6B7ADD7AAD2BBB4CE0D0A000015
:101FA000322ECEDED0E8BDF8D0D0B2D9D7F7A3AC70
:101FB000C3BF203120C3EBD7D4B6AFCBA2D0C2CFA2
:101FC000D4CABEA3ACD1D5C9ABBCB0B6D4D3A6B528
:101FD000C4D0F2BAC50D0A000D0A0D0A00000000B7
:101FE00029B1064A52690243044B5A6104E0034A8C
:101FF00052698243014B5A61704700000010024051
:1020000029B1064A92690243044B9A6104E0034AEB
:1020100092698243014B9A617047000000100240B0
:1020200030B500210022002400232D4D6D6805F0FD
:102030000C0121B1042905D0082923D105E0294D3F
:10204000056022E0274D05601FE0254D6D6805F411
:102050007012234D6D6805F48034022505EB924221
:102060001CB9214D554305600BE01D4D6D6805F40D
:1020700000351DB11C4D5543056002E0194D554317
:10208000056002E0174D056000BF00BF144D6D688C
:1020900005F0F0010909154D6B5C0568DD404560F0
:1020A0000F4D6D6805F4E061090A104D6B5C4568E1
:1020B000DD4085600A4D6D6805F46051C90A0B4D1D
:1020C0006B5C4568DD40C560054D6D6805F44041B9
:1020D000890B074D6B5CC568B5FBF3F5056130BD39
:1020E0000010024000127A0000093D00300000207C
:1020F00040000020704710B500F002F810BD00004D
:102100000CB50020019000903348006840F4803006
:102110003149086000BF3048006800F4003000908A
:102120000198401C0190009818B90198B0F5A06F73
:10213000F1D12948006800F4003010B1012000906E
:1021400001E0002000900098012843D12348006856
:1021500040F01000214908600846006820F00300A4
:1021600008600846006840F0020008601A484068AD
:10217000194948600846406848600846406840F48D
:10218000806048600846406820F47C10486008463B
:10219000406840F4E81048600846006840F08070ED
:1021A000086000BF0C48006800F000700028F9D0FB
:1021B0000948406820F00300074948600846406825
:1021C00040F00200486000BF0348406800F00C0087
:1021D0000828F9D10CBD0000001002400020024088
:1021E00010B500F001F810BD10B51B48006840B1F3
:1021F00019480068401E1849086010B901201749A5
:102200000870002408E004EB4401154A02EB810049
:1022100000F04DFD601CC4B2042CF4DB11480068D2
:10222000401C10490860084600686FF00041884271
:1022300002D100200B49086000F038FD0A48007800
:10224000401CC0B2084908700A2803DB002008704F
:1022500000F028FD10BD0000040000200800002050
:10226000440400200C0000201000002010B513488A
:10227000006840F0010011490860084640681049B4
:1022800008400E494860084600680E4908400B495E
:1022900008600846006820F480200860084640680E
:1022A00020F4FE0048604FF41F008860FFF723FF12
:1022B0004FF000600449086010BD000000100240AB
:1022C0000000FFF8FFFFF6FE08ED00E000B59DB04E
:1022D00001200790002008900F20099000200A900C
:1022E0000B900C900D900090019003200290002024
:1022F000039004900590069006200E9000200F9009
:1023000010901020119000201290149013901590AE
:1023100016904FF480501790002018904FF4804092
:10232000199000201A9007A81B90CDF870D00EA825
:10233000FEF7E4F901210620FEF7C6F91DB000BD45
:1023400008B501210802FFF74BFE01214FF4B470DC
:10235000FFF756FE0120ADF8000010208DF80300B5
:1023600003208DF8020069465848FEF73AFA182013
:102370008DF8030003208DF802004FF48050ADF873
:10238000000069465248FEF72CFA0120ADF8000023
:1023900069464F48FEF725FA4FF48050ADF800002B
:1023A00069464B48FEF71DFA2020ADF8000069464B
:1023B0004848FEF716FA1020ADF800006946454877
:1023C000FEF70FFA18208DF8030003208DF80200A5
:1023D0004FF48040ADF8000069463E48FEF701FA30
:1023E0004FF40040ADF8000069463A48FEF7F9F9AD
:1023F0000120ADF8000069463648FEF7F2F90220E8
:10240000ADF8000069463348FEF7EBF98020ADF8DF
:10241000000069463048FEF7E4F94FF48070ADF8EB
:10242000000069462C48FEF7DCF94FF40070ADF867
:10243000000069462848FEF7D4F94FF48060ADF8F3
:10244000000069462448FEF7CCF94FF40060ADF86F
:10245000000069462048FEF7C4F94FF48050ADF8FB
:10246000000069461C48FEF7BCF94FF40050ADF877
:10247000000069461848FEF7B4F94FF48040ADF803
:10248000000069461448FEF7ACF94FF40040ADF87F
:10249000000069461048FEF7A4F94FF48070ADF8CB
:1024A000000069460B48FEF79CF94FF40070ADF848
:1024B000000069460748FEF794F94FF48060ADF8D4
:1024C000000069460348FEF78CF908BD000C014086
:1024D00000200140001401400018014010B5FFF732
:1024E0002FFFFFF7F3FE322000F03EFCD420FEF772
:1024F000D3FCFEF74FFB13498880FEF74BFB1149D5
:102500008880FEF747FB0F498880084680884FF691
:10251000FF7101EA00200B498880FEF73BFB094967
:102520008988084307498880FEF7D1FC0020FEF720
:10253000E9FA0120044908604FF6FF70FEF7CAFA75
:1025400010BD0000E20400208081214210B500BFD0
:1025500040F22551104800F033F858B10E48001DE4
:102560000088C1B20D4802880088401C0B4B1880BF
:102570000B48815440F22441074800F021F848B14B
:1025800005480088C4B20448001D0088C4B2012078
:102590000449087010BD000000380140020000200E
:1025A000440000200000002021B1828942F4005242
:1025B000828104E082894DF6FF731A408281704760
:1025C00070B50246002400230025002040F66A165C
:1025D000B14200D100BFC1F3421501F01F03012633
:1025E00006FA03F3012D02D19689334006E0022D4D
:1025F00002D1168A334001E0968A33400C1201263C
:1026000006FA04F41688344013B10CB1012000E03E
:10261000002070BDF0B503460024002600250020F0
:1026200040F66A17B94200D100BF1846C1F3421400
:1026300001F01F06012707FA06F5012C01D10C3025
:1026400004E0022C01D1103000E014301AB1076808
:102650002F43076002E00768AF430760F0BD00004A
:102660002DE9F04786B005460E460024A24600BF7D
:10267000A1460027B08900B100BF2F462C8A4CF636
:10268000FF700440F08804432C82AC894EF6F310AE
:102690000440B08831890843718908430443AC8100
:1026A000AC8A4FF6FF400440B0890443AC8201A8D5
:1026B000FFF7B6FC1F48874202D1DDF810A001E009
:1026C000DDF80CA0A88900F4004040B10AEBCA0074
:1026D00000EB0A1031684900B0FBF1F807E00AEBA3
:1026E000CA0000EB0A1031688900B0FBF1F86420E1
:1026F000B8FBF0F004012009642101FB1089A889CE
:1027000000F4004040B1322000EBC900B0FBF1F012
:1027100000F00700044308E0322000EB09106421B8
:10272000B0FBF1F000F00F0004432C8106B0BDE8CF
:10273000F08700000038014000BFFEE7002001499B
:1027400008607047082C004001480068C0B270471C
:10275000082C004010B5FFF7F7FF20B1FFF7EEFFA0
:102760007F2000F001F810BD00F07F01014A1160E8
:1027700070470000002C004080F31088704730380C
:102780000A2801D2012070470020704700BF70471F
:102790000146042901DB0020704701EB4100084A93
:1027A00002EB80004078012808D1002001EB4102B3
:1027B000034B03EB820250700120EDE70020EBE7B2
:1027C0004404002010B5044604B910BD012C00D10A
:1027D00002240120FFF7D0FF0948046000200949C6
:1027E0000870FFF7C9FF06E000F096F8054800788A
:1027F000012800D100E0F7E700BF00BFE5E70000D7
:10280000040000200800002070B50546344800EBA5
:1028100005142068804700283AD02079052802DA7C
:10282000052020715AE020790A2803DA2079401C1B
:10283000207153E0A07A38B90120A07205EB450160
:10284000491CC8B200F01EFA2089002846DDE08845
:10285000218988420FDAE088401C80B2E08021891B
:1028600088423BD10320A07205EB4501C91CC8B2C8
:1028700000F008FA32E0E07A00282FDDE07A401C10
:10288000C0B2E072C1B2884228DB0020207325E08C
:102890002079052802DD052020711CE0207918B17F
:1028A0002079401E207116E0A07A012808D100206E
:1028B000A07205EB4501891CC8B200F0E3F90AE0FB
:1028C000A07A032807D10020A07205EB4501891CDE
:1028D000C8B200F0D7F90020E080207370BD00007E
:1028E000740400200B48807A0A4AD27A904201D1BF
:1028F000002070470748807A064A115C1046807AAB
:10290000401CC0B290720A2801DB00209072084679
:10291000EFE70000D40400207047000010B54FF42A
:10292000A060FFF783FA00F0B7F800F035F800F088
:102930001DF84FF4E13000F029F900F0D9F84FF01C
:10294000FF300021002807DA0A07140E054A00F0BC
:102950000F031B1FD45403E00A07130E024A13543B
:1029600000BF10BD18ED00E000E400E008B5012153
:102970000802FFF745FB03208DF8020010208DF8B8
:102980000300C001ADF8000069460248FDF729FFC9
:1029900008BD00000020014010B500F03BF800F039
:1029A00001F810BD08B501214420FFF729FB0121E2
:1029B0001548FDF7A1FF0120ADF8000028208DF893
:1029C000030069461148FDF70CFF1020ADF8000028
:1029D00048208DF8030069460D48FDF702FF0820E6
:1029E000ADF8000048208DF8030069460848FDF75F
:1029F000F8FE0420ADF8000048208DF80300694679
:102A00000348FDF7EEFE08BD00023000000801405B
:102A1000001801400021184A9172D17211730020F0
:102A200018E06421154A02EB001211810221134AB9
:102A300002EB001211710021104A02EB0012917298
:102A40000E4A02EB0012D1720C4A02EB0012117313
:102A5000411CC8B20628E4DB6421084A11810849F8
:102A60001160084911610849116208491163084958
:102A70001164084911657047D404002074040020D3
:102A8000B5090008E5090008150A0008450A00080C
:102A9000750A0008A50A000808B501214820FFF7BB
:102AA000AFFA012000F0D8F8022000F0D5F820217C
:102AB0000D48FDF769FF20210C48FDF765FF032055
:102AC0008DF8020010208DF803002020ADF80000E2
:102AD00069460548FDF785FE2020ADF800006946EF
:102AE0000248FDF77EFE08BD000C014000180140C1
:102AF00070B5002016E0002100EB40021F4B03EBF5
:102B00008202516000EB400203EB8202916000EB15
:102B1000400203EB8202517000EB400203F82210E6
:102B2000411CC8B20428E6DB154909684FF47A73E2
:102B3000B1FBF3F2B2F1807F00D31DE022F07F41C0
:102B4000491E4FF0E023596159170F23002907DA76
:102B50001C07260E0B4C01F00F052D1F665503E0D8
:102B60001C07250E084C655400BF00214FF0E023E0
:102B700099610721196100BF70BD00004404002065
:102B80001C00002018ED00E000E400E010B586B065
:102B9000044601210420FFF733FA01218803FFF7DF
:102BA0002FFA4FF40070ADF8140003208DF81600D2
:102BB00018208DF8170005A91F48FDF712FE4FF4E5
:102BC0008060ADF8140004208DF8170005A91A489C
:102BD000FDF707FE01940020ADF80800ADF80A00EB
:102BE000ADF80C00ADF810000C20ADF80E0001A9F6
:102BF0001248FFF735FD25208DF8000003208DF8E1
:102C000001008DF8020001208DF803006846FFF7EF
:102C1000D5F8012240F225510848FFF7FBFC0122BC
:102C200040F224410548FFF7F5FC01210348FFF776
:102C3000BBFC06B010BD0000000801400038014098
:102C400010B5002404E02046FFF7DEFD601CC4B28E
:102C5000062CF8DB10BD0000012806D107490968E1
:102C600081F02001054A116007E0022805D10449DE
:102C7000096881F02001024A116070470C0C014084
:102C80000C1801400649C97A054A50541146C97AC0
:102C9000491CC9B2D1720A2901DB0021D1727047E7
:102CA000D404002010B5FFF7CBFF10BD704741687A
:102CB00051B14168491E416031B90121417001782B
:102CC000012901D1816841607047000070B5044658
:102CD0000D46042C01DB00BFFEE70120FFF74CFD91
:102CE00004EB44000C4901EB8000456004EB440018
:102CF00001EB80008560002004EB4401064A02EBF2
:102D000081014870012004EB440102F821000020F9
:102D1000FFF732FD70BD00004404002070B504468A
:102D20000D46042C01DB00BFFEE70120FFF724FD68
:102D300004EB44000B4901EB8000456004EB4400C8
:102D400001EB80008560002004EB4401054A02EBA2
:102D50008101487004EB440102F82100FFF70CFDEB
:102D600070BD00004404002010B504462046FFF763
:102D700029FD10BD00BF054A128802F04002002A5A
:102D8000F9D0C2B2014B1B1D1A80704700380140B8
:102D900086B000BFFFF7C2FDFFF754F8FFF7D6F883
:102DA000FFF79CFB4FF478405249088052488288D4
:102DB00052A103A8FDF742FA4FF478404D4908802C
:102DC0004FF496710020FFF781FF64210120FFF787
:102DD000A5FF8EE0FFF786FD04460020FFF7D8FC34
:102DE00010B10120FFF738FF0120FFF7D1FC20B11F
:102DF0004FF47A710120FFF791FF002C79DD072C49
:102E000076D2DFE804F075043B753D743C004FF664
:102E1000FF70FDF75FFE3CA010210B46C822CDE9F4
:102E2000001028211E20FDF7FDFF39A010210B46C0
:102E3000C822CDE9001046211E20FDF7F3FF36A081
:102E400010210B46C822CDE900105A211E20FDF7A3
:102E5000E9FF33A010210B46C822CDE900108221E2
:102E60001E20FDF7DFFF30A010210B46C822CDE960
:102E70000010AA211E20FDF7D5FF39E038E037E029
:102E80004FF6FF70FDF726FE27A010210B46C82243
:102E9000CDE9001028211E20FDF7C4FF20A010213D
:102EA0000B46C822CDE9001046211E20FDF7BAFFCF
:102EB00019A010210B46C822CDE900105A211E206E
:102EC000FDF7B0FF12A010210B46C822CDE900107B
:102ED00082211E20FDF7A6FF0BA010210B46C82261
:102EE000CDE90010AA211E20FDF79CFF00E000BFE5
:102EF00000BF6FE718000020E20400204C4344208C
:102F000049443A2530345800202020202000000079
:102F100020202A202000000020202A2A2020000033
:102F2000202A2A2A200000002A2A2A2A2A00000011
:102F30000000000000000000000000000000000091
:102F40003F40000000000000000030004000300062
:102F50004000000009000BC03D000BC03D0009000F
:102F600018C024407FE0224031800000180024C0B7
:102F70001B000D803240018003801C4027401C80D4
:102F8000074000401000600000000000000000004A
:102F90000000000000001F80204040200000402072
:102FA00020401F8000000000090006001F8006006E
:102FB00009000000040004003F8004000400000039
:102FC0000010006000000000000000000400040089
:102FD00004000400040000000000004000000000A5
:102FE00000000000002001C0060038004000000082
:102FF0001F802040204020401F8000000000104023
:103000003FC000400000000018C021402240244082
:103010001840000010802040244024401B80000005
:1030200002000D0011003FC0014000003C80244020
:1030300024402440238000001F802440244034404A
:10304000038000003000200027C03800200000006E
:103050001B802440244024401B8000001C0022C010
:10306000224022401F8000000000000008400000B5
:1030700000000000000000000460000000000000EC
:10308000000004000A0011002080404009000900EF
:1030900009000900090000000000404020801100E4
:1030A0000A0004001800200023402400180000003B
:1030B0001F802040274029401F400000004007C0DB
:1030C00039000F0001C0004020403FC02440244090
:1030D0001B8000001F8020402040204030800000E6
:1030E00020403FC0204020401F80000020403FC0C3
:1030F00024402E4030C0000020403FC024402E001D
:10310000300000000F001080204022403380020079
:1031100020403FC0040004003FC020402040204029
:103120003FC02040204000000060202020203FC001
:103130002000200020403FC024400B0030C0204031
:1031400020403FC020400040004000C03FC03C0045
:1031500003C03C003FC0000020403FC00C402300A3
:103160003FC020001F802040204020401F800000E2
:1031700020403FC024402400180000001F80214050
:10318000214020E01FA0000020403FC02440260036
:1031900019C0004018C02440244022403180000063
:1031A000300020403FC020403000000020003F8021
:1031B000004000403F80200020003E0001C007008A
:1031C00038002000380007C03C0007C0380000006D
:1031D000204039C0060039C020400000200038409F
:1031E00007C0384020000000304021C02640384051
:1031F00020C00000000000007FE0402040200000D0
:10320000000070000C00038000400000000040201F
:1032100040207FE00000000000002000400020006F
:10322000000000000010001000100010001000103E
:1032300000000000400000000000000000000280CC
:103240000540054003C0004020003FC0044004404A
:10325000038000000000038004400440064000009A
:1032600000000380044024403FC000400000038071
:103270000540054003400000000004401FC02440FA
:1032800024402000000002E00550055006500420B4
:1032900020403FC00440040003C000400000044040
:1032A00027C000400000000000100010041027E0BC
:1032B0000000000020403FC00140070004C004405F
:1032C000204020403FC000400040000007C00400F4
:1032D00007C0040003C00000044007C0044004000D
:1032E00003C000400000038004400440038000004D
:1032F000041007F004500440038000000000038025
:103300000440045007F00010044007C002400400CD
:1033100004000000000006400540054004C0000015
:10332000000004001F8004400040000004000780EB
:103330000040044007C000400400070004C00180B2
:1033400006000400060001C0070001C006000000DE
:10335000044006C0010006C004400000041007102D
:1033600004E00180060004000000044005C006409F
:10337000044000000000000004007BE0402000004A
:10338000000000000000FFF00000000000004020EE
:103390007BE00400000000004000800040002000AE
:1033A00020004000000000000000000000000000BD
:1033B000000000000000000000001FCC000C000016
:1033C000000000000000080030006000080030002D
:1033D00060000000022003FC1E20022003FC1E20CF
:1033E0000220000000000E1811043FFF10840C782A
:1033F000000000000F0010840F3800C00778188408
:103400000078000000780F8410C411240E9800E4A6
:103410000084000808006800700000000000000040
:103420000000000000000000000007E01818200461
:1034300040020000000040022004181807E00000CD
:10344000000000000240024001800FF001800240B5
:10345000024000000080008000800FF800800080A3
:10346000008000000001000D000E000000000000C0
:1034700000000000000000800080008000800080CC
:10348000008000800000000C000C00000000000024
:103490000000000000000006001800600180060027
:1034A00018002000000007F00808100410040808A5
:1034B00007F000000000080408041FFC00040004DA
:1034C0000000000000000E0C1014102410441184A1
:1034D0000E0C000000000C181004110411041288D6
:1034E0000C700000000000E00320042408241FFCEE
:1034F0000024000000001F9810841104110410889B
:1035000010700000000007F00888110411041888EA
:103510000070000000001C00100010FC13001C00D4
:103520001000000000000E38114410841084114473
:103530000E38000000000700088C10441044088872
:1035400007F00000000000000000030C030C000066
:103550000000000000000000000101060000000063
:103560000000000000000080014002200410080854
:10357000100400000220022002200220022002206B
:10358000022000000000100408080410022001407E
:103590000080000000000E001200100C106C108063
:1035A0000F00000003E00C1813E4142417C40828CB
:1035B00007D000000004003C03C41C40074000E4A6
:1035C000001C000410041FFC1104110411040E88D7
:1035D0000070000003E00C18100410041004100820
:1035E0001C10000010041FFC100410041004080834
:1035F00007F0000010041FFC1104110417C410048C
:103600000818000010041FFC1104110017C010005E
:103610000800000003E00C181004100410441C788B
:103620000040000010041FFC108400800080108403
:103630001FFC10040000100410041FFC10041004F0
:103640000000000000030001100110011FFE100027
:103650001000000010041FFC110403801464181CE7
:103660001004000010041FFC1004000400040004F7
:10367000000C000010041FFC1F0000FC1F001FFCBA
:103680001004000010041FFC0C04030000E01018DC
:103690001FFC100007F008081004100410040808AC
:1036A00007F0000010041FFC1084108010801080B0
:1036B0000F00000007F0081810241024101C080A3E
:1036C00007F2000010041FFC1104110011C011309A
:1036D0000E0C000400000E1C110410841084104411
:1036E0001C3800001800100010041FFC100410000B
:1036F0001800000010001FF810040004000410045B
:103700001FF8100010001E0011E0001C0070138054
:103710001C0010001FC0103C00E01F0000E0103C27
:103720001FC000001004180C163401C001C016346C
:10373000180C100410001C00130400FC13041C00DF
:10374000100000000804101C1064108413041C04F2
:10375000101800000000000000007FFE4002400240
:1037600040020000000030000C0003800060001CDC
:103770000003000000004002400240027FFE000003
:103780000000000000000000200040004000400059
:103790002000000000010001000100010001000103
:1037A0000001000100004000400020000000000077
:1037B000000000000000009801240144014401447D
:1037C00000FC000410001FFC0088010401040088B4
:1037D0000070000000000070008801040104010472
:1037E0000088000000000070008801040104110836
:1037F0001FFC0004000000F801440144014401449E
:1038000000C800000000010401040FFC11041104B1
:1038100011001800000000D601290129012901C961
:103820000106000010041FFC0084010001000104D7
:1038300000FC000400000104190419FC0004000449
:10384000000000000000000300010101190119FE41
:103850000000000010041FFC0024004001B4010C13
:10386000010400000000100410041FFC0004000408
:1038700000000000010401FC0104010001FC01043E
:10388000010000FC010401FC0084010001000104AE
:1038900000FC0004000000F801040104010401041C
:1038A00000F80000010101FF008501040104008807
:1038B0000070000000000070008801040104010590
:1038C00001FF00010104010401FC00840104010066
:1038D00001800000000000CC012401240124012407
:1038E0000198000000000100010007F80104010434
:1038F00000000000010001F80004000400040108B9
:1039000001FC0004010001800170000C0010016046
:103910000180010001F0010C003001C00030010CF9
:1039200001F0010000000104018C00740170018CA1
:1039300001040000010101810171000E0018016005
:103940000180010000000184010C01340144018464
:10395000010C0000000000000000000001003EFC1F
:10396000400240020000000000000000FFFF0000D5
:10397000000000000000400240023EFC0100000088
:103980000000000000006000800080004000400057
:1039900020002000000000000000000000000000E7
:1039A0000000000000000000000000000000000017
:1039B0000000000000000000000000000000000007
:1039C000000000000000000F80380FFE380F803824
:1039D00000000000000000000000000000000000E7
:1039E00000000100000600000C000038000031005B
:1039F000000600000C00003800003000000000004D
:103A00000000000061800067F807F9800061800015
:103A100061800061800061800067F807F9800061C3
:103A20008000000000000000000001C0E003E0F0A2
:103A30000630080418081FFFFE040E080787F0036D
:103A400081E000000000000001F000060C0004040A
:103A500008060C7001F9C0000E00003BE000EC18F5
:103A6000070808040C180003E00000000001E00053
:103A700007F003F818041C0804170807E1D003C076
:103A8000E00023B0003C0800200800001000000007
:103A90000000000100003100003200001C000000A6
:103AA0000000000000000000000000000000000016
:103AB0000000000000000000000000000000000006
:103AC000000000007F0001FFC00780F00C0018100C
:103AD000000420000200000000000020000210008E
:103AE000040C00180780F001FFC0007F00000000F8
:103AF00000000000000000000000000000000000C6
:103B00004200006600006600003C0000180003FF51
:103B1000C0001800003C0000660000660000420083
:103B20000000000008000008000008000008000075
:103B3000080001FFC000080000080000080000089D
:103B40000000080000000000000100003100003209
:103B500000001C0000000000000000000000000049
:103B60000000000000000000000000000800000845
:103B7000000008000008000008000008000008001D
:103B8000000800000800000800000000000000001D
:103B9000000000003800003800003800000000007D
:103BA0000000000000000000000000000000000015
:103BB00000000000000600001C00007000018000F2
:103BC0000E0000380000C0000700001C000030009C
:103BD00000000000000000007F8001FFE003807013
:103BE000060018040008040008060018038070018D
:103BF000FFE0007F800000000000000000000100E6
:103C00000801000801000803FFF807FFF80000089A
:103C10000000080000080000000000000000000193
:103C2000C03802C0580400980401180402180404A3
:103C300018061C1803F81801E0F800000000000046
:103C400000000001C0E003C0F004000804080804FC
:103C5000080806180803F41801E7F00001E0000066
:103C600000000000000000000300000D0000110033
:103C700000610000810803010807FFF80FFFF8004A
:103C800001080001080000000000000000E007FC3F
:103C9000D00608080610080610080610080618388E
:103CA000060FF00607C00000000000000000000042
:103CB0003F8001FFE003843002081804100804105C
:103CC00008041008071810030FF00007C0000000D8
:103CD00000000000000003C000070000060000060E
:103CE00000F80607F806180006E0000700000600C6
:103CF0000000000000000001E1E003F7F0063410CE
:103D0000041808041808040C08040C080616180304
:103D1000F3F001C1E000000000000000F80003FC27
:103D200030030638040208040208040208040410E0
:103D30000308F001FFC0007F000000000000000049
:103D4000000000000000000000000000703800705B
:103D50003800703800000000000000000000000083
:103D60000000000000000000000000000000000053
:103D7000301A00301C0000000000000000000000AD
:103D80000000000000000000000000080000140017
:103D90000022000041000080800100400200200459
:103DA00000100800080000000000000021000021B1
:103DB000000021000021000021000021000021005E
:103DC0000021000021000021000000000000000090
:103DD00000000800080400100200200100400080DC
:103DE00080004100002200001400000800000000D4
:103DF00000000003C00004C00004000008003808F0
:103E00000F380808380810000C300007E00003C025
:103E100000000000000000003F8000FFE003807011
:103E2000020F1006708804C088048308047F88028B
:103E3000C09003012000FE400000080000180001AF
:103E4000F8003E0801C20007020007E20000FE0081
:103E5000001FC80001F8000038000008040008072F
:103E6000FFF807FFF8040808040808040808040815
:103E70000806180803F41801E7F00001E00000004C
:103E8000000000003F8001FFE00380700200180482
:103E90000008040008040008040010060020078041
:103EA000C000000004000807FFF807FFF80400083E
:103EB00004000804000804001802001003807001C8
:103EC000FFE0007F8000000004000807FFF807FF04
:103ED000F8040808040808040808040808043E0850
:103EE0000400080600180100600000000400080734
:103EF000FFF807FFF8040808040800040800040895
:103F000000043E00060000060000018000000000E2
:103F1000000000003F8001FFE003807006001804ED
:103F200000080402080402080203F00783F00002FC
:103F30000000020004000807FFF807FFF804080863
:103F40000008000008000008000008000408080736
:103F5000FFF807FFF804000800000000000004005C
:103F60000804000804000807FFF807FFF804000829
:103F70000400080400080000000000000000000029
:103F80000006000007000001040001040001040015
:103F90000307FFFE07FFFC0400000400000400000C
:103FA00004000807FFF807FFF8040C0800180000D9
:103FB0003E0004C7800503C80600F804003804006A
:103FC0001800000804000807FFF807FFF8040008BD
:103FD00000000800000800000800000800000800B9
:103FE000001800006000000004000807FFF80780C8
:103FF0000807FC00007FC00003F80007C00078003D
:1040000007800807FFF807FFF80400080400080706
:10401000FFF807000803C00000E000003800001EA1
:10402000000007000001C00400F007FFF8040000D2
:10403000000000007F8001FFE0038070060018048C
:10404000000804000806001803003001FFE0007FAC
:104050008000000004000807FFF807FFF8040408C8
:10406000040400040400040400040400060C00031B
:10407000F80001F000000000000000007F8001FF58
:10408000E00380700600880400880400C806003C35
:1040900003003E01FFE6007F8400000004000807E3
:1040A000FFF807FFF8040808040800040C00040FD8
:1040B00000040BC00610F003F03801E0080000080F
:1040C00000000001E0F803F0300630100418080486
:1040D0001808040C08040C080206180207F00781EF
:1040E000E000000001800006000004000004000061
:1040F00004000807FFF807FFF804000804000004A4
:10410000000006000001800004000007FFE007FF38
:10411000F004001800000800000800000800000873
:1041200000000804001007FFE0040000040000067F
:10413000000007E00007FE00041FE00001F8000097
:10414000380001E0043E0007C00006000004000043
:1041500004000007E00007FFC0041FF80007C007C5
:10416000F80007FF80043FF80007C004F8000700CC
:104170000004000000000004000806001807C078D2
:1041800005F1C8003E00001F800463E80780F806C0
:10419000001804000800000004000006000007806A
:1041A0000007E008047C08001FF80007F800180862
:1041B00004E0080700000600000400000000000101
:1041C00000080600380400F80403E8040F08047C23
:1041D0000805F00807C00807001804006000000088
:1041E0000000000000000000000000000000003F90
:1041F000FFFE20000220000220000220000220001A
:10420000020000000000000000000800000700009D
:1042100000C0000038000006000001C000003000AF
:10422000000E00000100000000000000000020005F
:10423000022000022000022000022000023FFFFEB8
:10424000000000000000000000000000000000006E
:1042500000000000000800001000003000002000F6
:104260000030000010000008000000000000000006
:104270000000010000010000010000010000010039
:104280000001000001000001000001000001000029
:1042900001000001000000000000000000200000FC
:1042A00020000010000010000000000000000000CE
:1042B00000000000000000000000000000F00019F5
:1042C000F8001B180022080026080024080024100B
:1042D000003FF8001FF8000008000018000000046C
:1042E000000007FFF80FFFF000181800100800206A
:1042F00008002008003018001FF0000FC000000068
:104300000000000007C0001FF00018300020080067
:104310002008002008003C08001C1000006000007D
:10432000000000000000000007C0001FF000381867
:1043300000200800200800200804101007FFF80FD4
:10434000FFF0000010000000000000000000000767
:10435000C0001FF0001230002218002208002208BE
:10436000003208001E10000E2000000000000000B7
:10437000200000200800200801FFF803FFF80620B5
:1043800008042008042008072000030000000000A3
:1043900000000000000E000E6E001FF30031B1009F
:1043A00020B10020B1003191001F13002E1E00200B
:1043B0000E00300000000004000807FFF80FFFF8AF
:1043C000001008002000002000002008003FF80036
:1043D0001FF800000800000000000000000000209E
:1043E00008002008002008063FF8063FF8000008F3
:1043F00000000800000800000000000000000000AD
:104400000000000003000003002001002001002044
:1044100003063FFE063FFC00000000000000000015
:1044200000000004000807FFF80FFFF800018800F3
:104430000300002FC00038F80020380020080000DA
:10444000080000000000000000000400080400084C
:1044500004000807FFF80FFFF8000008000008003C
:104460000008000000000000002008003FF8003FA6
:10447000F8001008002000003FF8003FF800100886
:10448000002000003FF8003FF80000080000000096
:104490002008003FF8003FF800100800100000203E
:1044A00000002008003FF8001FF80000080000008E
:1044B0000000000007C0000FF000183000300800B6
:1044C0002008002008003008001830000FF0000716
:1044D000C0000000000000002001003FFF003FFF7F
:1044E00000101100200900200800200800303800CA
:1044F0001FF0000FC00000000000000007C0001FF8
:10450000F0003818002008002008002009001011D1
:10451000001FFF003FFF0000010000000020080016
:104520002008002008003FF8003FF80008080010AD
:1045300008002008002000003000003000000000CB
:10454000000000000000000C78001E180033080076
:1045500023080021080021880021980030F000384D
:10456000600000000000000020000020000020008B
:1045700000FFF003FFF800200800200800200800DA
:104580000030000000000000000000002000003F9C
:10459000F0007FF80000180000080000080020105C
:1045A000003FF8007FF00000100000000000000055
:1045B0002000003000003C00003F800023F000009D
:1045C00078000070002380003C00003000002000D4
:1045D000002000003C00003FE00023F80000E00065
:1045E0002700003E00003FE00021F80001E0003E0F
:1045F00000002000000000002008002008003838DB
:10460000003E680027800003C8002CF800383800FE
:1046100020180020080000000000000020000030EA
:1046200003003C01003F830023EC00007000238066
:10463000003C0000200000200000000000000000FE
:1046400000000038080020380020F80023E8002F80
:1046500088003E08003808002018000070000000A4
:10466000000000000000000000000000000000004A
:1046700008000014001FF7FC3000062000020000B4
:10468000000000000000000000000000000000002A
:10469000000000000000FFFFFF000000000000001D
:1046A00000000000000000000000000000002000EA
:1046B000023000061FF7FC00140000080000000094
:1046C00000000000000000000000000000000018D2
:1046D00000006000004000004000002000001000CA
:1046E000000800000400000400000C00001000009E
:1046F0003031323334353637383941424344454618
:104700004030580030313233343536373839616211
:104710006364656640307800040000080000000013
:104720000000000200010000100000002AB9CC20A7
:104730002020BCFE202020BFE220202020B0E62048
:10474000202020B1BEA3BA5625642E25642E2564F0
:1047500020202853544D3332463130785F735464EF
:104760005065726970685F447269766572290D0AD6
:10477000000000002A2A2A2A2A2A2A2A2A2A2A2A41
:104780002A2A2A2A2A2A2A2A2A2A2A2A2A2A2A2A89
:104790002A2A2A2A2A2A2A2A2A2A2A2A2A2A2A2A79
:1047A0002A2A2A2A2A2A2A2A2A2A2A2A2A2A2A2A69
:1047B0002A2A2A2A2A2A2A2A2A2A2A2A2A2A2A2A59
:1047C0002A2A2A2A2A2A2A2A2A2A2A2A2A2A2A2A49
:1047D0002A2A2A2A2A2A2A0D0A000000FC47000851
:1047E00000000020440000006C0100084048000860
:1047F000440000200C0B00008801000800000000AD
:1048000000000000000000000000000000000000A8
:10481000000000000000FFFF00A24A0400000000AA
:104820000000000001020304060708090000000060
:104830000102030401020304060708090204060832
:0400000508000131BD
:00000001FF
