:020000040800F2
:10000000C80B0020E1010008150C0008C90A00080F
:10001000110C00088D0600085314000800000000B1
:1000200000000000000000000000000005100008B3
:1000300091060008000000009D0C0008F110000867
:1000400071140008FB010008FB010008FB01000817
:10005000FB010008FB01000895060008FB010008F1
:10006000090700083107000855070008FB010008D0
:10007000FB010008FB010008FB010008FB01000870
:10008000FB010008FB010008FB010008FB01000860
:10009000FB010008FB010008FB010008FB01000850
:1000A000FB010008FB010008FB010008FB01000840
:1000B000FB010008FB010008FB010008FB01000830
:1000C000FB010008FB010008FB010008FB01000820
:1000D000FB0100085D120008FB010008FB0100089D
:1000E000B9060008FB010008FB010008FB0100083D
:1000F000FB010008FB010008FB010008FB010008F0
:10010000FB010008FB010008FB010008FB010008DF
:10011000DD1100081D120008FB010008FB010008AA
:10012000FB010008FB010008FB010008FB010008BF
:1001300000F002F800F045F80AA090E8000C8244B4
:100140008344AAF10107DA4501D100F03AF8AFF291
:10015000090EBAE80F0013F0010F18BFFB1A43F0A5
:10016000010318477019000090190000103A24BFCD
:1001700078C878C1FAD8520724BF30C830C144BF0C
:1001800004680C607047000000230024002500264E
:10019000103A28BF78C1FBD8520728BF30C148BFEA
:1001A0000B607047642900F09980782900F0D280B4
:1001B000732900F00682002070471FB51FBD10B5DF
:1001C00010BD00F031FA1146FFF7F7FF01F010FC07
:1001D00000F04FFA03B4FFF7F2FF03BC01F064F93B
:1001E0000948804709480047FEE7FEE7FEE7FEE7CB
:1001F000FEE7FEE7FEE7FEE7FEE7FEE70448054907
:10020000054A064B704700007D11000831010008C7
:10021000C8050020C80B0020C8070020C807002020
:10022000704700000FB4044910B503AA029800F00B
:10023000CDF910BC5DF814FB1400002070B5044625
:1002400085690068C10601D5302600E02026C00778
:1002500007D070BDD4E9012130469047206A401C88
:1002600020626D1EF6D570BD70B5044685690078B4
:10027000C00707D170BDD4E9012120209047206A32
:10028000401C20626D1EF6D570BD70B50C4605464B
:10029000012A05D02878800600D5EA69002302E00B
:1002A000012305E05B1C934202D2E05C0028F9D1F7
:1002B000A869E618C01AA861286A18442862284666
:1002C000FFF7BCFF04E0D5E9012114F8010B9047CA
:1002D000B442F8D32846FFF7C7FF70BD2DE9F041BF
:1002E0000646002410687529314616A510D0AFF3D4
:1002F0000080002802DA404213A507E031688A072F
:1003000001D512A502E0490704D511A5012401E099
:10031000AFF3008000210A2206F1240709E0B0FBB8
:10032000F2FCB0FBF2F302FB1C00303078541846AC
:10033000491C0028F3D123462A463046BDE8F04147
:1003400000F0D4B8000000002D0000002B000000D9
:100350002000000070B504460D4621461068AFF33A
:1003600000802188090502D50F4A7A4402E00E4A2E
:100370007A440E32002104F1240305E000F00F0658
:100380000009965D5E54491C0028F7D120780023AF
:10039000000704D5702D02D009B102231132204686
:1003A000BDE8704000F0A2B82A1700002DE9F05F08
:1003B000894604464FF0000ADFF824B1FB44C0F838
:1003C00020A02046E168884700287DD0252806D057
:1003D000D4E901219047206A401C2062F1E7002502
:1003E0005F462046E16888472028064607DB312E15
:1003F00005D2B81910F8200C08B10543F1E7A80799
:1004000001D525F00405C4F81CA00027C4F818A0E5
:100410002A2E09D0304601F040F838B304EB8708A3
:10042000303EC8F8186019E059F8041B204604EB68
:1004300087029161E1688847012F064618D1E0697B
:10044000002820DA25F020051DE0D8F8180000EB80
:10045000800006EB40003038C8F818002046E168FC
:100460008847064601F019F80028EED1012F0AD07E
:100470002E2E08D12046E16888477F1C0646022FB1
:1004800045F02005C4DBA069002803DA404245F0AE
:100490000105A061E80701D025F01005A6B1A6F17D
:1004A0004100192802D8203645F400654A463146F5
:1004B000204625604D46FFF775FE60B1012807D044
:1004C000ED1D25F0070000E007E000F1080978E7DE
:1004D00005F1040975E730467AE7206ABDE8F09F28
:1004E0000017000070477047704770472DE9F047CC
:1004F0000D4699469246044600F124080168880694
:1005000004D5E06921F01001216000E00120A8423B
:1005100001DD471B00E00027A1697A1902EB090001
:10052000081AA0612078C00602D42046FFF786FE94
:10053000002608E0D4E901211AF806009047206A55
:10054000401C761C20624E45F4DB2078C0060AD59C
:100550002046FFF773FE06E0D4E9012130209047E2
:10056000206A401C2062381EA7F10107F4DC07E076
:10057000D4E9012118F805009047206A401C206248
:10058000281EA5F10105F3DC2046FFF76DFE20785B
:10059000000602D50220BDE8F0870120FBE710B578
:1005A000436913B1AFF3008001E0FFF76EFE012055
:1005B00010BD127800F124010A7000224A70012255
:1005C000EDE711684FF0FF32E9E70000074B70B527
:1005D0000D467B4400F011F80446284600F020F850
:1005E00010B14FF0FF3070BD204670BDFF1300000A
:1005F00001694A1C02610878704700B58FB0CDE9E7
:1006000001310021059105497944CDE903101146D6
:100610006846FFF7CBFE0FB000BD0000E5FFFFFF0F
:10062000007B00F080007047754600F02BF8AE4666
:1006300005006946534620F00700854618B020B5EE
:10064000FFF7DCFDBDE820404FF000064FF000074B
:100650004FF000084FF0000B21F00701AC46ACE86A
:10066000C009ACE8C009ACE8C009ACE8C0098D46D7
:10067000704710B50446AFF300802046BDE8104037
:10068000FFF7A8BD004870476405002000BFFEE7E3
:100690007047000010B5012000F074F840B1054823
:1006A0000068012801D100F001FF012000F064F88A
:1006B00010BD00000001214210B54FF4006000F0B1
:1006C00061F848B10C48006810B901200B49087066
:1006D0004FF4006000F050F84FF4804000F052F802
:1006E00048B107480068012801D1064908704FF455
:1006F000804000F041F810BD2C0121421A0000207A
:10070000380124421B00002010B5042000F03AF804
:1007100058B10648006828B9012001F0F9F8022014
:1007200001F0F6F8042000F027F810BD080123427C
:1007300010B5082000F026F840B10548006810B94F
:10074000022001F0E5F8082000F016F810BD0000C6
:100750000C01234210B5102000F014F840B10548F8
:10076000006810B9012001F0D3F8102000F004F85F
:1007700010BD0000100123420149086070470000CD
:1007800014040140014600200022074B1B6803EAC5
:100790000102054B14331B680B4013B10AB1012051
:1007A00000E00020704700000004014000212349C0
:1007B0008279002A3AD00A46126803689A430B46A7
:1007C0001A600A1D126803689A430B1D1A600279A9
:1007D00011440A6803681A430A60184A083212680A
:1007E00003689A43154B08331A601A1D1268036890
:1007F0009A43124B0C331A604279102A0ED11A1FF9
:10080000126803681A430D4B08331A601A1D1268E8
:1008100003681A43094B0C331A600DE0074942790B
:1008200011440A6803681A430A6005E0027911441A
:100830000A6803689A430A60704700000004014098
:100840000EB50121244800F0F5F80121084600F01A
:1008500031FB0B21002000F041F84FF400600190C3
:1008600000208DF808000C208DF8090001208DF87B
:100870000A0001A8FFF79AFF28208DF80000022047
:100880008DF801008DF8020001208DF80300684604
:1008900000F0C2F90E21062000F020F84FF480404D
:1008A000019000208DF8080008208DF80900012033
:1008B0008DF80A0001A8FFF779FF28208DF80000C5
:1008C00002208DF801008DF8020001208DF8030050
:1008D000684600F0A1F90EBD0002300030B50022DC
:1008E0008B071C0F0F2303FA04F20B4B8C1053F8E9
:1008F00024309343084C8D1044F8253023468C1047
:1009000053F824308C07240F00FA04F42343024CDC
:100910008D1044F8253030BD080001402DE9F0412C
:10092000024600250026002000230024002791F81D
:1009300003C00CF00F0591F803C00CF0100CBCF1D3
:10094000000F03D091F802C04CEA050591F800C0F1
:10095000BCF1000F31D0146800202BE04FF0010CE7
:100960000CFA00F3B1F800C00CEA03069E4220D155
:1009700083004FF00F0C0CFA03F7BC4305FA03FC9D
:100980004CEA040491F803C0BCF1280F06D14FF0E3
:10099000010C0CFA00FCC2F814C00AE091F803C084
:1009A000BCF1480F05D14FF0010C0CFA00FCC2F865
:1009B00010C0401C0828D1D31460B1F800C0BCF1AD
:1009C000FF0F34DD546800202EE000F1080C4FF0DA
:1009D000010808FA0CF3B1F800C00CEA03069E42C5
:1009E00021D183004FF00F0C0CFA03F7BC4305FA3A
:1009F00003FC4CEA040491F803C0BCF1280F05D1B4
:100A000000F1080C08FA0CF8C2F8148091F803C041
:100A1000BCF1480F07D100F1080C4FF0010808FAAB
:100A20000CF8C2F81080401C0828CED35460BDE8F2
:100A3000F0810000F0B50A460023002400210025C3
:100A400000F00046B6F1004F02D11D4EF16901E001
:100A50001B4E7168C0F3034583B200F44016B6F52F
:100A6000401F08D121F07061154E766826F070663F
:100A7000134F7E6012E000F48016B6F5801F06D199
:100A8000032606FA05F4A14341F0706106E0460D25
:100A9000360103FA06F6B14341F0706122B1460D0A
:100AA000360103FA06F6314300F00046B6F1004F76
:100AB00002D1034EF16101E0014E7160F0BD000012
:100AC00000000140016170470EE00849C96881F4E7
:100AD0000061064AD160002001E0411C88B242F268
:100AE00010718842F9DB00BFEFE7000000200140F1
:100AF0000948006801280CD10848006848B1074837
:100B0000001F006828B105480838006808B10120B6
:100B100070470020FCE70000000121421001234241
:100B20000948006801280CD00848006848B90748FF
:100B3000001F006828B105480838006808B1012086
:100B400070470020FCE70000000121421001234211
:100B50000948006801280CD00848006848B10748D7
:100B6000001F006828B905480838006808B101204E
:100B700070470020FCE700000001214210012342E1
:100B80000948006801280CD00848006848B10748A7
:100B9000001F006828B105480838006808B901201E
:100BA00070470020FCE700000001214210012342B1
:100BB0000948006801280CD10848006848B907486E
:100BC000001F006828B105480838006808B10120F6
:100BD00070470020FCE70000000121421001234281
:100BE0000948006801280CD00848006848B907483F
:100BF000001F006828B905480838006808B10120BE
:100C000070470020FCE70000000121421001234250
:100C100000BFFEE77047000070B5002100230F22DF
:100C2000C47804B3154C246804F4E064C4F5E064AB
:100C3000210AC1F10403CA40447804FA03F184781C
:100C40001440214309010E4C0678A155047804F0A4
:100C50001F050124AC4005786D11AD0005F1E025BC
:100C6000C5F8004109E0047804F01F050124AC40F8
:100C7000044D0678761145F8264070BD0CED00E075
:100C800000E400E080E100E002490143024A116013
:100C9000704700000000FA050CED00E0704700000E
:100CA00010B506A0FFF7BEFA07A0FFF7BBFA10A029
:100CB000FFF7B8FA1AA0FFF7B5FA10BDB2D9D7F707
:100CC000CCE1CABE3A0D0A00312EB1BEB3CCD0F28F
:100CD000D6D0A3ACC3BF3330306D73445330BAECBD
:100CE000B5C6B7ADD7AAD2BBB4CE0D0A000000007E
:100CF000322EB5B120494F20B4ABB8D0C6F7B6AF4D
:100D0000D7F7CAB1A3ACB4F2D3A1B6AFD7F7B5C485
:100D1000B4ABB8D0C6F7D0C5CFA20D0A0000000012
:100D20000D0A0D0A0000000070B515480468001D8A
:100D30000568001D066823462A46314611A0FFF7C4
:100D400071FA1DA0FFF76EFA1CA0FFF76BFA26A13F
:100D50002CA0FFF767FA30A130A0FFF763FA34A1A7
:100D600036A0FFF75FFA00230522032138A0FFF722
:100D700059FA45A0FFF756FA44A0FFF753FA70BDA1
:100D8000E8F7FF1F0D0A4350553A53544D3332468E
:100D90003130335A4554362C4C5146503134342C72
:100DA000554944203D2025303858253038582530C5
:100DB00038580A0D000000000D0A00002A2A2A2ACD
:100DC0002A2A2A2A2A2A2A2A2A2A2A2A2A2A2A2A83
:100DD0002A2A2A2A2A2A2A2A2A2A2A2A2A2A2A2A73
:100DE0002A2A2A0D0A000000BBC6C7F3CAA45F3234
:100DF000B0E05F55415254CAB5D1E928434F32297A
:100E0000000000002AC0FDB3CCC3FBB3C6202020E5
:100E100009A3BA25730D0A00312E30002AC0FDB394
:100E2000CCB0E6B1BE09A3BA25730D0A00000000DC
:100E3000323032332D362D31320000002AB7A2B2C3
:100E4000BCCAB1BCE409A3BA25730D0A00000000B6
:100E5000B9CCBCFEBFE2B0E6B1BE09A3BA56256468
:100E60002E25642E256409092853544D333246310A
:100E700030785F5374645065726970685F4472695A
:100E8000766572290D0A00002A0D0A002A2A2A2AEC
:100E90002A2A2A2A2A2A2A2A2A2A2A2A2A2A2A2AB2
:100EA0002A2A2A2A2A2A2A2A2A2A2A2A2A2A2A2AA2
:100EB0002A2A2A0029B1064A92690243044B9A6100
:100EC00004E0034A92698243014B9A617047000033
:100ED0000010024030B500210022002400232D4DD7
:100EE0006D6805F00C0121B1042905D0082923D132
:100EF00005E0294D056022E0274D05601FE0254DE6
:100F00006D6805F47012234D6D6805F48034022578
:100F100005EB92421CB9214D554305600BE01D4D78
:100F20006D6805F400351DB11C4D5543056002E0A8
:100F3000194D5543056002E0174D056000BF00BF25
:100F4000144D6D6805F0F0010909154D6B5C0568DD
:100F5000DD4045600F4D6D6805F4E061090A104DF4
:100F60006B5C4568DD4085600A4D6D6805F4605135
:100F7000C90A0B4D6B5C4568DD40C560054D6D6869
:100F800005F44041890B074D6B5CC568B5FBF3F573
:100F9000056130BD0010024000127A0000093D00DA
:100FA000300000204000002008B501210846FFF76E
:100FB00081FF01211048FFF73DFD01210420FFF7CB
:100FC00079FF4FF40060ADF8000048208DF8030071
:100FD00069460A48FFF7A2FC01210802FFF76AFFF1
:100FE0004FF48040ADF8000028208DF803006946DA
:100FF0000348FFF793FC08BD0002300000080140E1
:1010000000200140704710B500F002F810BD00004C
:101010000CB50020019000903348006840F4803007
:101020003149086000BF3048006800F4003000908B
:101030000198401C0190009818B90198B0F5A06F74
:10104000F1D12948006800F4003010B1012000906F
:1010500001E0002000900098012843D12348006857
:1010600040F01000214908600846006820F00300A5
:1010700008600846006840F0020008601A484068AE
:10108000194948600846406848600846406840F48E
:10109000806048600846406820F47C10486008463C
:1010A000406840F4E81048600846006840F08070EE
:1010B000086000BF0C48006800F000700028F9D0FC
:1010C0000948406820F00300074948600846406826
:1010D00040F00200486000BF0348406800F00C0088
:1010E0000828F9D10CBD0000001002400020024089
:1010F00010B500F001F810BD10B51B48006840B1F4
:1011000019480068401E1849086010B901201749A5
:101110000870002408E004EB4401154A02EB81004A
:1011200000F021FC601CC4B2042CF4DB1148006800
:10113000401C10490860084600686FF00041884272
:1011400002D100200B49086000F00CFC0A4800782E
:10115000401CC0B2084908700A2803DB0020087050
:1011600000F0FCFB10BD000004000020080000207F
:10117000440400200C0000201000002010B513488B
:10118000006840F0010011490860084640681049B5
:1011900008400E494860084600680E4908400B495F
:1011A00008600846006820F480200860084640680F
:1011B00020F4FE0048604FF41F008860FFF723FF13
:1011C0004FF000600449086010BD000000100240AC
:1011D0000000FFF8FFFFF6FE08ED00E010B540F25A
:1011E00025510B4800F074F880B1094800F02CF943
:1011F000C4B208480078402808DA07480549097849
:10120000445404480078401C0249087010BD000096
:10121000004C004018000020E104002010B540F20E
:1012200025510B4800F054F880B1094800F00CF942
:10123000C4B208480078402808DA07480549097808
:10124000445404480078401C0249087010BD000056
:1012500000500040190000202105002010B500BFFB
:1012600040F22551104800F033F858B10E48001DE7
:101270000088C1B20D4802880088401C0B4B1880C2
:101280000B48815440F22441074800F021F848B14E
:1012900005480088C4B20448001D0088C4B201207B
:1012A0000449087010BD0000003801400200002011
:1012B000440000200000002021B1828942F4005245
:1012C000828104E082894DF6FF731A408281704763
:1012D00070B50246002400230025002040F66A165F
:1012E000B14200D100BFC1F3421501F01F03012636
:1012F00006FA03F3012D02D19689334006E0022D50
:1013000002D1168A334001E0968A33400C1201263E
:1013100006FA04F41688344013B10CB1012000E041
:10132000002070BDF0B503460024002600250020F3
:1013300040F66A17B94200D100BF1846C1F3421403
:1013400001F01F06012707FA06F5012C01D10C3028
:1013500004E0022C01D1103000E014301AB107680B
:101360002F43076002E00768AF430760F0BD00004D
:101370002DE9F04786B005460E460024A24600BF80
:10138000A1460027B08900B100BF2F462C8A4CF639
:10139000FF700440F08804432C82AC894EF6F310B1
:1013A0000440B08831890843718908430443AC8103
:1013B000AC8A4FF6FF400440B0890443AC8201A8D8
:1013C000FFF788FD1F48874202D1DDF810A001E039
:1013D000DDF80CA0A88900F4004040B10AEBCA0077
:1013E00000EB0A1031684900B0FBF1F807E00AEBA6
:1013F000CA0000EB0A1031688900B0FBF1F86420E4
:10140000B8FBF0F004012009642101FB1089A889D0
:1014100000F4004040B1322000EBC900B0FBF1F015
:1014200000F00700044308E0322000EB09106421BB
:10143000B0FBF1F000F00F0004432C8106B0BDE8D2
:10144000F08700000038014001468888C0F308009A
:10145000704700BFFEE700000020014908607047A8
:10146000082C004001480068C0B27047082C0040BA
:1014700010B5FFF7F7FF20B1FFF7EEFF7F2000F078
:1014800001F810BD00F07F01014A116070470000B3
:10149000002C004080F31088704730380A2801D2B1
:1014A000012070470020704700BF70470348C068A4
:1014B00080F400600149C8607047000000200140CE
:1014C0000146042901DB0020704701EB4100084A76
:1014D00002EB80004078012808D1002001EB410296
:1014E000034B03EB820250700120EDE70020EBE795
:1014F0004404002070B50546304800EB0514206810
:10150000804700283ED02079052802DA0520207186
:1015100052E020790A2803DA2079401C20714BE040
:10152000A07A38B90120A07205EB4501491CC8B268
:1015300000F004FA208900283EDDE08821898842F5
:101540000DDAE088401C80B2E0802189884233D1E6
:1015500005EB4501C91CC8B200F0F0F92CE0E07AB7
:10156000002829DD207B401CC0B22073E17A88422C
:1015700022DB0020207305EB4501491CC8B200F0B6
:10158000DDF919E02079052802DD0520207110E041
:10159000207918B12079401E20710AE0A07A012834
:1015A00007D10020A07205EB4501891CC8B200F0EC
:1015B000C5F90020E080207370BD00007404002095
:1015C0000B48807A0A4AD27A904201D100207047B3
:1015D0000748807A064A115C1046807A401CC0B2E7
:1015E00090720A2801DB002090720846EFE70000A5
:1015F000D4040020704710B54FF4A060FFF744FBFF
:1016000000F0A6F800F026F800F008F84FF4E130FA
:1016100000F018F900F0C8F810BD000008B501216D
:101620000802FFF747FC03208DF8020010208DF818
:101630000300C001ADF8000069460248FFF76EF9EB
:1016400008BD00000020014010B5FFF7ADFCFFF71A
:10165000F7F810BD10B500F03BF800F001F810BD30
:1016600008B501214420FFF725FC01211548FFF7AB
:10167000E1F91020ADF8000048208DF8030069461C
:101680001148FFF74BF90820ADF8000048208DF80D
:10169000030069460C48FFF741F90420ADF800004B
:1016A00048208DF8030069460748FFF737F9012005
:1016B000ADF8000028208DF8030069460348FFF7C5
:1016C0002DF908BD0002300000180140000801405B
:1016D0000021174A9172D1721173002018E0642121
:1016E000144A02EB001211810221124A02EB00128D
:1016F000117100210F4A02EB001291720D4A02EBA8
:101700000012D1720B4A02EB00121173411CC8B2D5
:101710000628E4DB0849074A1160084911610849B5
:10172000116208491163084911640849116570473D
:10173000D404002074040020F10A0008210B0008E2
:10174000510B0008810B0008B10B0008E10B0008E9
:1017500008B501214820FFF7ADFB012000F0D8F8C3
:10176000022000F0D5F820210D48FFF7ABF9202129
:101770000C48FFF7A7F903208DF8020010208DF820
:1017800003002020ADF8000069460548FFF7C6F8C1
:101790002020ADF8000069460248FFF7BFF808BDF9
:1017A000000C01400018014070B5002016E0002137
:1017B00000EB40021F4B03EB8202516000EB400242
:1017C00003EB8202916000EB400203EB8202517056
:1017D00000EB400203F82210411CC8B20428E6DBEB
:1017E000154909684FF47A73B1FBF3F2B2F1807FC7
:1017F00000D31DE022F07F41491E4FF0E0235961E4
:1018000059170F23002907DA1C07260E0B4C01F08D
:101810000F052D1F665503E01C07250E084C655467
:1018200000BF00214FF0E02399610721196100BF3B
:1018300070BD0000440400201C00002018ED00E0F2
:1018400000E400E010B586B0044601210420FFF753
:1018500031FB01218803FFF72DFB4FF40070ADF839
:10186000140003208DF8160018208DF8170005A924
:101870001F48FFF753F84FF48060ADF814000420C0
:101880008DF8170005A91A48FFF748F801940020C1
:10189000ADF80800ADF80A00ADF80C00ADF8100086
:1018A0000C20ADF80E0001A91248FFF761FD2520BC
:1018B0008DF8000003208DF801008DF80200012052
:1018C0008DF803006846FFF7A7F9012240F2255181
:1018D0000848FFF727FD012240F224410548FFF7A1
:1018E00021FD01210348FFF7E7FC06B010BD000011
:1018F000000801400038014010B5002404E02046F3
:10190000FFF7F8FD601CC4B2062CF8DB10BD000028
:10191000012806D10749096881F02001054A1160B4
:1019200007E0022805D10449096881F02001024A34
:10193000116070470C0C01400C1801400649C97A2F
:10194000054A50541146C97A491CC9B2D1720A29B4
:1019500001DB0021D1727047D404002010B5FFF7DD
:10196000CBFF10BD7047416851B14168491E4160CD
:1019700031B9012141700178012901D181684160AB
:101980007047000070B504460D46042C01DB00BF13
:10199000FEE70120FFF77EFD04EB44000C4901EB5C
:1019A0008000456004EB440001EB8000856000206E
:1019B00004EB4401064A02EB81014870012004EB6C
:1019C000440102F821000020FFF764FD70BD000013
:1019D0004404002000BF054A128802F04002002A99
:1019E000F9D0C2B2014B1B1D1A807047003801406C
:1019F000FFF701FEFFF798F9FFF752F9FFF724FE12
:101A00004FF496710020FFF7BDFF29E0FFF7F2FDCC
:101A10000020FFF755FDB0B10120FFF779FF114815
:101A20000078012805D100200E4908700EA0FEF7AD
:101A3000F9FB13480078012805D1002010490870EF
:101A400010A0FEF7EFFBFFF7BBFD0446002C07DDFF
:101A5000012C02D0042C02D100E000E000BF00BF46
:101A6000D4E700001A000020564942524154452054
:101A7000B4ABB8D0C6F7B6AFD7F70D0A0000000078
:101A80001B00002050495220B4ABB8D0C6F7B6AF07
:101A9000D7F70D0A000000003031323334353637C5
:101AA00038394142434445464030580030313233A2
:101AB00034353637383961626364656640307800A2
:101AC0000400000800000000000000020001000007
:101AD00010000000F41A000800000020440000007C
:101AE0006C010008381B000844000020840B000033
:101AF0008801000800000000000000000000000055
:101B000000000000000000000000000000000000D5
:101B100000A24A04000000000000000001020304CB
:101B20000607080900000000010203040102030483
:081B300006070809020406087B
:0400000508000131BD
:00000001FF
