:020000040800F2
:10000000D80B0020E1010008C1110008C10A000856
:10001000BD110008C10600084730000800000000BC
:100020000000000000000000000000005D29000842
:10003000E106000800000000C9230008652A000846
:1000400065300008FB010008FB010008FB01000807
:10005000FB010008FB010008E5060008FB010008A1
:100060005907000881070008A5070008FB010008E0
:10007000FB010008FB010008FB010008FB01000870
:10008000FB010008FB010008FB010008FB01000860
:10009000FB010008FB010008FB010008FB01000850
:1000A000FB010008FB010008FB010008FB01000840
:1000B000FB010008FB010008FB010008FB01000830
:1000C000FB010008FB010008FB010008FB01000820
:1000D000FB010008512E0008FB010008FB0100088D
:1000E00009070008FB010008FB010008FB010008EC
:1000F000FB010008FB010008FB010008FB010008F0
:10010000FB010008FB010008FB010008FB010008DF
:10011000D12D0008112E0008FB010008FB0100088A
:10012000FB010008FB010008FB010008FB010008BF
:1001300000F002F800F045F80AA090E8000C8244B4
:100140008344AAF10107DA4501D100F03AF8AFF291
:10015000090EBAE80F0013F0010F18BFFB1A43F0A5
:1001600001031847804F0000A04F0000103A24BF41
:1001700078C878C1FAD8520724BF30C830C144BF0C
:1001800004680C607047000000230024002500264E
:10019000103A28BF78C1FBD8520728BF30C148BFEA
:1001A0000B607047642900F0AD80782900F0E6808C
:1001B000732900F03882002070471FB51FBD10B5AD
:1001C00010BD00F04BFA1146FFF7F7FF03F0FAFA03
:1001D00000F069FA03B4FFF7F2FF03BC02F076FF08
:1001E0000948804709480047FEE7FEE7FEE7FEE7CB
:1001F000FEE7FEE7FEE7FEE7FEE7FEE70448054907
:10020000054A064B70470000F12A0008310100083A
:10021000D8050020D80B0020D8070020D8070020E0
:10022000704700000FB4044910B503AA029800F00B
:10023000FFF910BC5DF814FB180000200FB41CB5CA
:10024000074B06AA7B4469460090059800F0C1F967
:100250000020694600F0D0F91CBC5DF814FB0000DA
:10026000B103000070B5044685690068C10601D578
:10027000302600E02026C00707D070BDD4E9012158
:1002800030469047206A401C20626D1EF6D570BD36
:1002900070B5044685690078C00707D170BDD4E900
:1002A000012120209047206A401C20626D1EF6D557
:1002B00070BD70B50C460546012A05D02878800629
:1002C00000D5EA69002302E0012305E05B1C9342AC
:1002D00002D2E05C0028F9D1A869E618C01AA8612A
:1002E000286A184428622846FFF7BCFF04E0D5E9D5
:1002F000012114F8010B9047B442F8D32846FFF7C8
:10030000C7FF70BD2DE9F04106460024106875292D
:10031000314616A510D0AFF30080002802DA404223
:1003200013A507E031688A0701D512A502E0490745
:1003300004D511A5012401E0AFF3008000210A22B9
:1003400006F1240709E0B0FBF2FCB0FBF2F302FB7C
:100350001C00303078541846491C0028F3D123463D
:100360002A463046BDE8F04100F0D4B80000000055
:100370002D0000002B0000002000000070B5044696
:100380000D4621461068AFF300802188090502D58B
:100390000F4A7A4402E00E4A7A440E32002104F1F8
:1003A000240305E000F00F060009965D5E54491C29
:1003B0000028F7D120780023000704D5702D02D043
:1003C00009B1022311322046BDE8704000F0A2B806
:1003D000124D00002DE9F05F894604464FF0000AF7
:1003E000DFF824B1FB44C0F820A02046E16888472C
:1003F00000287DD0252806D0D4E901219047206A25
:10040000401C2062F1E700255F462046E1688847EE
:100410002028064607DB312E05D2B81910F8200C2B
:1004200008B10543F1E7A80701D525F00405C4F894
:100430001CA00027C4F818A02A2E09D0304602F0CC
:100440003EFE38B304EB8708303EC8F8186019E068
:1004500059F8041B204604EB87029161E168884744
:10046000012F064618D1E069002820DA25F0200582
:100470001DE0D8F8180000EB800006EB4000303893
:10048000C8F818002046E1688847064602F017FEC3
:100490000028EED1012F0AD02E2E08D12046E16887
:1004A00088477F1C0646022F45F02005C4DBA06963
:1004B000002803DA404245F00105A061E80701D0B9
:1004C00025F01005A6B1A6F14100192802D8203662
:1004D00045F400654A463146204625604D46FFF703
:1004E00061FE60B1012807D0ED1D25F0070000E096
:1004F00007E000F1080978E705F1040975E73046DF
:100500007AE7206ABDE8F09FE84C0000704770472A
:10051000704770472DE9F0470D46994692460446CC
:1005200000F124080168880604D5E06921F0100173
:10053000216000E00120A84201DD471B00E0002708
:10054000A1697A1902EB0900081AA0612078C00697
:1005500002D42046FFF786FE002608E0D4E90121F8
:100560001AF806009047206A401C761C20624E450F
:10057000F4DB2078C0060AD52046FFF773FE06E0BC
:10058000D4E9012130209047206A401C2062381EA7
:10059000A7F10107F4DC07E0D4E9012118F8050010
:1005A0009047206A401C2062281EA5F10105F3DC5B
:1005B0002046FFF76DFE2078000602D50220BDE838
:1005C000F0870120FBE7000001694A1C02610878FE
:1005D000704700B58FB0CDE9013100210591054983
:1005E0007944CDE9031011466846FFF7F3FE0FB0DA
:1005F00000BD0000E5FFFFFF0A6802F8010B0A607A
:10060000704710B5436913B1AFF3008001E0FFF705
:1006100050FE012010BD127800F124010A70002262
:100620004A700122EDE711684FF0FF32E9E7000060
:10063000074B70B50D467B44FFF7CBFF04462846B9
:1006400000F008F810B14FF0FF3070BD204670BDCB
:100650006F310000007B00F080007047754600F0AD
:100660002BF8AE4605006946534620F00700854644
:1006700018B020B5FFF7C2FDBDE820404FF00006DE
:100680004FF000074FF000084FF0000B21F007017A
:10069000AC46ACE8C009ACE8C009ACE8C009ACE8BD
:1006A000C0098D46704710B50446AFF30080204660
:1006B000BDE81040FFF78EBD004870477805002068
:1006C00000BFFEE770B505460C460026284602F03E
:1006D00025F8064626EA0401284602F0D5FC70BD3E
:1006E0007047000010B5012000F074F840B10548D3
:1006F0000068012801D102F0EBFC012000F064F851
:1007000010BD00000001214210B54FF4006000F060
:1007100061F848B10C48006810B901200B49087015
:100720004FF4006000F050F84FF4804000F052F8B1
:1007300048B107480068012801D1064908704FF404
:10074000804000F041F810BD2C0121421E00002025
:10075000380124421F00002010B5042000F03AF8B0
:1007600058B10648006828B9012002F0AFFF022006
:1007700002F0ACFF042000F027F810BD080123426E
:1007800010B5082000F026F840B10548006810B9FF
:10079000022002F09BFF082000F016F810BD0000B8
:1007A0000C01234210B5102000F014F840B10548A8
:1007B000006810B9012002F089FF102000F004F851
:1007C00010BD00001001234201490860704700007D
:1007D00014040140014600200022074B1B6803EA75
:1007E0000102054B14331B680B4013B10AB1012001
:1007F00000E00020704700000004014051B1820079
:10080000A2F1C042126842F001038200A2F1C0428C
:10081000136009E08200A2F1C0421268034B1A4043
:100820008300A3F1C0431A6070470000FEFF0F0071
:10083000D0E901121143C2681143026911434269B0
:10084000114382691143C2691143026A1143426A2A
:100850001143826A1143C26A1143026B1143026859
:100860009200A2F1C0421160816808290BD1016891
:100870008900A1F1C041096841F040020168890086
:10088000A1F1C0410A60416B0968426B526841EABC
:100890000211426B926841EA0221426B928941EA5D
:1008A0000241426B128A41EA0251426B127D41EAD7
:1008B0000261426B926911430268521C9200A2F1DC
:1008C000C0421160C16AB1F5804F1BD1816B0968CC
:1008D000826B526841EA0211826B926841EA0221FE
:1008E000826B128A41EA0251826B127D41EA0261F7
:1008F000826B9269114302689200A2F1C042C2F871
:10090000041107E06FF0704201688900A1F1C04155
:10091000C1F8042170472DE9F04102460025002668
:10092000002000230024002791F803C00CF00F05DD
:1009300091F803C00CF0100CBCF1000F03D091F83B
:1009400002C04CEA050591F800C0BCF1000F31D09F
:10095000146800202BE04FF0010C0CFA00F3B1F802
:1009600000C00CEA03069E4220D183004FF00F0C1A
:100970000CFA03F7BC4305FA03FC4CEA040491F8B3
:1009800003C0BCF1280F06D14FF0010C0CFA00FC9B
:10099000C2F814C00AE091F803C0BCF1480F05D1B9
:1009A0004FF0010C0CFA00FCC2F810C0401C0828E3
:1009B000D1D31460B1F800C0BCF1FF0F34DD54682E
:1009C00000202EE000F1080C4FF0010808FA0CF3AB
:1009D000B1F800C00CEA03069E4221D183004FF01B
:1009E0000F0C0CFA03F7BC4305FA03FC4CEA0404B1
:1009F00091F803C0BCF1280F05D100F1080C08FAEA
:100A00000CF8C2F8148091F803C0BCF1480F07D16C
:100A100000F1080C4FF0010808FA0CF8C2F8108039
:100A2000401C0828CED35460BDE8F081F0B50A46DA
:100A3000002300240021002500F00046B6F1004FFD
:100A400002D11D4EF16901E01B4E7168C0F30345F0
:100A500083B200F44016B6F5401F08D121F0706152
:100A6000154E766826F07066134F7E6012E000F433
:100A70008016B6F5801F06D1032606FA05F4A143B9
:100A800041F0706106E0460D360103FA06F6B14307
:100A900041F0706122B1460D360103FA06F631438A
:100AA00000F00046B6F1004F02D1034EF16101E0C3
:100AB000014E7160F0BD000000000140016170470F
:100AC0000EE00849C96881F40061064AD16000203F
:100AD00001E0411C88B242F210718842F9DB00BF8C
:100AE000EFE700000020014010B594B034A104A845
:100AF000FFF7A4FB03A9522001F0FBFB04462628C4
:100B000004D003A9522001F0F4FB0446262C54D152
:100B10002CA0FFF787FB9DF80D209DF80C1031A04D
:100B2000FFF780FB03A801F012FB262845D19DF8B2
:100B30000F009DF80E10CDE900109DF80D309DF8C6
:100B40000C202FA10CA8FFF779FB0CA935A0FFF70B
:100B500069FB36A0FFF766FB3D480088B0F5917F42
:100B60001BD1AA203A4908800FE004A810210B46A7
:100B7000C822CDE90010364801881E2000F0A2FAF4
:100B80003348008814303249088031480088B0F575
:100B9000917FEADDAA202E4908800CA810210B467F
:100BA000C822CDE900102A4801881E2000F08AFAE8
:100BB0002748008814302649088014B010BD000072
:100BC000200000002D2D2D2D2D2D2D2D2D2D2D2DE9
:100BD0002D2D2D2D2D2D2D2D2D2D2D2D2D2D2D2D45
:100BE0000D0A000043617264547970652069733A9C
:100BF000307825303258253032580D0A0000000078
:100C000054686520436172642049442069733A2026
:100C10002530325825303258253032582530325858
:100C20000000000025730D0A000000002D2D2D2D61
:100C30002D2D2D2D2D2D2D2D2D2D2D2D2D2D2D2DE4
:100C40002D2D2D2D2D2D2D2D0D0A0D0A000000000E
:100C5000040000200948006801280CD108480068F9
:100C600048B10748001F006828B1054808380068E7
:100C700008B1012070470020FCE70000000121427C
:100C8000100123420948006801280CD00848006878
:100C900048B90748001F006828B1054808380068AF
:100CA00008B1012070470020FCE70000000121424C
:100CB000100123420948006801280CD00848006848
:100CC00048B10748001F006828B90548083800687F
:100CD00008B1012070470020FCE70000000121421C
:100CE000100123420948006801280CD00848006818
:100CF00048B10748001F006828B105480838006857
:100D000008B9012070470020FCE7000000012142E3
:100D1000100123420948006801280CD108480068E6
:100D200048B90748001F006828B10548083800681E
:100D300008B1012070470020FCE7000000012142BB
:100D4000100123420948006801280CD008480068B7
:100D500048B90748001F006828B9054808380068E6
:100D600008B1012070470020FCE70000000121428B
:100D70001001234270B506460024094805884088C2
:100D800045430021084600F0EFF800F0DBF900BF12
:100D900003E0304600F0CAF9641CAC42F9D370BDE0
:100DA0006A05002010B504467CB9002010498871FE
:100DB0002C2008812A2048812B2088814FF4A070A4
:100DC00008804FF4F07048800EE0012008498871D7
:100DD0002C2008812A2048812B2088814FF4F07034
:100DE00008804FF4A0704880002000F029F810BD62
:100DF0006A05002070B504460D4616460C49488920
:100E000000F09AF9201200F091F9E0B200F08EF9AA
:100E10000749888900F090F9281200F087F9E8B2B4
:100E200000F084F902490889314600F093F970BD59
:100E30006A05002001480088704700000008006C27
:100E400070B50546002447488079012818D1082D3F
:100E500015D2DFE805F00406080A0C0E101206256C
:100E60000DE007250BE0042509E0052507E0012535
:100E700005E0002503E0032501E0022500BF00BFD7
:100E8000082D1CD2DFE805F00406090C0F12151816
:100E900000BF14E044F0800411E044F040040EE090
:100EA00044F0C0040BE044F0200408E044F0600487
:100EB00005E044F0A00402E044F0E00400BF00BFFD
:100EC0002146362000F046F904F0200068B125489C
:100ED000008824494988884214DA224806884088D4
:100EE00020490880084646800CE01E4800881D49BD
:100EF0004988884206DD1B480688408819490880D1
:100F0000084646801749488900F016F9002000F08D
:100F10000DF9002000F00AF912490988491EC1F3B1
:100F20000F2000F003F90F490978491EC8B200F0FC
:100F3000FDF80C49888900F0FFF8002000F0F6F871
:100F4000002000F0F3F807494988491EC1F30F203B
:100F500000F0ECF803498978491EC8B200F0E6F8C1
:100F600070BD00006A05002000B502460B460A4924
:100F7000488900F0E1F8101200F0D8F8D0B200F083
:100F8000D5F80549888900F0D7F8181200F0CEF896
:100F9000D8B200F0CBF800BD6A0500202DE9F84F6B
:100FA00080460E4617461C46B3462046E31704EB20
:100FB0005373DB1021464FEAE47C04EB5C7C4FEA80
:100FC000EC0CA4EBCC0CBCF1000F02D04FF0010CE8
:100FD00001E04FF0000C6344224604EBD27C4FEA60
:100FE0006C0C03FB0CF3DBB20093A7F12000C7B23B
:100FF000002556E00C2C07D107EB47002B4901EBED
:10100000800010F8059013E0102C05D1284800EB63
:10101000071010F805900BE0182C07D107EBC7005C
:10102000244901EB800010F8059001E0BDE8F88F3D
:101030004FF0000A2FE009F0800030B11E4802880E
:1010400031464046FFF7D6FE07E00A9828B91B480C
:10105000028831464046FFF7CDFE4FEA49604FEA2D
:101060001069701C86B216484088B04200DCDDE78B
:10107000A6EB0B00A0420AD15E4608F101001FFA60
:1010800080F80F480088404500DCCFE706E00AF111
:10109000010000F0FF0ABAF1080FCCDB00BF681CAA
:1010A000C5B200988542A5DB00BFBFE7E83800085D
:1010B0005C3D00084C430008200000202200002076
:1010C0006A0500202DE9F84704460D4690469946EA
:1010D000DDE9096704F0FF0A08EB04001FFA80F855
:1010E00009EB05001FFA80F916E0444502DB54467F
:1010F000A81985B24D4500DB14E0002000903A7835
:10110000334629462046FFF749FF304606EBD071AB
:1011100004EB61018CB27F1C38787E2802DC3878C1
:101120002028E2DA00BFBDE8F88700000149088006
:10113000704700000008006C0149088070470000FB
:10114000FE07006C00B502490889FFF7F5FF00BDF6
:101150006A05002000B503460A461846FFF7ECFF73
:101160001046FFF7E3FF00BD10B50446412C24D123
:1011700008210846FFF7A6FA3D21112001F084FF5F
:101180008621172001F080FF7F21262001F07CFFBF
:101190001E212D2001F078FF00212C2001F074FF8A
:1011A0008D212A2001F070FF3E212B2001F06CFFE1
:1011B000022002F0F3FA00F0BDFF10BD00BFFEE711
:1011C000704710B5ED20FFF7B7FF0120FFF7AEFF26
:1011D000FE20FFF7ABFFEE20FFF7AEFFDE20FFF7AC
:1011E000A5FF2120FFF7A2FFF120FFF7A5FF0120B7
:1011F000FFF79CFFDF20FFF79FFF1020FFF796FF10
:10120000C420FFF799FF8F20FFF790FFC620FFF75C
:1012100093FF0020FFF78AFFE220FFF787FFE2201D
:10122000FFF784FFE220FFF781FFBF20FFF784FF75
:10123000AA20FFF77BFFB020FFF77EFF0D20FFF70E
:1012400075FF0020FFF772FF0D20FFF76FFF0020F2
:10125000FFF76CFF1120FFF769FF0020FFF766FF23
:101260001920FFF763FF0020FFF760FF2120FFF741
:101270005DFF0020FFF75AFF2D20FFF757FF0020EA
:10128000FFF754FF3D20FFF751FF0020FFF74EFF0F
:101290005D20FFF74BFF0020FFF748FF5D20FFF7C1
:1012A00045FF0020FFF742FFB120FFF745FF8020F8
:1012B000FFF73CFF0020FFF739FF8B20FFF736FFD9
:1012C0000020FFF733FF9620FFF730FF0020FFF7E5
:1012D0002DFFB220FFF730FF0020FFF727FF00208F
:1012E000FFF724FF0220FFF721FF0020FFF71EFF7A
:1012F0000320FFF71BFF0020FFF718FFB320FFF7C5
:101300001BFF0020FFF712FF0020FFF70FFF002058
:10131000FFF70CFF0020FFF709FF0020FFF706FF93
:101320000020FFF703FF0020FFF700FF0020FFF77A
:10133000FDFE0020FFF7FAFE0020FFF7F7FE002079
:10134000FFF7F4FE0020FFF7F1FE0020FFF7EEFEAE
:101350000020FFF7EBFE0020FFF7E8FE0020FFF77C
:10136000E5FE0020FFF7E2FE0020FFF7DFFE002091
:10137000FFF7DCFE0020FFF7D9FE0020FFF7D6FEC6
:101380000020FFF7D3FE0020FFF7D0FE0020FFF77C
:10139000CDFEB420FFF7D0FE8B20FFF7C7FE002064
:1013A000FFF7C4FE9620FFF7C1FE0020FFF7BEFE48
:1013B000A120FFF7BBFE0020FFF7B8FEB520FFF726
:1013C000BBFE0220FFF7B2FE0020FFF7AFFE0320B6
:1013D000FFF7ACFE0020FFF7A9FE0420FFF7A6FEF2
:1013E0000020FFF7A3FEB620FFF7A6FE0020FFF7C0
:1013F0009DFE0020FFF79AFEB720FFF79DFE00201C
:10140000FFF794FE0020FFF791FE3F20FFF78EFECE
:101410000020FFF78BFE5E20FFF788FE0020FFF71D
:1014200085FE6420FFF782FE0020FFF77FFE8C2000
:10143000FFF77CFE0020FFF779FEAC20FFF776FE79
:101440000020FFF773FEDC20FFF770FE0020FFF79F
:101450006DFE7020FFF76AFE0020FFF767FE902008
:10146000FFF764FE0020FFF761FEEB20FFF75EFE52
:101470000020FFF75BFEDC20FFF758FE0020FFF79F
:1014800055FEB820FFF758FE0020FFF74FFE002062
:10149000FFF74CFE0020FFF749FE0020FFF746FE55
:1014A0000020FFF743FE0020FFF740FE0020FFF77B
:1014B0003DFE0020FFF73AFEBA20FFF73DFE242054
:1014C000FFF734FE0020FFF731FE0020FFF72EFE6D
:1014D0000020FFF72BFEC120FFF72EFE2020FFF794
:1014E00025FE0020FFF722FE5420FFF71FFE0020FC
:1014F000FFF71CFEFF20FFF719FE0020FFF716FE86
:10150000C220FFF719FE0A20FFF710FE0020FFF7A8
:101510000DFE0420FFF70AFE0020FFF707FEC320A0
:10152000FFF70AFE3C20FFF701FE0020FFF7FEFD5B
:101530003A20FFF7FBFD0020FFF7F8FD3920FFF709
:10154000F5FD0020FFF7F2FD3720FFF7EFFD00204B
:10155000FFF7ECFD3C20FFF7E9FD0020FFF7E6FD7B
:101560003620FFF7E3FD0020FFF7E0FD3220FFF714
:10157000DDFD0020FFF7DAFD2F20FFF7D7FD00206B
:10158000FFF7D4FD2C20FFF7D1FD0020FFF7CEFDA3
:101590002920FFF7CBFD0020FFF7C8FD2620FFF72D
:1015A000C5FD0020FFF7C2FD2420FFF7BFFD00208E
:1015B000FFF7BCFD2420FFF7B9FD0020FFF7B6FDC3
:1015C0002320FFF7B3FD0020FFF7B0FD3C20FFF71D
:1015D000ADFD0020FFF7AAFD3620FFF7A7FD002094
:1015E000FFF7A4FD3220FFF7A1FD0020FFF79EFDCD
:1015F0002F20FFF79BFD0020FFF798FD2C20FFF721
:1016000095FD0020FFF792FD2920FFF78FFD0020B8
:10161000FFF78CFD2620FFF789FD0020FFF786FDF0
:101620002420FFF783FD0020FFF780FD2420FFF733
:101630007DFD0020FFF77AFD2320FFF777FD0020D6
:10164000FFF774FDC420FFF777FD6220FFF76EFD02
:101650000020FFF76BFD0520FFF768FD0020FFF776
:1016600065FD8420FFF762FD0020FFF75FFDF0209D
:10167000FFF75CFD0020FFF759FD1820FFF756FD2E
:101680000020FFF753FDA420FFF750FD0020FFF7D7
:101690004DFD1820FFF74AFD0020FFF747FD5020C1
:1016A000FFF744FD0020FFF741FD0C20FFF73EFD52
:1016B0000020FFF73BFD1720FFF738FD0020FFF764
:1016C00035FD9520FFF732FD0020FFF72FFDF320B9
:1016D000FFF72CFD0020FFF729FDE620FFF726FD90
:1016E0000020FFF723FDC520FFF726FD3220FFF77E
:1016F0001DFD0020FFF71AFD4420FFF717FD002015
:10170000FFF714FD6520FFF711FD0020FFF70EFD28
:101710007620FFF70BFD0020FFF708FD8820FFF77C
:1017200005FD0020FFF702FDC620FFF705FD202084
:10173000FFF7FCFC0020FFF7F9FC1720FFF7F6FC91
:101740000020FFF7F3FC0120FFF7F0FC0020FFF77B
:10175000EDFCC720FFF7F0FC0020FFF7E7FC0020BE
:10176000FFF7E4FC0020FFF7E1FC0020FFF7DEFCC0
:10177000C820FFF7E1FC0020FFF7D8FC0020FFF7AE
:10178000D5FC0020FFF7D2FC0020FFF7CFFCC920DA
:10179000FFF7D2FC0020FFF7C9FC0020FFF7C6FCD2
:1017A0000020FFF7C3FC0020FFF7C0FC0020FFF77C
:1017B000BDFC0020FFF7BAFC0020FFF7B7FC0020BB
:1017C000FFF7B4FC0020FFF7B1FC0020FFF7AEFCF0
:1017D0000020FFF7ABFC0020FFF7A8FC0020FFF77C
:1017E000A5FC0020FFF7A2FC0020FFF79FFC0020D3
:1017F000FFF79CFCE020FFF79FFC1620FFF796FC0C
:101800000020FFF793FC1C20FFF790FC0020FFF75F
:101810008DFC2120FFF78AFC0020FFF787FC362093
:10182000FFF784FC0020FFF781FC4620FFF77EFCD9
:101830000020FFF77BFC5220FFF778FC0020FFF729
:1018400075FC6420FFF772FC0020FFF76FFC7A2024
:10185000FFF76CFC0020FFF769FC8B20FFF766FCAC
:101860000020FFF763FC9920FFF760FC0020FFF7E2
:101870005DFCA820FFF75AFC0020FFF757FCB920B9
:10188000FFF754FC0020FFF751FCC420FFF74EFC8B
:101890000020FFF74BFCCA20FFF748FC0020FFF7B1
:1018A00045FCD220FFF742FC0020FFF73FFCD92087
:1018B000FFF73CFC0020FFF739FCE020FFF736FC87
:1018C0000020FFF733FCF320FFF730FC0020FFF788
:1018D0002DFCE120FFF730FC1620FFF727FC00204D
:1018E000FFF724FC1C20FFF721FC0020FFF71EFC63
:1018F0002220FFF71BFC0020FFF718FC3620FFF723
:1019000015FC0020FFF712FC4520FFF70FFC00201C
:10191000FFF70CFC5220FFF709FC0020FFF706FC44
:101920006420FFF703FC0020FFF700FC7A20FFF79C
:10193000FDFB0020FFF7FAFB8B20FFF7F7FB0020F1
:10194000FFF7F4FB9920FFF7F1FB0020FFF7EEFB18
:10195000A820FFF7EBFB0020FFF7E8FBB920FFF71B
:10196000E5FB0020FFF7E2FBC420FFF7DFFB0020D0
:10197000FFF7DCFBCA20FFF7D9FB0020FFF7D6FBFF
:10198000D220FFF7D3FB0020FFF7D0FBD820FFF7D2
:10199000CDFB0020FFF7CAFBE020FFF7C7FB0020CC
:1019A000FFF7C4FBF320FFF7C1FB0020FFF7BEFBEE
:1019B000E220FFF7C1FB0520FFF7B8FB0020FFF78F
:1019C000B5FB0B20FFF7B2FB0020FFF7AFFB1B209E
:1019D000FFF7ACFB0020FFF7A9FB3420FFF7A6FBC5
:1019E0000020FFF7A3FB4420FFF7A0FB0020FFF738
:1019F0009DFB4F20FFF79AFB0020FFF797FB61202C
:101A0000FFF794FB0020FFF791FB7920FFF78EFB97
:101A10000020FFF78BFB8820FFF788FB0020FFF7F3
:101A200085FB9720FFF782FB0020FFF77FFBA620B6
:101A3000FFF77CFB0020FFF779FBB720FFF776FB71
:101A40000020FFF773FBC220FFF770FB0020FFF7B9
:101A50006DFBC720FFF76AFB0020FFF767FBD12073
:101A6000FFF764FB0020FFF761FBD620FFF75EFB6A
:101A70000020FFF75BFBDD20FFF758FB0020FFF79E
:101A800055FBF320FFF752FB0020FFF74FFBE3204D
:101A9000FFF752FB0520FFF749FB0020FFF746FB4D
:101AA0000A20FFF743FB0020FFF740FB1C20FFF755
:101AB0003DFB0020FFF73AFB3320FFF737FB002008
:101AC000FFF734FB4420FFF731FB0020FFF72EFB2C
:101AD0005020FFF72BFB0020FFF728FB6220FFF7C9
:101AE00025FB0020FFF722FB7820FFF71FFB0020DB
:101AF000FFF71CFB8820FFF719FB0020FFF716FB00
:101B00009720FFF713FB0020FFF710FBA620FFF73D
:101B10000DFB0020FFF70AFBB720FFF707FB0020B3
:101B2000FFF704FBC220FFF701FB0020FFF7FEFADE
:101B3000C720FFF7FBFA0020FFF7F8FAD120FFF7E4
:101B4000F5FA0020FFF7F2FAD520FFF7EFFA0020B0
:101B5000FFF7ECFADD20FFF7E9FA0020FFF7E6FADD
:101B6000F320FFF7E3FA0020FFF7E0FAE420FFF7A5
:101B7000E3FA0120FFF7DAFA0020FFF7D7FA012095
:101B8000FFF7D4FA0020FFF7D1FA0220FFF7CEFAD0
:101B90000020FFF7CBFA2A20FFF7C8FA0020FFF752
:101BA000C5FA3C20FFF7C2FA0020FFF7BFFA4B202E
:101BB000FFF7BCFA0020FFF7B9FA5D20FFF7B6FA8D
:101BC0000020FFF7B3FA7420FFF7B0FA0020FFF708
:101BD000ADFA8420FFF7AAFA0020FFF7A7FA9320B6
:101BE000FFF7A4FA0020FFF7A1FAA220FFF79EFA60
:101BF0000020FFF79BFAB320FFF798FA0020FFF7C9
:101C000095FABE20FFF792FA0020FFF78FFAC42062
:101C1000FFF78CFA0020FFF789FACD20FFF786FA4C
:101C20000020FFF783FAD320FFF780FA0020FFF7A8
:101C30007DFADD20FFF77AFA0020FFF777FAF3202C
:101C4000FFF774FA0020FFF771FAE520FFF774FA46
:101C50000020FFF76BFA0020FFF768FA0020FFF77B
:101C600065FA0020FFF762FA0220FFF75FFA002012
:101C7000FFF75CFA2920FFF759FA0020FFF756FA20
:101C80003C20FFF753FA0020FFF750FA4B20FFF7F4
:101C90004DFA0020FFF74AFA5D20FFF747FA0020CF
:101CA000FFF744FA7420FFF741FA0020FFF73EFAED
:101CB0008420FFF73BFA0020FFF738FA9320FFF764
:101CC00035FA0020FFF732FAA220FFF72FFA0020A2
:101CD000FFF72CFAB320FFF729FA0020FFF726FAC6
:101CE000BE20FFF723FA0020FFF720FAC420FFF7F9
:101CF0001DFA0020FFF71AFACD20FFF717FA00208F
:101D0000FFF714FAD320FFF711FA0020FFF70EFABD
:101D1000DC20FFF70BFA0020FFF708FAF320FFF7AB
:101D200005FA0020FFF702FAE620FFF705FA112076
:101D3000FFF7FCF90020FFF7F9F93420FFF7F6F977
:101D40000020FFF7F3F95620FFF7F0F90020FFF726
:101D5000EDF97620FFF7EAF90020FFF7E7F97720A1
:101D6000FFF7E4F90020FFF7E1F96620FFF7DEF95D
:101D70000020FFF7DBF98820FFF7D8F90020FFF7F4
:101D8000D5F99920FFF7D2F90020FFF7CFF9BB2052
:101D9000FFF7CCF90020FFF7C9F99920FFF7C6F942
:101DA0000020FFF7C3F96620FFF7C0F90020FFF716
:101DB000BDF95520FFF7BAF90020FFF7B7F9552014
:101DC000FFF7B4F90020FFF7B1F94520FFF7AEF9AE
:101DD0000020FFF7ABF94320FFF7A8F90020FFF739
:101DE000A5F94420FFF7A2F90020FFF79FF9E720AB
:101DF000FFF7A2F93220FFF799F90020FFF796F9D3
:101E00005520FFF793F90020FFF790F97620FFF7B0
:101E10008DF90020FFF78AF96620FFF787F9002087
:101E2000FFF784F96720FFF781F90020FFF77EF9BB
:101E30006720FFF77BF90020FFF778F98720FFF78D
:101E400075F90020FFF772F99920FFF76FF900206C
:101E5000FFF76CF9BB20FFF769F90020FFF766F97F
:101E60009920FFF763F90020FFF760F97720FFF76B
:101E70005DF90020FFF75AF94420FFF757F90020D9
:101E8000FFF754F95620FFF751F90020FFF74EF9FC
:101E90002320FFF74BF90020FFF748F93320FFF725
:101EA00045F90020FFF742F94520FFF73FF90020F0
:101EB000FFF73CF9E820FFF73FF90020FFF736F97C
:101EC0000020FFF733F99920FFF730F90020FFF7E2
:101ED0002DF98720FFF72AF90020FFF727F988203E
:101EE000FFF724F90020FFF721F97720FFF71EF90B
:101EF0000020FFF71BF96620FFF718F90020FFF715
:101F000015F98820FFF712F90020FFF70FF9AA2032
:101F1000FFF70CF90020FFF709F9BB20FFF706F9DE
:101F20000020FFF703F99920FFF700F90020FFF7E1
:101F3000FDF86620FFF7FAF80020FFF7F7F85520C4
:101F4000FFF7F4F80020FFF7F1F85520FFF7EEF85F
:101F50000020FFF7EBF84420FFF7E8F80020FFF738
:101F6000E5F84420FFF7E2F80020FFF7DFF85520FE
:101F7000FFF7DCF80020FFF7D9F8E920FFF7DCF8DD
:101F8000AA20FFF7D3F80020FFF7D0F80020FFF7D2
:101F9000CDF80020FFF7CAF80020FFF7CDF8AA20FF
:101FA000FFF7C4F8CF20FFF7C7F80020FFF7BEF80F
:101FB0000020FFF7BBF80020FFF7B8F80020FFF77C
:101FC000B5F80020FFF7B2F80020FFF7AFF80020C7
:101FD000FFF7ACF80020FFF7A9F80020FFF7A6F8FC
:101FE0000020FFF7A3F80020FFF7A0F80020FFF77C
:101FF0009DF80020FFF79AF80020FFF797F80020DF
:10200000FFF794F80020FFF791F80020FFF78EF813
:10201000F020FFF791F80020FFF788F85020FFF735
:1020200085F80020FFF782F80020FFF77FF80020F6
:10203000FFF77CF8F320FFF77FF80020FFF776F832
:10204000F920FFF779F80620FFF770F81020FFF766
:102050006DF82920FFF76AF80020FFF767F83A20AB
:10206000FFF76AF85520FFF761F81120FFF764F8D1
:10207000642001F08DFB2920FFF75EF83520FFF783
:102080005BF80020FFF752F85120FFF755F8FF20CA
:10209000FFF74CF85320FFF74FF82C20FFF746F8D6
:1020A0005520FFF749F88220FFF740F810BD0000E7
:1020B00070B5002100230F22C47804B3154C2468A6
:1020C00004F4E064C4F5E064210AC1F10403CA40E9
:1020D000447804FA03F184781440214309010E4C3A
:1020E0000678A155047804F01F050124AC4005785A
:1020F0006D11AD0005F1E025C5F8004109E0047857
:1021000004F01F050124AC40044D0678761145F813
:10211000264070BD0CED00E000E400E080E100E04E
:1021200002490143024A1160704700000000FA05AD
:102130000CED00E010B5142000F0F0FA044604F0B5
:10214000030018B90321142000F009FC10BDF0B5FC
:1021500087B00546002708210846FEF7B3FA00219C
:102160000D2000F091FF80210E20FEF7ABFA9320A6
:102170008DF8080020208DF8090001A802AB02228A
:1021800002A900900C2000F01BF80646262E10D164
:10219000002407E002A8005D285502A8005D474022
:1021A000601CC4B2042CF5DB02A8005DB84200D06C
:1021B000BB2680210E2000F0D2FB304607B0F0BDD8
:1021C0002DE9FE4F0646884691469A46DDF830B026
:1021D000BB2002900020019000900C2E06D00E2E05
:1021E00009D1122001901020009005E07720019085
:1021F0003020009000E000BF00BF019840F0800157
:10220000022000F041FF80210420FEF75BFA00214C
:10221000012000F039FF80210A2000F0A0FB0025FA
:1022200005E018F80510092000F02EFF6D1C4D4543
:10223000F7D33146012000F027FF0C2E03D1802177
:102240000D2000F08CFB4FF47A7500BF042000F0E5
:1022500065FA04466D1E35B104F0010018B9009806
:1022600020400028F2D080210D20FEF72BFA95B3F4
:10227000062000F053FA00F01B0068BB26200290F5
:102280000198204000F0010008B1CC2002900C2EF3
:1022900024D10A2000F042FA04460C2000F03EFA55
:1022A00000F007072FB1601E07EBC000CBF800005D
:1022B00002E0E000CBF8000004B90124122C00DD9C
:1022C0001224002505E0092000F028FA0AF805008C
:1022D0006D1CA542F7D301E0BB20029080210C20A9
:1022E00000F03DFB0021012000F0CEFE0298BDE889
:1022F000FE8F70B588B005460C4608210846FEF7EB
:10230000E1F907210D2000F0BFFE0321142000F0A9
:1023100026FB8DF80C5002A803AB012203A9009004
:102320000C20FFF74DFF0646262E09D102981028F3
:1023300006D19DF80C0020709DF80D00607000E043
:10234000BB26304608B070BD10B501201C4908609E
:102350000A2001F023FA00201A49C1F89C010A2042
:1023600001F01CFA0120164908600A2001F016FA53
:102370000F21012000F088FE00BF012000F0CEF9FF
:1023800000F010000028F8D10A2001F007FA3D21E2
:10239000112000F079FE1E212D2000F075FE002195
:1023A0002C2000F071FE8D212A2000F06DFE3E21D0
:1023B0002B2000F069FE4021152000F065FE10BDC5
:1023C0009C812142008021427047000010B506A088
:1023D000FDF728FF07A0FDF725FF10A0FDF722FF5E
:1023E0001CA0FDF71FFF10BDB2D9D7F7CCE1CABEC4
:1023F0003A0D0A00312EB1BEB3CCD0F2D6D0A3AC88
:10240000C3BF3330306D73445330BAECB5C6B7AD8B
:10241000D7AAD2BBB4CE0D0A00000000322ECEDE09
:10242000D0E8BDF8D0D0B2D9D7F7A3ACC3BF203124
:1024300020C3EBD7D4B6AFCBA2D0C2CFD4CABEA3F1
:10244000ACD1D5C9ABBCB0B6D4D3A6B5C4D0F2BA62
:10245000C50D0A000D0A0D0A0000000070B51548F0
:102460000468001D0568001D066823462A4631469B
:1024700011A0FDF7D7FE1DA0FDF7D4FE1CA0FDF7AF
:10248000D1FE26A12CA0FDF7CDFE30A130A0FDF796
:10249000C9FE34A136A0FDF7C5FE002305220321A5
:1024A00038A0FDF7BFFE45A0FDF7BCFE44A0FDF738
:1024B000B9FE70BDE8F7FF1F0D0A4350553A53545B
:1024C0004D3332463130335A4554362C4C514650F8
:1024D0003134342C554944203D202530385825309E
:1024E0003858253038580A0D000000000D0A000049
:1024F0002A2A2A2A2A2A2A2A2A2A2A2A2A2A2A2A3C
:102500002A2A2A2A2A2A2A2A2A2A2A2A2A2A2A2A2B
:102510002A2A2A2A2A2A2A0D0A000000BBC6C7F343
:10252000CAA45F32B0E05F55415254CAB5D1E92820
:10253000434F3229000000002AC0FDB3CCC3FBB3D7
:10254000C620202009A3BA25730D0A00312E3000C1
:102550002AC0FDB3CCB0E6B1BE09A3BA25730D0AFB
:1025600000000000323032332D362D3132000000B1
:102570002AB7A2B2BCCAB1BCE409A3BA25730D0A3A
:1025800000000000B9CCBCFEBFE2B0E6B1BE09A3BA
:10259000BA5625642E25642E256409092853544D06
:1025A0003332463130785F537464506572697068B5
:1025B0005F447269766572290D0A00002A0D0A00CF
:1025C0002A2A2A2A2A2A2A2A2A2A2A2A2A2A2A2A6B
:1025D0002A2A2A2A2A2A2A2A2A2A2A2A2A2A2A2A5B
:1025E0002A2A2A2A2A2A2A0029B1064A526902439B
:1025F000044B5A6104E0034A52698243014B5A6119
:10260000704700000010024029B1064AD269024317
:10261000044BDA6104E0034AD2698243014BDA6178
:10262000704700000010024029B1064A9269024337
:10263000044B9A6104E0034A92698243014B9A6118
:10264000704700000010024030B500210022002435
:1026500000232D4D6D6805F00C0121B1042905D032
:10266000082923D105E0294D056022E0274D0560AA
:102670001FE0254D6D6805F47012234D6D6805F45B
:102680008034022505EB92421CB9214D554305606B
:102690000BE01D4D6D6805F400351DB11C4D554313
:1026A000056002E0194D5543056002E0174D0560D5
:1026B00000BF00BF144D6D6805F0F0010909154D0C
:1026C0006B5C0568DD4045600F4D6D6805F4E061A9
:1026D000090A104D6B5C4568DD4085600A4D6D68E8
:1026E00005F46051C90A0B4D6B5C4568DD40C5605F
:1026F000054D6D6805F44041890B074D6B5CC5685D
:10270000B5FBF3F5056130BD0010024000127A0000
:1027100000093D00380000204800002070B5044644
:1027200000267E2000EA440040F080050020074992
:102730000860284600F0CEF800F0C6F806460120F2
:102740000349C1F89801304670BD000098812342CA
:102750000080234221B1028842F04002028004E05E
:1027600002884FF6BF731A400280704738B504469E
:102770003C48844237D101210420FFF755FF202037
:10278000ADF8000003208DF8020018208DF803003A
:1027900069463548FEF7BFF820213348FEF78EF929
:1027A0004020ADF8000003208DF8020018208DF8BD
:1027B000030069462C48FEF7AEF840212A48FEF790
:1027C0007DF98020ADF8000003208DF8020018206C
:1027D0008DF8030069462448FEF79DF880212248C1
:1027E000FEF76CF93CE001210820FFF71DFF4FF4D4
:1027F0000050ADF8000003208DF8020018208DF87D
:10280000030069461948FEF786F84FF4005117484F
:10281000FEF754F94FF48040ADF8000003208DF826
:10282000020018208DF8030069461048FEF773F87F
:102830004FF480410D48FEF741F94FF40040ADF8E8
:10284000000003208DF8020018208DF8030069466F
:102850000648FEF760F84FF400410448FEF72EF9F1
:1028600038BD00000030014000080140000C01406C
:102870000246002013890B400BB1012000E000202C
:1028800070470146888970478181704710B50022E2
:10289000028802F441520B884C8823438C882343DE
:1028A000CC8823430C8923434C8923438C892343BD
:1028B000CC8923431A430280838B4FF2FF74234059
:1028C00083830B8A038210BD10B5FF2000F002F84D
:1028D00010BD000010B504462146024800F016F86D
:1028E00010BD00000030014010B504460648844287
:1028F00004D101218014FFF797FE03E00121880332
:10290000FFF782FE10BD00000030014070B50546A3
:102910000E46002405E0601CC4B2C82C01DD002076
:1029200070BD02212846FFF7A3FF0028F3D03146EF
:102930002846FFF7A9FF002405E0601CC4B2C82C9C
:1029400001DD0020ECE701212846FFF791FF002878
:10295000F3D02846FFF795FFC0B2E1E7704770B5A6
:1029600005460C4600262846FFF7D8FE064646EAEE
:102970000401284600F088FB70BD10B500F002F895
:1029800010BD00000CB50020019000903348006895
:1029900040F480303149086000BF3048006800F4DE
:1029A000003000900198401C0190009818B90198DF
:1029B000B0F5A06FF1D12948006800F4003010B1E3
:1029C0000120009001E0002000900098012843D1F0
:1029D0002348006840F0100021490860084600685C
:1029E00020F0030008600846006840F0020008601C
:1029F0001A484068194948600846406848600846D7
:102A0000406840F4806048600846406820F47C10CC
:102A100048600846406840F4E8104860084600688E
:102A200040F08070086000BF0C48006800F0007043
:102A30000028F9D00948406820F0030007494860A1
:102A40000846406840F00200486000BF0348406804
:102A500000F00C000828F9D10CBD00000010024065
:102A60000020024010B500F001F810BD10B51B4861
:102A7000006840B119480068401E1849086010B944
:102A8000012017490870002408E004EB4401154AAE
:102A900002EB810000F045FE601CC4B2042CF4DBA4
:102AA00011480068401C10490860084600686FF033
:102AB0000041884202D100200B49086000F030FE3E
:102AC0000A480078401CC0B2084908700A2803DB95
:102AD0000020087000F020FE10BD0000080000205B
:102AE0000C0000204C0400201000002014000020E6
:102AF00010B51348006840F001001149086008460D
:102B00004068104908400E494860084600680E4970
:102B100008400B4908600846006820F480200860DF
:102B20000846406820F4FE0048604FF41F008860AB
:102B3000FFF723FF4FF000600449086010BD00005C
:102B4000001002400000FFF8FFFFF6FE08ED00E075
:102B500000B59DB001200790002008900F2009903B
:102B600000200A900B900C900D9000900190032093
:102B700002900020039004900590069006200E908D
:102B800000200F90109010201190002012901490AF
:102B90001390159016904FF48050179000201890C5
:102BA0004FF48040199000201A9007A81B90CDF890
:102BB00070D00EA8FDF73CFE01210620FDF71EFE99
:102BC0001DB000BD08B501210802FFF70DFD012170
:102BD0004FF4B470FFF728FD0120ADF8000010207D
:102BE0008DF8030003208DF8020069465848FDF770
:102BF00092FE18208DF8030003208DF802004FF498
:102C00008050ADF8000069465248FDF784FE01206F
:102C1000ADF8000069464F48FDF77DFE4FF4805047
:102C2000ADF8000069464B48FDF775FE2020ADF871
:102C3000000069464848FDF76EFE1020ADF8000020
:102C400069464548FDF767FE18208DF8030003200C
:102C50008DF802004FF48040ADF8000069463E4810
:102C6000FDF759FE4FF40040ADF8000069463A48C0
:102C7000FDF751FE0120ADF8000069463648FDF72A
:102C80004AFE0220ADF8000069463348FDF743FED6
:102C90008020ADF8000069463048FDF73CFE4FF457
:102CA0008070ADF8000069462C48FDF734FE4FF403
:102CB0000070ADF8000069462848FDF72CFE4FF47F
:102CC0008060ADF8000069462448FDF724FE4FF40B
:102CD0000060ADF8000069462048FDF71CFE4FF487
:102CE0008050ADF8000069461C48FDF714FE4FF413
:102CF0000050ADF8000069461848FDF70CFE4FF48F
:102D00008040ADF8000069461448FDF704FE4FF41A
:102D10000040ADF8000069461048FDF7FCFD4FF497
:102D20008070ADF8000069460B48FDF7F4FD4FF4E4
:102D30000070ADF8000069460748FDF7ECFD4FF460
:102D40008060ADF8000069460348FDF7E4FD08BD6A
:102D5000000C014000200140001401400018014017
:102D600010B5FFF72FFFFFF7F3FE322000F010FD44
:102D7000D420FEF7E1F9FEF75DF813498880FEF7ED
:102D800059F811498880FEF755F80F4988800846A0
:102D900080884FF6FF7101EA00200B498880FEF71A
:102DA00049F809498988084307498880FEF709FAE4
:102DB0000020FDF7F7FF0120044908604FF6FF707F
:102DC000FDF7D8FF10BD00006A0500208081214278
:102DD00010B540F225510B4800F074F880B1094855
:102DE00000F02CF9C4B208480078402808DA0748F7
:102DF00005490978445404480078401C0249087089
:102E000010BD0000004C00401C000020E904002020
:102E100010B540F225510B4800F054F880B1094834
:102E200000F00CF9C4B208480078402808DA0748D6
:102E300005490978445404480078401C0249087048
:102E400010BD0000005000401D000020290500209A
:102E500010B500BF40F22551104800F033F858B1CA
:102E60000E48001D0088C1B20D4802880088401C31
:102E70000B4B18800B48815440F22441074800F066
:102E800021F848B105480088C4B20448001D0088F4
:102E9000C4B201200449087010BD00000038014090
:102EA000020000204C0000200000002021B1828997
:102EB00042F40052828104E082894DF6FF731A4089
:102EC0008281704770B5024600240023002500204F
:102ED00040F66A16B14200D100BFC1F3421501F0BD
:102EE0001F03012606FA03F3012D02D19689334010
:102EF00006E0022D02D1168A334001E0968A334063
:102F00000C12012606FA04F41688344013B10CB1F1
:102F1000012000E0002070BDF0B50346002400262B
:102F20000025002040F66A17B94200D100BF1846BC
:102F3000C1F3421401F01F06012707FA06F5012C20
:102F400001D10C3004E0022C01D1103000E014302B
:102F50001AB107682F43076002E00768AF430760B4
:102F6000F0BD00002DE9F04786B005460E4600246E
:102F7000A24600BFA1460027B08900B100BF2F467E
:102F80002C8A4CF6FF700440F08804432C82AC89F4
:102F90004EF6F3100440B088318908437189084324
:102FA0000443AC81AC8A4FF6FF400440B08904432F
:102FB000AC8201A8FFF748FB1F48874202D1DDF829
:102FC00010A001E0DDF80CA0A88900F4004040B199
:102FD0000AEBCA0000EB0A1031684900B0FBF1F8B7
:102FE00007E00AEBCA0000EB0A1031688900B0FB69
:102FF000F1F86420B8FBF0F004012009642101FB22
:103000001089A88900F4004040B1322000EBC900CB
:10301000B0FBF1F000F00700044308E0322000EBC1
:1030200009106421B0FBF1F000F00F0004432C8183
:1030300006B0BDE8F08700000038014001468888EE
:10304000C0F30800704700BFFEE700000020014900
:1030500008607047082C004001480068C0B2704703
:10306000082C004010B5FFF7F7FF20B1FFF7EEFF87
:103070007F2000F001F810BD00F07F01014A1160CF
:1030800070470000002C004070B504460D467E20BD
:1030900000EA44060020064908603046FFF71AFCA3
:1030A0002846FFF717FC01200249C1F8980170BDBE
:1030B000988123420080234280F310887047303883
:1030C0000A2801D2012070470020704700BF7047D6
:1030D0000348C06880F400600149C8607047000080
:1030E000002001400146042901DB0020704701EB6C
:1030F0004100084A02EB80004078012808D10020F6
:1031000001EB4102034B03EB820250700120EDE71B
:103110000020EBE74C04002010B5044604B910BDB4
:10312000012C00D102240120FFF7C6FF09480460EA
:10313000002009490870FFF7BFFF06E000F0B8F86B
:1031400005480078012800D100E0F7E700BF00BF84
:10315000E5E70000080000200C000020F0B5034661
:1031600000224FF0E02675690F4E36680F4FB6FB10
:10317000F7F606FB03F400BF4FF0E026B16910E05C
:103180004FF0E026B06988420BD0884202D20E1A76
:10319000324402E02E1A0E4432440146A24200D3C9
:1031A00000E0EDE700BFF0BD2400002040420F002A
:1031B00070B50546304800EB0514206880470028AC
:1031C0003ED02079052802DA0520207152E02079CE
:1031D0000A2803DA2079401C20714BE0A07A38B924
:1031E0000120A07205EB4501491CC8B200F084FA29
:1031F000208900283EDDE088218988420DDAE088B8
:10320000401C80B2E0802189884233D105EB450122
:10321000C91CC8B200F070FA2CE0E07A002829DD61
:10322000207B401CC0B22073E17A884222DB002060
:10323000207305EB4501491CC8B200F05DFA19E0A6
:103240002079052802DD0520207110E0207918B1D1
:103250002079401E20710AE0A07A012807D10020C1
:10326000A07205EB4501891CC8B200F045FA0020A8
:10327000E080207370BD00007C0400200B48807A41
:103280000A4AD27A904201D1002070470748807ADA
:10329000064A115C1046807A401CC0B290720A281F
:1032A00001DB002090720846EFE70000DC040020FC
:1032B000704710B54FF4A060FEF732FF00F0A0F8A1
:1032C00000F020F800F008F84FF4E13000F098F931
:1032D00000F048F910BD000008B501210802FFF711
:1032E000A3F903208DF8020010208DF80300C0011F
:1032F000ADF8000069460248FDF70DFB08BD00006F
:103300000020014010B500F03BF800F001F810BDBE
:1033100008B501214420FFF787F901211548FDF781
:1033200085FB1020ADF8000048208DF803006946A9
:103330001148FDF7F0FA0820ADF8000048208DF89C
:10334000030069460C48FDF7E6FA0420ADF80000DA
:1033500048208DF8030069460748FDF7DCFA012094
:10336000ADF8000028208DF8030069460348FDF7FA
:10337000D2FA08BD000230000018014000080140E8
:103380000021174A9172D1721173002018E0642154
:10339000144A02EB001211810221124A02EB0012C0
:1033A000117100210F4A02EB001291720D4A02EBDB
:1033B0000012D1720B4A02EB00121173411CC8B209
:1033C0000628E4DB0849074A1160084911610849E9
:1033D0001162084911630849116408491165704771
:1033E000DC0400207C040020550C0008850C00083B
:1033F000B50C0008E50C0008150D0008450D000887
:1034000008B501214820FFF70FF9012000F05EF90F
:10341000022000F05BF920210D48FDF74FFB202131
:103420000C48FDF74BFB03208DF8020010208DF8AF
:1034300003002020ADF8000069460548FDF76BFA4F
:103440002020ADF8000069460248FDF764FA08BD87
:10345000000C01400018014000B587B00121882010
:10346000FFF7E2F84020ADF8040010208DF80700C7
:1034700003208DF8060001A91E48FDF74CFA8020B4
:10348000ADF8040010208DF8070003208DF8060029
:1034900001A91948FDF73FFA0120184908601849A9
:1034A000C1F89C01174800F02FF80020ADF8080083
:1034B0004FF48270ADF80A000020ADF80C00ADF8B2
:1034C0000E00ADF810004FF40070ADF8120010209F
:1034D000ADF814000020ADF816000720ADF8180074
:1034E00002A90848FFF7D2F901210648FFF732F98F
:1034F00007B000BD001C0140000C01409881234230
:10350000008021420030014010B586B004462046BC
:10351000FFF7EAF90020ADF804004FF48270ADF82F
:1035200006000020ADF80800ADF80A00ADF80C0068
:103530004FF40070ADF80E003820ADF810000020F8
:10354000ADF812000720ADF8140001A92046FFF7DE
:103550009DF92046FFF70AF901212046FFF7FAF806
:1035600006B010BD70B5002016E0002100EB40024F
:103570001F4B03EB8202516000EB400203EB82021F
:10358000916000EB400203EB8202517000EB4002BD
:1035900003F82210411CC8B20428E6DB154909686B
:1035A0004FF47A73B1FBF3F2B2F1807F00D31DE0E8
:1035B00022F07F41491E4FF0E023596159170F2334
:1035C000002907DA1C07260E0B4C01F00F052D1FF2
:1035D000665503E01C07250E084C655400BF00210A
:1035E0004FF0E02399610721196100BF70BD000011
:1035F0004C0400202400002018ED00E000E400E06E
:1036000010B586B0044601210420FFF70DF8012112
:103610008803FFF709F84FF40070ADF81400032099
:103620008DF8160018208DF8170005A91F48FDF722
:1036300072F94FF48060ADF8140004208DF8170083
:1036400005A91A48FDF767F901940020ADF80800B4
:10365000ADF80A00ADF80C00ADF810000C20ADF884
:103660000E0001A91248FFF77DFC25208DF800000F
:1036700003208DF801008DF8020001208DF8030071
:103680006846FEF715FD012240F225510848FFF774
:1036900043FC012240F224410548FFF73DFC012193
:1036A0000348FFF703FC06B010BD0000000801400E
:1036B0000038014010B5002404E02046FFF778FDF3
:1036C000601CC4B2062CF8DB10BD0000012806D136
:1036D0000749096881F02001054A116007E00228C6
:1036E00005D10449096881F02001024A1160704740
:1036F0000C0C01400C1801400649C97A054A505487
:103700001146C97A491CC9B2D1720A2901DB0021CC
:10371000D1727047DC04002010B5FFF7CBFF10BD5D
:103720007047416851B14168491E416031B901217A
:1037300041700178012901D1816841607047000022
:1037400070B504460D46042C01DB00BFFEE70120E6
:10375000FFF7B2FC04EB44000C4901EB800045602C
:1037600004EB440001EB80008560002004EB440181
:10377000064A02EB81014870012004EB440102F883
:1037800021000020FFF798FC70BD00004C040020D1
:1037900010B504462046FFF7BFFC10BD10B5044627
:1037A0002046FFF7DBFC10BD00BF054A128802F07F
:1037B0004002002AF9D0C2B2014B1B1D1A8070478B
:1037C0000038014086B0FFF774FDFEF747FEFEF7B4
:1037D000FDFDFFF7C5FA1F20344908803448828870
:1037E00034A103A8FCF72AFD35A018210B46C822F6
:1037F000CDE9001028211E20FDF764FC33A0102124
:103800000B46C822CDE9001046211E20FDF75AFCC8
:1038100031A010210B46C822CDE900105A211E20EC
:10382000FDF750FC03A810210B46C822CDE900107B
:103830006E211E20FDF746FC28A00C210B46C82255
:10384000CDE9001082211E20FDF73CFCFFF704FEAD
:10385000FEF77AFD4120FDF787FC4FF496710020BA
:10386000FFF76EFF4FF4FA710120FFF769FF1BE0CD
:10387000FFF71EFD0020FFF735FC10B10120FFF718
:1038800025FF0120FFF72EFC08B1FDF72DF9FFF70A
:10389000F5FC0446002C07DD012C02D0042C02D1DB
:1038A00000E000E000BF00BFE2E7000020000020D1
:1038B0006A0500204C43442049443A2530345800DE
:1038C00057534E45505F5630310000005243353259
:1038D0003220544553540000312E30003230323300
:1038E0002D362D31320000000000000000000000E5
:1038F00000000000000000003F4000000000000049
:1039000000003000400030004000000009000BC003
:103910003D000BC03D00090018C024407FE022405C
:1039200031800000180024C01B000D80324001804F
:1039300003801C4027401C800740004010006000AE
:1039400000000000000000000000000000001F80D8
:10395000204040200000402020401F800000000048
:10396000090006001F800600090000000400040092
:103970003F80040004000000001000600000000010
:103980000000000004000400040004000400000023
:10399000000000400000000000000000002001C006
:1039A00006003800400000001F80204020402040DA
:1039B0001F800000000010403FC0004000000000D9
:1039C00018C02140224024401840000010802040B0
:1039D000244024401B80000002000D0011003FC065
:1039E000014000003C80244024402440238000000B
:1039F0001F80244024403440038000003000200019
:103A000027C03800200000001B80244024402440B0
:103A10001B8000001C0022C0224022401F800000AA
:103A2000000000000840000000000000000000004E
:103A30000460000000000000000004000A00110003
:103A40002080404009000900090009000900000029
:103A500000004040208011000A00040018002000EF
:103A600023402400180000001F80204027402940E8
:103A70001F400000004007C039000F0001C0004097
:103A800020403FC0244024401B8000001F80204075
:103A9000204020403080000020403FC02040204097
:103AA0001F80000020403FC024402E4030C0000056
:103AB00020403FC024402E00300000000F00108046
:103AC000204022403380020020403FC00400040018
:103AD0003FC02040204020403FC020402040000008
:103AE0000060202020203FC02000200020403FC058
:103AF00024400B0030C0204020403FC02040004008
:103B0000004000C03FC03C0003C03C003FC000007C
:103B100020403FC00C4023003FC020001F802040B9
:103B2000204020401F80000020403FC0244024004F
:103B3000180000001F802140214020E01FA000004D
:103B400020403FC02440260019C0004018C0244037
:103B50002440224031800000300020403FC02040FF
:103B60003000000020003F80004000403F802000E7
:103B700020003E0001C0070038002000380007C0C8
:103B80003C0007C038000000204039C0060039C0A2
:103B9000204000002000384007C0384020000000CE
:103BA000304021C02640384020C000000000000006
:103BB0007FE0402040200000000070000C000380E7
:103BC000004000000000402040207FE00000000096
:103BD0000000200040002000000000000010001045
:103BE0000010001000100010000000004000000055
:103BF00000000000000002800540054003C00040B6
:103C000020003FC004400440038000000000038007
:103C100004400440064000000000038004402440AB
:103C20003FC0004000000380054005400340000005
:103C3000000004401FC0244024402000000002E097
:103C4000055005500650042020403FC004400400A9
:103C500003C000400000044027C0004000000000F6
:103C600000100010041027E00000000020403FC0BA
:103C70000140070004C00440204020403FC00040F5
:103C80000040000007C0040007C0040003C000009B
:103C9000044007C00440040003C00040000003804B
:103CA0000440044003800000041007F00450044066
:103CB00003800000000003800440045007F000105F
:103CC000044007C002400400040000000000064059
:103CD0000540054004C00000000004001F800440AF
:103CE00000400000040007800040044007C000407E
:103CF0000400070004C0018006000400060001C0A3
:103D0000070001C006000000044006C0010006C014
:103D1000044000000410071004E0018006000400C5
:103D20000000044005C00640044000000000000000
:103D300004007BE040200000000000000000FFF0D5
:103D400000000000000040207BE0040000000000B4
:103D500040008000400020002000400000000000E3
:103D60000000000000000000000000000000000053
:103D700000001FCC000C0000000000000000080044
:103D8000300060000800300060000000022003FCEA
:103D90001E20022003FC1E200220000000000E183E
:103DA00011043FFF10840C78000000000F00108405
:103DB0000F3800C0077818840078000000780F845E
:103DC00010C411240E9800E4008400080800680064
:103DD0007000000000000000000000000000000073
:103DE000000007E018182004400200000000400214
:103DF0002004181807E00000000000000240024004
:103E000001800FF00180024002400000008000802D
:103E100000800FF800800080008000000001000D8D
:103E2000000E000000000000000000000000008004
:103E30000080008000800080008000800000000C76
:103E4000000C000000000000000000000000000660
:103E5000001800600180060018002000000007F034
:103E6000080810041004080807F000000000080407
:103E700008041FFC000400040000000000000E0CF9
:103E800010141024104411840E0C000000000C18B3
:103E900010041104110412880C700000000000E0EE
:103EA0000320042408241FFC0024000000001F98A5
:103EB000108411041104108810700000000007F035
:103EC00008881104110418880070000000001C000C
:103ED000100010FC13001C001000000000000E3841
:103EE00011441084108411440E38000000000700B3
:103EF000088C10441044088807F0000000000000FF
:103F00000000030C030C0000000000000000000093
:103F10000001010600000000000000000000008019
:103F200001400220041008081004000002200220B2
:103F300002200220022002200220000000001004C3
:103F400008080410022001400080000000000E005C
:103F50001200100C106C10800F00000003E00C1811
:103F600013E4142417C4082807D000000004003C00
:103F700003C41C40074000E4001C000410041FFCA4
:103F80001104110411040E880070000003E00C18E5
:103F900010041004100410081C10000010041FFC72
:103FA000100410041004080807F0000010041FFC9F
:103FB0001104110417C410040818000010041FFC99
:103FC0001104110017C010000800000003E00C18D5
:103FD0001004100410441C780040000010041FFC62
:103FE00010840080008010841FFC10040000100466
:103FF00010041FFC10041004000000000003000166
:10400000100110011FFE10001000000010041FFC22
:10401000110403801464181C1004000010041FFC19
:104020001004000400040004000C000010041FFC35
:104030001F0000FC1F001FFC1004000010041FFCE8
:104040000C04030000E010181FFC100007F0080823
:10405000100410041004080807F0000010041FFCEE
:1040600010841080108010800F00000007F00818E6
:1040700010241024101C080A07F2000010041FFC72
:104080001104110011C011300E0C000400000E1CB0
:1040900011041084108410441C3800001800100013
:1040A00010041FFC100410001800000010001FF87E
:1040B00010040004000410041FF8100010001E007B
:1040C00011E0001C007013801C0010001FC0103C89
:1040D00000E01F0000E0103C1FC000001004180C9E
:1040E000163401C001C01634180C100410001C0056
:1040F000130400FC13041C00100000000804101C32
:104100001064108413041C04101800000000000048
:1041100000007FFE4002400240020000000030002C
:104120000C0003800060001C00030000000040023F
:10413000400240027FFE000000000000000000007E
:10414000200040004000400020000000000100016D
:104150000001000100010001000100010000400019
:104160004000200000000000000000000000009857
:10417000012401440144014400FC000410001FFC20
:104180000088010401040088007000000000007035
:104190000088010401040104008800000000007090
:1041A00000880104010411081FFC0004000000F84D
:1041B000014401440144014400C80000000001041E
:1041C00001040FFC1104110411001800000000D6B6
:1041D00001290129012901C90106000010041FFC61
:1041E000008401000100010400FC0004000001043F
:1041F000190419FC00040004000000000000000382
:1042000000010101190119FE0000000010041FFC4B
:104210000024004001B4010C01040000000010045F
:1042200010041FFC0004000400000000010401FC55
:104230000104010001FC0104010000FC010401FC77
:10424000008401000100010400FC0004000000F8EB
:10425000010401040104010400F80000010101FF50
:104260000085010401040088007000000000007057
:10427000008801040104010501FF0001010401049B
:1042800001FC00840104010001800000000000CC5A
:1042900001240124012401240198000000000100F0
:1042A000010007F80104010400000000010001F80A
:1042B000000400040004010801FC00040100018066
:1042C0000170000C001001600180010001F0010C80
:1042D000003001C00030010C01F0010000000104B9
:1042E000018C00740170018C010400000101018146
:1042F0000171000E001801600180010000000184BE
:10430000010C013401440184010C00000000000094
:104310000000000001003EFC4002400200000000DE
:1043200000000000FFFF000000000000000040024D
:1043300040023EFC010000000000000000006000A0
:1043400080008000400040002000200000000000AD
:10435000000000000000000000000000000000005D
:10436000000000000000000000000000000000004D
:104370000000000000000000000000000000000F2E
:1043800080380FFE380F8038000000000000000069
:104390000000000000000000000001000006000016
:1043A0000C00003800003100000600000C0000384E
:1043B0000000300000000000000000006180006785
:1043C000F807F980006180006180006180006180F1
:1043D0000067F807F980006180000000000000001D
:1043E000000001C0E003E0F00630080418081FFFD9
:1043F000FE040E080787F00381E0000000000000C3
:1044000001F000060C00040408060C7001F9C0005D
:104410000E00003BE000EC18070808040C1800032D
:10442000E00000000001E00007F003F818041C0899
:1044300004170807E1D003C0E00023B0003C0800E7
:104440002008000010000000000000010000310002
:10445000003200001C00000000000000000000000E
:10446000000000000000000000000000000000004C
:104470000000000000000000000000007F0001FFBD
:10448000C00780F00C00181000042000020000009B
:104490000000002000021000040C00180780F0014A
:1044A000FFC0007F000000000000000000000000CE
:1044B00000000000000000004200006600006600EE
:1044C000003C0000180003FFC0001800003C000082
:1044D00066000066000042000000000008000008BE
:1044E0000000080000080000080001FFC0000800EC
:1044F000000800000800000800000800000000009C
:10450000000100003100003200001C00000000002B
:10451000000000000000000000000000000000009B
:10452000000000000800000800000800000800006B
:10453000080000080000080000080000080000084B
:1045400000000000000000000000000038000038FB
:104550000000380000000000000000000000000023
:104560000000000000000000000000000006000045
:104570001C000070000180000E0000380000C00028
:104580000700001C000030000000000000000000D8
:104590007F8001FFE003807006001804000804001B
:1045A0000806001803807001FFE0007F8000000013
:1045B00000000000000001000801000801000803DD
:1045C000FFF807FFF80000080000080000080000DE
:1045D0000000000000000001C03802C0580400982C
:1045E000040118040218040418061C1803F8180122
:1045F000E0F800000000000000000001C0E003C07F
:10460000F004000804080804080806180803F41851
:1046100001E7F00001E000000000000000000000E1
:104620000300000D0000110000610000810803017B
:104630000807FFF80FFFF80001080001080000005C
:104640000000000000E007FCD0060808061008067D
:104650001008061008061838060FF00607C00000FC
:1046600000000000000000003F8001FFE0038430F4
:104670000208180410080410080410080718100392
:104680000FF00007C000000000000000000003C0A1
:10469000000700000600000600F80607F8061800EC
:1046A00006E0000700000600000000000000000116
:1046B000E1E003F7F0063410041808041808040CAD
:1046C00008040C0806161803F3F001C1E00000000E
:1046D00000000000F80003FC300306380402080460
:1046E00002080402080404100308F001FFC0007F60
:1046F00000000000000000000000000000000000BA
:1047000000000000703800703800703800000000B1
:104710000000000000000000000000000000000099
:104720000000000000000000301A00301C000000F3
:104730000000000000000000000000000000000079
:10474000000000080000140000220000410000806A
:104750008001004002002004001008000800000052
:1047600000000000210000210000210000210000C5
:104770002100002100002100002100002100002173
:104780000000000000000000000008000804001005
:104790000200200100400080800041000022000053
:1047A000140000080000000000000003C00004C066
:1047B00000040000080038080F3808083808100006
:1047C0000C300007E00003C0000000000000000003
:1047D0003F8000FFE0038070020F1006708804C065
:1047E00088048308047F8802C09003012000FE40F3
:1047F0000000080000180001F8003E0801C2000790
:10480000020007E20000FE00001FC80001F80000DF
:104810003800000804000807FFF807FFF80408083C
:1048200004080804080804080806180803F4180116
:10483000E7F00001E0000000000000003F8001FF01
:10484000E003807002001804000804000804000857
:104850000400100600200780C000000004000807C4
:10486000FFF807FFF804000804000804000804002B
:104870001802001003807001FFE0007F800000003C
:1048800004000807FFF807FFF804080804080804F4
:104890000808040808043E0804000806001801007F
:1048A0006000000004000807FFF807FFF80408088C
:1048B000040800040800040800043E000600000686
:1048C0000000018000000000000000003F8001FFA8
:1048D000E0038070060018040008040208040208BF
:1048E0000203F00783F00002000002000400080742
:1048F000FFF807FFF8040808000800000800000897
:104900000000080004080807FFF807FFF804000883
:10491000000000000000040008040008040008076C
:10492000FFF807FFF804000804000804000800006E
:104930000000000000000000000600000700000169
:1049400004000104000104000307FFFE07FFFC044C
:10495000000004000004000004000807FFF807FF3F
:10496000F8040C08001800003E0004C7800503C8C6
:104970000600F804003804001800000804000807C6
:10498000FFF807FFF8040008000008000008000016
:104990000800000800000800001800006000000087
:1049A00004000807FFF807800807FC00007FC0002C
:1049B00003F80007C000780007800807FFF807FF2A
:1049C000F804000804000807FFF807000803C00007
:1049D00000E000003800001E000007000001C004D5
:1049E00000F007FFF8040000000000007F8001FFD6
:1049F000E003807006001804000804000806001890
:104A000003003001FFE0007F800000000400080781
:104A1000FFF807FFF8040408040400040400040479
:104A200000040400060C0003F80001F00000000080
:104A3000000000007F8001FFE00380700600880412
:104A400000880400C806003C03003E01FFE6007F2A
:104A50008400000004000807FFF807FFF8040808B6
:104A6000040800040C00040F00040BC00610F0033F
:104A7000F03801E00800000800000001E0F803F051
:104A800030063010041808041808040C08040C0838
:104A90000206180207F00781E0000000018000060E
:104AA000000004000004000004000807FFF807FFEE
:104AB000F804000804000004000006000001800063
:104AC00004000007FFE007FFF004001800000800E2
:104AD000000800000800000800000804001007FF9C
:104AE000E004000004000006000007E00007FE00EC
:104AF000041FE00001F80000380001E0043E000758
:104B0000C00006000004000004000007E00007FFEA
:104B1000C0041FF80007C007F80007FF80043FF833
:104B20000007C004F80007000004000000000004B3
:104B3000000806001807C07805F1C8003E00001FF5
:104B4000800463E80780F8060018040008000000ED
:104B500004000006000007800007E008047C08004D
:104B60001FF80007F800180804E008070000060016
:104B7000000400000000000100080600380400F8EE
:104B80000403E8040F08047C0805F00807C00807C0
:104B90000018040060000000000000000000000099
:104BA000000000000000003FFFFE20000220000285
:104BB000200002200002200002000000000000008F
:104BC000000008000007000000C0000038000006D8
:104BD000000001C000003000000E000001000000D5
:104BE000000000000000200002200002200002203F
:104BF00000022000023FFFFE000000000000000055
:104C0000000000000000000000000000000800009C
:104C100010000030000020000030000010000008EC
:104C20000000000000000000000001000001000082
:104C3000010000010000010000010000010000016E
:104C40000000010000010000010000010000000060
:104C500000000000002000002000001000001000F4
:104C60000000000000000000000000000000000044
:104C70000000000000F00019F8001B1800220800D6
:104C80002608002408002410003FF8001FF8000048
:104C90000800001800000004000007FFF80FFFF0F4
:104CA0000018180010080020080020080030180024
:104CB0001FF0000FC00000000000000007C0001F30
:104CC000F0001830002008002008002008003C08F0
:104CD000001C100000600000000000000000000048
:104CE00007C0001FF000381800200800200800202E
:104CF0000804101007FFF80FFFF00000100000007C
:104D00000000000000000007C0001FF0001230008B
:104D10002218002208002208003208001E10000E8F
:104D200020000000000000002000002008002008F3
:104D300001FFF803FFF806200804200804200807F4
:104D4000200003000000000000000000000E000E24
:104D50006E001FF30031B10020B10020B10031918D
:104D6000001F13002E1E00200E0030000000000463
:104D7000000807FFF80FFFF80010080020000020CF
:104D800000002008003FF8001FF8000008000000A5
:104D90000000000000000020080020080020080695
:104DA0003FF8063FF8000008000008000008000077
:104DB00000000000000000000000000003000003ED
:104DC000002001002001002003063FFE063FFC00FA
:104DD000000000000000000000000004000807FFC1
:104DE000F80FFFF8000188000300002FC00038F81A
:104DF000002038002008000008000000000000002B
:104E0000000004000804000804000807FFF80FFF72
:104E1000F800000800000800000800000000000082
:104E2000002008003FF8003FF800100800200000B4
:104E30003FF8003FF8001008002000003FF8003F56
:104E4000F8000008000000002008003FF8003FF8CC
:104E5000001008001000002000002008003FF800AB
:104E60001FF80000080000000000000007C0000F4D
:104E7000F00018300030080020080020080030083A
:104E8000001830000FF00007C00000000000000014
:104E90002001003FFF003FFF00101100200900200B
:104EA00008002008003038001FF0000FC00000008C
:104EB0000000000007C0001FF000381800200800A4
:104EC0002008002009001011001FFF003FFF000014
:104ED00001000000002008002008002008003FF822
:104EE000003FF8000808001008002008002000001B
:104EF0003000003000000000000000000000000C46
:104F000078001E18003308002308002108002188BB
:104F10000021980030F00038600000000000000020
:104F2000200000200000200000FFF003FFF8002018
:104F300008002008002008000030000000000000E9
:104F4000000000002000003FF0007FF80000180083
:104F50000008000008002010003FF8007FF000006B
:104F600010000000000000002000003000003C00A5
:104F7000003F800023F000007800007000238000D4
:104F80003C00003000002000002000003C00003FFA
:104F9000E00023F80000E0002700003E00003FE0B2
:104FA0000021F80001E0003E0000200000000000A9
:104FB0002008002008003838003E680027800003E1
:104FC000C8002CF800383800201800200800000025
:104FD000000000002000003003003C01003F83007F
:104FE00023EC000070002380003C00002000002023
:104FF0000000000000000000000000380800203819
:105000000020F80023E8002F88003E080038080040
:1050100020180000700000000000000000000000E8
:10502000000000000000000008000014001FF7FC52
:105030003000062000020000000000000000000018
:105040000000000000000000000000000000FFFF62
:10505000FF00000000000000000000000000000051
:105060000000000000002000023000061FF7FC00D6
:105070001400000800000000000000000000000014
:105080000000000000000018000060000040000068
:105090004000002000001000000800000400000490
:1050A00000000C0000100000303132333435363748
:1050B000383941424344454640305800303132335C
:1050C000343536373839616263646566403078005C
:1050D00004000008000000000000000200010000C1
:1050E0001000000004510008000000204C000000E7
:1050F0006C010008505100084C0000208C0B00008F
:105100008801000800000000AA0000000000000064
:10511000000000000000000000000000000000008F
:10512000000000000000FFFF00A24A040000000091
:105130000000000001020304060708090000000047
:105140000102030401020304060708090204060819
:0400000508000131BD
:00000001FF
