:020000040800F2
:10000000B8060020CD0100087D070008E1060008C1
:100010007907000887020008010A000800000000B4
:100020000000000000000000000000002908000897
:100030008B020008000000000508000815090008F0
:10004000E7010008E7010008E7010008E7010008F0
:10005000E7010008E70100088D020008E701000839
:10006000B1020008D9020008FD020008E7010008FB
:10007000E7010008E7010008E7010008E7010008C0
:10008000E7010008E7010008E7010008E7010008B0
:10009000E7010008E7010008E7010008E7010008A0
:1000A000E7010008E7010008E7010008E701000890
:1000B000E7010008E7010008E7010008E701000880
:1000C000E7010008E7010008E7010008E701000870
:1000D000E7010008E7010008E7010008E701000860
:1000E000E7010008E7010008E7010008E701000850
:1000F000E7010008E7010008E7010008E701000840
:10010000E7010008E7010008E7010008E70100082F
:10011000E7010008E7010008E7010008E70100081F
:10012000E7010008E7010008E7010008E70100080F
:1001300000F002F800F03AF80AA090E8000C8244BF
:100140008344AAF10107DA4501D100F02FF8AFF29C
:10015000090EBAE80F0013F0010F18BFFB1A43F0A5
:1001600001031847580A0000780A0000103A24BF1B
:1001700078C878C1FAD8520724BF30C830C144BF0C
:1001800004680C607047000000230024002500264E
:10019000103A28BF78C1FBD8520728BF30C148BFEA
:1001A0000B6070471FB51FBD10B510BD00F031F8D2
:1001B0001146FFF7F7FF00F0F9FC00F04FF803B429
:1001C000FFF7F2FF03BC00F057F800000948804732
:1001D00009480047FEE7FEE7FEE7FEE7FEE7FEE729
:1001E000FEE7FEE7FEE7FEE704480549054A064B41
:1001F00070470000A109000831010008B800002084
:10020000B8060020B8020020B802002070477047EE
:100210007047754600F02CF8AE4605006946534617
:1002200020F00700854618B020B5FFF7DDFFBDE8D8
:1002300020404FF000064FF000074FF000084FF04D
:10024000000B21F00701AC46ACE8C009ACE8C009DE
:10025000ACE8C009ACE8C0098D46704710B504464B
:10026000AFF300802046BDE81040FFF7A8BF0000B4
:10027000004870475400002001491820ABBEFEE73B
:1002800026000200704700BFFEE7704710B501204E
:1002900000F04CF840B105480068012801D100F099
:1002A000B1FB012000F03CF810BD0000000121422C
:1002B00010B5042000F03AF858B10648006828B993
:1002C000012000F04DFC022000F04AFC042000F068
:1002D00027F810BD0801234210B5082000F026F8C9
:1002E00040B10548006810B9022000F039FC082030
:1002F00000F016F810BD00000C01234210B51020CC
:1003000000F014F840B10548006810B9012000F071
:1003100027FC102000F004F810BD0000100123425B
:1003200001490860704700001404014001460020A4
:100330000022074B1B6803EA0102054B14331B68BC
:100340000B4013B10AB1012000E00020704700000B
:1003500000040140002123498279002A3AD00A464C
:10036000126803689A430B461A600A1D12680368F4
:100370009A430B1D1A60027911440A6803681A43F4
:100380000A60184A0832126803689A43154B08330A
:100390001A601A1D126803689A43124B0C331A60D4
:1003A0004279102A0ED11A1F126803681A430D4BA6
:1003B00008331A601A1D126803681A43094B0C337C
:1003C0001A600DE00749427911440A6803681A432C
:1003D0000A6005E0027911440A6803689A430A60DA
:1003E00070470000000401400EB50121084600F0EE
:1003F0000BFA0021084600F07DF80221042000F0ED
:1004000079F80321042000F075F80421084600F073
:1004100071F80120019000208DF8080008208DF867
:10042000090001208DF80A0001A8FFF793FF1020B2
:10043000019000208DF808000C208DF809000120A3
:100440008DF80A0001A8FFF785FF08200190002021
:100450008DF808000C208DF8090001208DF80A00A5
:1004600001A8FFF777FF0420019000208DF8080015
:100470000C208DF8090001208DF80A0001A8FFF773
:1004800069FF06208DF8000003208DF801008DF82B
:10049000020001208DF80300684600F071F9082081
:1004A0008DF8000003208DF801008DF80200012076
:1004B0008DF80300684600F063F909208DF800000C
:1004C00003208DF801008DF8020001208DF8030053
:1004D000684600F055F90A208DF8000003208DF8D9
:1004E00001008DF8020001208DF80300684600F03D
:1004F00047F90EBD30B500228B071C0F0F2303FAFE
:1005000004F20B4B8C1053F824309343084C8D109D
:1005100044F8253023468C1053F824308C07240FE0
:1005200000FA04F42343024C8D1044F8253030BD0A
:10053000080001402DE9F041024600250026002078
:1005400000230024002791F803C00CF00F0591F858
:1005500003C00CF0100CBCF1000F03D091F802C0E6
:100560004CEA050591F800C0BCF1000F31D01468C9
:1005700000202BE04FF0010C0CFA00F3B1F800C0A2
:100580000CEA03069E4220D183004FF00F0C0CFAB8
:1005900003F7BC4305FA03FC4CEA040491F803C0DA
:1005A000BCF1280F06D14FF0010C0CFA00FCC2F888
:1005B00014C00AE091F803C0BCF1480F05D14FF018
:1005C000010C0CFA00FCC2F810C0401C0828D1D362
:1005D0001460B1F800C0BCF1FF0F34DD5468002096
:1005E0002EE000F1080C4FF0010808FA0CF3B1F806
:1005F00000C00CEA03069E4221D183004FF00F0C8D
:100600000CFA03F7BC4305FA03FC4CEA040491F826
:1006100003C0BCF1280F05D100F1080C08FA0CF852
:10062000C2F8148091F803C0BCF1480F07D100F163
:10063000080C4FF0010808FA0CF8C2F81080401CB2
:100640000828CED35460BDE8F0810000F0B50A461A
:10065000002300240021002500F00046B6F1004FE1
:1006600002D11D4EF16901E01B4E7168C0F30345D4
:1006700083B200F44016B6F5401F08D121F0706136
:10068000154E766826F07066134F7E6012E000F417
:100690008016B6F5801F06D1032606FA05F4A1439D
:1006A00041F0706106E0460D360103FA06F6B143EB
:1006B00041F0706122B1460D360103FA06F631436E
:1006C00000F00046B6F1004F02D1034EF16101E0A7
:1006D000014E7160F0BD00000000014001617047F3
:1006E0000EE00849C96881F40061064AD160002023
:1006F00001E0411C88B242F210718842F9DB00BF70
:10070000EFE700000020014008B50121442000F07F
:100710007BF801211548FFF799FF0120ADF8000093
:1007200028208DF8030069461148FFF703FF1020C9
:10073000ADF8000048208DF8030069460D48FFF72A
:10074000F9FE0820ADF8000048208DF80300694646
:100750000848FFF7EFFE0420ADF8000048208DF8B0
:10076000030069460348FFF7E5FE08BD00023000BC
:10077000000801400018014000BFFEE7704700007C
:1007800070B5002100230F22C47804B3154C2468EF
:1007900004F4E064C4F5E064210AC1F10403CA4032
:1007A000447804FA03F184781440214309010E4C83
:1007B0000678A155047804F01F050124AC400578A3
:1007C0006D11AD0005F1E025C5F8004109E00478A0
:1007D00004F01F050124AC40044D0678761145F85D
:1007E000264070BD0CED00E000E400E080E100E098
:1007F00002490143024A1160704700000000FA05F7
:100800000CED00E07047000029B1064A92690243EE
:10081000044B9A6104E0034A92698243014B9A6156
:100820007047000000100240704710B500F002F859
:1008300010BD00000CB50020019000903348006806
:1008400040F480303149086000BF3048006800F44F
:10085000003000900198401C0190009818B9019850
:10086000B0F5A06FF1D12948006800F4003010B154
:100870000120009001E0002000900098012843D161
:100880002348006840F010002149086008460068CD
:1008900020F0030008600846006840F0020008608D
:1008A0001A48406819494860084640684860084648
:1008B000406840F4806048600846406820F47C103E
:1008C00048600846406840F4E81048600846006800
:1008D00040F08070086000BF0C48006800F00070B5
:1008E0000028F9D00948406820F003000749486013
:1008F0000846406840F00200486000BF0348406876
:1009000000F00C000828F9D10CBD000000100240D6
:100910000020024010B500F001F810BD10B51B48D2
:10092000006840B119480068401E1849086010B9B5
:10093000012017490870002408E004EB4401154A1F
:1009400002EB810000F024F9601CC4B2042CF4DB3B
:1009500011480068401C10490860084600686FF0A4
:100960000041884202D100200B49086000F00FF9D5
:100970000A480078401CC0B2084908700A2803DB06
:100980000020087000F002F910BD000000000020F7
:100990000400002024000020080000200C0000209B
:1009A00010B51348006840F001001149086008467E
:1009B0004068104908400E494860084600680E49E2
:1009C00008400B4908600846006820F48020086051
:1009D0000846406820F4FE0048604FF41F0088601D
:1009E000FFF723FF4FF000600449086010BD0000CE
:1009F000001002400000FFF8FFFFF6FE08ED00E0E7
:100A000000BFFEE70348C06880F400600149C86089
:100A10007047000000200140704710B54FF4A060FF
:100A2000FFF7E6FE00F022F800F004F800F04AF8C4
:100A300010BD000008B501210802FFF7E5FE032004
:100A40008DF8020010208DF80300C001ADF8000001
:100A500069460248FFF76EFD08BD00000020014016
:100A600010B5FFF751FEFFF7BFFC10BD08B501211F
:100A70004820FFF7C9FE012000F072F8022000F0C4
:100A80006FF820210D48FFF729FE20210C48FFF7C1
:100A900025FE03208DF8020010208DF80300202091
:100AA000ADF8000069460548FFF744FD2020ADF889
:100AB000000069460248FFF73DFD08BD000C0140FB
:100AC0000018014070B5002016E0002100EB400244
:100AD0001F4B03EB8202516000EB400203EB8202EA
:100AE000916000EB400203EB8202517000EB400288
:100AF00003F82210411CC8B20428E6DB1549096836
:100B00004FF47A73B1FBF3F2B2F1807F00D31DE0B2
:100B100022F07F41491E4FF0E023596159170F23FE
:100B2000002907DA1C07260E0B4C01F00F052D1FBC
:100B3000665503E01C07250E084C655400BF0021D4
:100B40004FF0E02399610721196100BF70BD0000DB
:100B5000240000201000002018ED00E000E400E078
:100B6000012806D10749096881F02001054A116072
:100B700007E0022805D10449096881F02001024AF2
:100B8000116070470C0C01400C1801407047704711
:100B9000416851B14168491E416031B9012141703C
:100BA0000178012901D1816841607047FFF735FF65
:100BB000FFF756FF01E0FFF72FFFFCE7DC0B000813
:100BC00000000020240000006C010008000C000858
:100BD00024000020940600008801000800000000A6
:100BE00000000000000000000000000000A24A0415
:100BF00000000000000000000102030406070809CD
:0400000508000131BD
:00000001FF
