:020000040800F2
:1000000000110020450100087D07000831060008A6
:10001000790700082D020008851100080000000083
:10002000000000000000000000000000610B00085C
:100030008304000800000000050800084D0C0008BB
:10004000A11100085F0100085F0100085F010008BE
:100050005F0100085F0100085F0100085F01000800
:100060005F0100085F0100085F0100085F010008F0
:10007000310200085F0100085F0100085F0100080D
:100080005F0100085F0100085F0100085F010008D0
:100090005F0100085F0100085F0100085F010008C0
:1000A0005F0100085F0100085F0100085F010008B0
:1000B0005F0100085F0100085F0100085F010008A0
:1000C0005F0100085F0100085F0100085F01000890
:1000D0005F0100085F0100085F010008390D00089A
:1000E0005F0100085F0100085F0100085F01000870
:1000F0005F0100085F0100085F0100085F01000860
:100100005F0100085F0100085F0100085F0100084F
:100110005F0100085F0100085F0100085F0100083F
:100120005F0100085F0100085F0100085F0100082F
:10013000DFF80CD000F068F800480047651A0008A6
:10014000001100200648804706480047FEE7FEE70A
:10015000FEE7FEE7FEE7FEE7FEE7FEE7FEE7FEE777
:10016000D90C0008310100082DE9F05F0546002098
:1001700092469B4688460646814640241BE0284618
:1001800041464746224600F02FF853465A46C01AC9
:10019000914110D311461846224600F016F82D1A48
:1001A00067EB01084F4622460120002100F00DF8C0
:1001B00017EB00094E41201EA4F10104DFDC484684
:1001C00031462A464346BDE8F09F202A04DB203A08
:1001D00000FA02F1002070479140C2F1200320FA9A
:1001E00003F3194390407047202A04DB203A21FA98
:1001F00002F00021704721FA02F3D040C2F1200240
:100200009140084319467047064C074D06E0E068E8
:1002100040F0010394E8070098471034AC42F6D34D
:10022000FFF78AFFAC1B0008CC1B000800BFFEE7ED
:1002300010B5202000F0E6F818B10021034800F0C6
:1002400015F8202000F004F810BD00001C0002404A
:1002500000F0805111B10349086001E00249486093
:1002600070470000040402400000024021B102680F
:1002700042F00102026004E002684FF6FE731A4089
:100280000260704701684FF6FE7211400160002164
:10029000016041608160C1604B49884208D14A4990
:1002A0000839496841F00F01474A083A51608AE02D
:1002B00045491431884208D143490839496841F019
:1002C000F001414A083A51607DE03F4928318842B7
:1002D00008D13D490839496841F470613A4A083A01
:1002E000516070E038493C31884208D136490839BC
:1002F000496841F47041344A083A516063E0324938
:100300005031884208D130490839496841F4702198
:100310002D4A083A516056E02B496431884208D191
:1003200029490839496841F47001274A083A51605F
:1003300049E025497831884208D12349083949687C
:1003400041F07061204A083A51603CE01F49884200
:1003500006D1011F096841F00F01021F116032E050
:100360001A491431884208D11849091F096841F017
:10037000F001164A121F116025E014492831884205
:1003800008D11249091F096841F470610F4A121F10
:10039000116018E00D493C31884208D10B49091F12
:1003A000096841F47041094A121F11600BE00749C6
:1003B0005031884207D10549091F096841F470216D
:1003C000024A121F116070470800024008040240F0
:1003D0000146486880B2704701460020002201F0C3
:1003E000805313B1054B1A6801E0054B1A6802EA05
:1003F00001030BB1012000E000207047000402401F
:100400000000024001460020002201F0805313B199
:10041000054B1A6801E0054B1A6802EA01030BB1AB
:10042000012000E00020704700040240000002406C
:100430001AB103680B43036002E003688B43036057
:10044000704710B50022026847F6F0739A430C6AB1
:100450008B6823430C6923434C6923438C692343F2
:10046000CC6923434C6A23438C6A23431A430260BA
:10047000CB6843600B6883604B68C36010BD41600C
:10048000704770472DE9F041024600250026002004
:1004900000230024002791F803C00CF00F0591F809
:1004A00003C00CF0100CBCF1000F03D091F802C097
:1004B0004CEA050591F800C0BCF1000F31D014687A
:1004C00000202BE04FF0010C0CFA00F3B1F800C053
:1004D0000CEA03069E4220D183004FF00F0C0CFA69
:1004E00003F7BC4305FA03FC4CEA040491F803C08B
:1004F000BCF1280F06D14FF0010C0CFA00FCC2F839
:1005000014C00AE091F803C0BCF1480F05D14FF0C8
:10051000010C0CFA00FCC2F810C0401C0828D1D312
:100520001460B1F800C0BCF1FF0F34DD5468002046
:100530002EE000F1080C4FF0010808FA0CF3B1F8B6
:1005400000C00CEA03069E4221D183004FF00F0C3D
:100550000CFA03F7BC4305FA03FC4CEA040491F8D7
:1005600003C0BCF1280F05D100F1080C08FA0CF803
:10057000C2F8148091F803C0BCF1480F07D100F114
:10058000080C4FF0010808FA0CF8C2F81080401C63
:100590000828CED35460BDE8F0810000F0B50A46CB
:1005A000002300240021002500F00046B6F1004F92
:1005B00002D11D4EF16901E01B4E7168C0F3034585
:1005C00083B200F44016B6F5401F08D121F07061E7
:1005D000154E766826F07066134F7E6012E000F4C8
:1005E0008016B6F5801F06D1032606FA05F4A1434E
:1005F00041F0706106E0460D360103FA06F6B1439C
:1006000041F0706122B1460D360103FA06F631431E
:1006100000F00046B6F1004F02D1034EF16101E057
:10062000014E7160F0BD00000000014001617047A3
:100630000EE00849C96881F40061064AD1600020D3
:1006400001E0411C88B242F210718842F9DB00BF20
:10065000EFE70000002001400948006801280CD1A4
:100660000848006848B10748001F006828B10548DD
:100670000838006808B1012070470020FCE700003E
:1006800000012142100123420948006801280CD0D2
:100690000848006848B90748001F006828B10548A5
:1006A0000838006808B1012070470020FCE700000E
:1006B00000012142100123420948006801280CD0A2
:1006C0000848006848B10748001F006828B9054875
:1006D0000838006808B1012070470020FCE70000DE
:1006E00000012142100123420948006801280CD072
:1006F0000848006848B10748001F006828B105484D
:100700000838006808B9012070470020FCE70000A5
:1007100000012142100123420948006801280CD140
:100720000848006848B90748001F006828B1054814
:100730000838006808B1012070470020FCE700007D
:1007400000012142100123420948006801280CD011
:100750000848006848B90748001F006828B90548DC
:100760000838006808B1012070470020FCE700004D
:10077000000121421001234200BFFEE77047000044
:1007800070B5002100230F22C47804B3154C2468EF
:1007900004F4E064C4F5E064210AC1F10403CA4032
:1007A000447804FA03F184781440214309010E4C83
:1007B0000678A155047804F01F050124AC400578A3
:1007C0006D11AD0005F1E025C5F8004109E00478A0
:1007D00004F01F050124AC40044D0678761145F85D
:1007E000264070BD0CED00E000E400E080E100E098
:1007F00002490143024A1160704700000000FA05F7
:100800000CED00E07047000070B515480468001D4D
:100810000568001D066823462A46314611A000F0EF
:10082000D1FC1DA000F0CEFC1C4800F0CBFC1CA1AC
:1008300025A000F0C7FC28A128A000F0C3FC2BA134
:100840002DA000F0BFFC0023052203212E4800F05C
:10085000B9FC2EA000F0B6FC104800F0B3FC70BD4F
:10086000E8F7FF1F0D0A4350553A53544D333246B3
:100870003130335A4554362C4C5146503134342C97
:100880005549443D253038582025303858202530EA
:1008900038580A0D000000000D0A0000441B000833
:1008A000B9F9CEC4C1FA5F32B0E05FCEC2B6C8B407
:1008B000ABB8D0C6F7CAB5D1E9A3A8B4F2D3A1CAE0
:1008C000B5D1E9A3A9000000C0FDB3CCC3FBB3C6FA
:1008D000A3BA25730D0A0000312E3000C0FAB3CC44
:1008E000B0E6B1BEA3BA25730D0A00003230323330
:1008F0002E2D352D32320000B7A2B2BCC8D5C6DAD3
:10090000A3BA25730D0A0000FC1A00082A0D0A007C
:1009100010B508A000F056FC09A000F053FC13A08D
:1009200000F050FC1FA000F04DFC2EA000F04AFC8F
:1009300010BD0000B2D9D7F7CCE1CABE3A0D0A000B
:10094000312EB1BEB3CCD0F2D6D0A3ACC3BF2033CE
:10095000303020BAC1C3EB2044533020BAECB5C6C6
:10096000B7ADD7AAD2BBB4CE0D0A0000322EB8C4A0
:10097000B1E4204441433120CAE4B3F6B5E7D1B92C
:10098000D6B5B5C4B7BDB7A8A3BA574B555020D4F8
:10099000F6B4F3A3AC4B45593020BCF5D0A10D0AF9
:1009A00000000000332EB0B4BCFC20574B55502043
:1009B000BACD204B45593020BEF9BBE1B4A5B7A252
:1009C0002041444320B2C9D1F9A3ACB2C9D1F9BD89
:1009D000E1B9FBCDA8B9FDB4AEBFDAB4F2D3A10D35
:1009E0000A0000000D0A0D0A0000000029B1064AA5
:1009F00052690243044B5A6104E0034A526982433C
:100A0000014B5A61704700000010024029B1064AAC
:100A1000D2690243044BDA6104E0034AD26982439B
:100A2000014BDA61704700000010024029B1064A0C
:100A300012690243044B1A6104E0034A12698243BB
:100A4000014B1A61704700000010024029B1064AAC
:100A500092690243044B9A6104E0034A926982431B
:100A6000014B9A61704700000010024029B1064A0C
:100A7000D2680243044BDA6004E0034AD26882433E
:100A8000014BDA60704700000010024030B50021D1
:100A90000022002400232D4D6D6805F00C0121B1CA
:100AA000042905D0082923D105E0294D056022E05D
:100AB000274D05601FE0254D6D6805F47012234D2C
:100AC0006D6805F48034022505EB92421CB9214D76
:100AD000554305600BE01D4D6D6805F400351DB1F3
:100AE0001C4D5543056002E0194D5543056002E079
:100AF000174D056000BF00BF144D6D6805F0F00193
:100B00000909154D6B5C0568DD4045600F4D6D684A
:100B100005F4E061090A104D6B5C4568DD408560B5
:100B20000A4D6D6805F46051C90A0B4D6B5C456850
:100B3000DD40C560054D6D6805F44041890B074DEA
:100B40006B5CC568B5FBF3F5056130BD0010024074
:100B500000127A0000093D00380000204800002003
:100B6000704710B500F002F810BD00000CB5002071
:100B7000019000903348006840F4803031490860AB
:100B800000BF3048006800F4003000900198401C1D
:100B90000190009818B90198B0F5A06FF1D12948DB
:100BA000006800F4003010B10120009001E0002046
:100BB00000900098012843D12348006840F01000BD
:100BC000214908600846006820F0030008600846D4
:100BD000006840F0020008601A48406819494860FF
:100BE0000846406848600846406840F480604860B5
:100BF0000846406820F47C1048600846406840F48D
:100C0000E81048600846006840F08070086000BF47
:100C10000C48006800F000700028F9D009484068CE
:100C200020F00300074948600846406840F0020091
:100C3000486000BF0348406800F00C000828F9D164
:100C40000CBD0000001002400020024010B500F072
:100C500001F810BD10B51B48006840B11948006884
:100C6000401E1849086010B9012017490870002477
:100C700008E004EB4401154A02EB810000F0D1FECC
:100C8000601CC4B2042CF4DB11480068401C1049FD
:100C90000860084600686FF00041884202D10020D9
:100CA0000B49086000F0BCFE0A480078401CC0B246
:100CB000084908700A2803DB0020087000F0ACFE29
:100CC00010BD0000080000200C0000204C00002097
:100CD000100000201400002010B51348006840F0F8
:100CE00001001149086008464068104908400E4953
:100CF0004860084600680E4908400B4908600846ED
:100D0000006820F4802008600846406820F4FE0057
:100D100048604FF41F008860FFF723FF4FF000602A
:100D20000449086010BD0000001002400000FFF8F8
:100D3000FFFFF6FE08ED00E010B540F22441104838
:100D400000F061F9D0B10E4800880D48001D008800
:100D500000210C48FFF78AFA0A48FFF739FBC0F573
:100D6000806009490860012008490870810205482F
:100D7000FFF785FB01210348FFF778FA10BD00005B
:100D80000048004030000240180000201C000020F5
:100D900010B592B0044601210820FFF757FE01214B
:100DA0008804FFF733FE01210846FFF71FFE59486C
:100DB00000F0CEF84FF48060ADF8440003208DF8C9
:100DC000460018208DF8470011A95348FFF75AFB39
:100DD0004FF40060ADF8440004208DF8470011A9DD
:100DE0004D48FFF74FFB4D48FFF74CFA4948001DAF
:100DF0000190102003900120049000200590802095
:100E0000069000200790089009904FF400500A9037
:100E100000200B9001A94148FFF713FB012202219A
:100E20003E48FFF705FB0C208DF8300002208DF8BE
:100E3000310000208DF8320001208DF833000CA81D
:100E4000FFF79EFC35481430FFF71CFA3148001DAF
:100E5000019033480290002003904FF4806004908A
:100E600000200590802006900020079008900990AF
:100E70004FF440500A9000200B9001A927481430ED
:100E8000FFF7DFFA012125481430FFF7EFF927209B
:100E90008DF8300001208DF8310000208DF83200EF
:100EA00001208DF833000CA8FFF76AFC0D94002098
:100EB000ADF83800ADF83A00ADF83C00ADF84000B0
:100EC0000C20ADF83E000DA9124800F0EBF800220E
:100ED00040F226610F4800F0C0F8002240F2255190
:100EE0000C4800F0BAF8012240F22441094800F011
:100EF000B4F801228021074800F020F801224021A7
:100F0000044800F01BF80121024800F00BF812B071
:100F100010BD000000480040000C01401C000240D1
:100F2000E900002021B1828942F40052828104E06C
:100F300082894DF6FF731A40828170471AB1838A05
:100F40000B43838202E0838A8B43838270470000D5
:100F500010B504462048844209D101218803FFF7D7
:100F600085FD00214FF48040FFF780FD32E01B48F3
:100F7000844209D101214804FFF758FD00214FF4B4
:100F80000030FFF753FD25E01548844209D10121C7
:100F90008804FFF74BFD00214FF48020FFF746FD4A
:100FA00018E01048844209D10121C804FFF73EFD32
:100FB00000214FF40020FFF739FD0BE00A4884427E
:100FC00008D101210805FFF731FD00214FF4801001
:100FD000FFF72CFD10BD0000003801400044004028
:100FE00000480040004C00400050004002460020F5
:100FF000B1F5007F00D100BF13880B400BB1012079
:1010000000E00020704770B5024600240023002550
:10101000002040F66A16B14200D100BFC1F342156C
:1010200001F01F03012606FA03F3012D02D1968970
:10103000334006E0022D02D1168A334001E0968A41
:1010400033400C12012606FA04F41688344013B11A
:101050000CB1012000E0002070BDF0B50346002473
:1010600000260025002040F66A17B94200D100BFD3
:101070001846C1F3421401F01F06012707FA06F5CE
:10108000012C01D10C3004E0022C01D1103000E021
:1010900014301AB107682F43076002E00768AF43B6
:1010A0000760F0BD2DE9F04786B005460E460024E6
:1010B000A24600BFA1460027B08900B100BF2F465D
:1010C0002C8A4CF6FF700440F08804432C82AC89D3
:1010D0004EF6F3100440B088318908437189084303
:1010E0000443AC81AC8A4FF6FF400440B08904430E
:1010F000AC8201A8FFF7CAFC1F48874202D1DDF885
:1011000010A001E0DDF80CA0A88900F4004040B177
:101110000AEBCA0000EB0A1031684900B0FBF1F895
:1011200007E00AEBCA0000EB0A1031688900B0FB47
:10113000F1F86420B8FBF0F004012009642101FB00
:101140001089A88900F4004040B1322000EBC900AA
:10115000B0FBF1F000F00700044308E0322000EBA0
:1011600009106421B0FBF1F000F00F0004432C8162
:1011700006B0BDE8F087000000380140C1F3080266
:101180008280704700BFFEE7002001490860704779
:10119000082C004001480068C0B27047082C00408D
:1011A00010B5FFF7F7FF20B1FFF7EEFF7F2000F04B
:1011B00001F810BD00F07F01014A11607047000086
:1011C000002C00400FB4054B10B503A9044A029847
:1011D00000F018F810BC5DF814FB0000411A00087C
:1011E0002000002002E008C8121F08C1002AFAD11E
:1011F00070477047002001E001C1121F002AFBD197
:10120000704700002DE9FF4F8DB00F4605460026C0
:1012100006E025280BD0DDE90F1290476D1C761CE7
:1012200028780028F5D111B03046BDE8F08F0024B1
:10123000A246A1460122EC4900E0044315F8013F13
:10124000203B02FA03F00842F7D128782A2810D070
:101250006FF02F022878A0F13001092914D80AEB89
:101260008A0102EB410144F0020400EB010A6D1C0B
:10127000F0E701CF5FEA000A03D544F40054CAF155
:10128000000A44F002046D1C28782E2817D115F8A6
:10129000010F44F004042A280ED06FF02F022878A2
:1012A000A0F1300109290AD809EB890102EB4101BB
:1012B00000EB01096D1CF2E757F8049B6D1C2878C0
:1012C0006C280FD006DC4C2817D068280DD06A286F
:1012D00014D104E0742810D07A280FD10DE044F422
:1012E00000140AE044F4801401E044F440146978E6
:1012F000814202D104F580146D1C6D1C2A786E2A7F
:101300001FD00CDC632A31D004DC002A8BD0582A91
:1013100011D1A3E0642A68D0692A0CD165E0732A50
:101320002ED004DC6F2A73D0702A04D19BE0752A7A
:101330006FD0782A6ED01046DDE90F129047761CE8
:1013400050E1C4F30250022806D0032809D0042833
:1013500001CF09D0066045E101CFF117C0E9006176
:1013600040E101CF06803DE106703BE117F8040B38
:101370008DF8000000208DF80100EB46012003E00D
:1013800057F804BB4FF0FF3061074FF0000102D463
:101390000DE008F10101884649450FDA8045F8DB88
:1013A0001BF808100029F4D108E008F10101884673
:1013B0008142FADB1BF808100029F6D1DDE90F2382
:1013C000AAEB08008146214600F036F9304400EBD4
:1013D000080604E0DDE90F121BF8010B9047B8F195
:1013E0000108F7D221464846F7E00A21C4F3025328
:1013F0004FF0000B0891022B04D001CFC117032B33
:1014000009D00AE0FF1D27F00707F7E8020108E00E
:1014100032E01FE020E000B2C117042B01D140B23E
:10142000C117031E71F1000307DA4FF0000CD0EB77
:101430000C006CEB01012D2302E0230504D52B23C6
:101440008DF82430012303E0E30701D02023F7E7E0
:10145000984658E00A2110E010210EE010204FF0CD
:10146000000B08900CE010214FF0000B44F0040436
:101470004FF00809089103E008214FF0000B089194
:10148000C4F30253022B04D001CF0021032B06D05A
:1014900006E0FF1D27F00707F7E8020103E080B22E
:1014A000042B00D1C0B24FF0000823072BD5702ABF
:1014B00007D0DDF820C08CF0100C5CEA0B0C05D0D6
:1014C0000EE040238DF82430012308E050EA0103A8
:1014D00006D030238DF824308DF82520022398463D
:1014E000DDF820C08CF0080C5CEA0B0C0BD150EA44
:1014F000010301D1630706D530238DF824304FF066
:101500000108A9F10109582A04D038A20B9208AAAF
:101510000A920BE03AA2F9E75B46089AFEF724FE2E
:101520000B9B9B5C0A9A521E0A92137050EA0102AE
:10153000F2D10A98ADEB000000F1200B600702D554
:1015400024F4803401E04FF00109D94502DDA9EB14
:101550000B0000E0002000EB0B0141440890AAEBD7
:10156000010AE00306D4DDE90F232146504600F0CE
:1015700063F806444FF0000908E009A911F80900D2
:10158000DDE90F12904709F10109761CC145F4DB32
:10159000E0030CD5DDE90F232146504600F04CF85E
:1015A000064404E0DDE90F1230209047761C0899CC
:1015B000481E08900029F5DC08E00A980A9900788E
:1015C000491C0A91DDE90F129047761CBBF100011E
:1015D000ABF1010BF1DC21465046DDE90F2300F0B1
:1015E00019F806446D1C1BE609280100303132331E
:1015F000343536373839616263646566000000004F
:101600003031323334353637383941424344454638
:10161000000000002DE9F041044600251E46174653
:10162000880404D405E039462020B0476D1C641EB0
:10163000F9D52846BDE8F0812DE9F04104460025A2
:101640001E469046C80301D5302700E020278804B5
:1016500004D505E041463846B0476D1C641EF9D5F7
:101660002846BDE8F081000070B50546344800EB1F
:1016700005142068804700283AD02079052802DA2E
:10168000052020715AE020790A2803DA2079401CCD
:10169000207153E0A07A38B90120A07205EB450112
:1016A000491CC8B200F0A8F92089002846DDE0886E
:1016B000218988420FDAE088401C80B2E0802189CD
:1016C00088423BD10320A07205EB4501C91CC8B27A
:1016D00000F092F932E0E07A00282FDDE07A401C39
:1016E000C0B2E072C1B2884228DB0020207325E03E
:1016F0002079052802DD052020711CE0207918B131
:101700002079401E207116E0A07A012808D100201F
:10171000A07205EB4501891CC8B200F06DF90AE022
:10172000A07A032807D10020A07205EB4501891C8F
:10173000C8B200F061F90020E080207370BD0000A5
:101740007C00002010B54FF4A060FFF751F800F0C6
:10175000B7F800F035F800F01DF84FF4E130FFF76E
:1017600017FB00F0D9F84FF0FF300021002807DA0E
:101770000A07140E054A00F00F031B1FD45403E0A0
:101780000A07130E024A135400BF10BD18ED00E003
:1017900000E400E008B501210802FFF757F9032033
:1017A0008DF8020010208DF80300C001ADF8000094
:1017B00069460248FEF766FE08BD000000200140B1
:1017C00010B500F03BF800F001F810BD08B501219C
:1017D0004420FFF73BF901211548FEF7DFFE012009
:1017E000ADF8000028208DF8030069461148FEF787
:1017F00049FE1020ADF8000048208DF8030069462E
:101800000D48FEF73FFE0820ADF8000048208DF897
:10181000030069460848FEF735FE0420ADF80000D5
:1018200048208DF8030069460348FEF72BFE08BDEB
:101830000002300000080140001801400021184A51
:101840009172D1721173002018E06421154A02EBE5
:10185000001211810221134A02EB001211710021C2
:10186000104A02EB001291720E4A02EB0012D17282
:101870000C4A02EB00121173411CC8B20628E4DBCB
:101880006421084A11810849116008491161084919
:1018900011620849116308491164084911657047CC
:1018A000DC0000207C0000205906000889060008A2
:1018B000B9060008E90600081907000849070008EA
:1018C00008B501214820FFF7C1F8012000F07EF89B
:1018D000022000F07BF820210D48FEF7A7FE202112
:1018E0000C48FEF7A3FE03208DF8020010208DF8AF
:1018F00003002020ADF8000069460548FEF7C2FD50
:101900002020ADF8000069460248FEF7BBFD08BD87
:10191000000C01400018014070B5002016E00021C5
:1019200000EB40021F4B03EB8202516000EB4002D0
:1019300003EB8202916000EB400203EB82025170E4
:1019400000EB400203F82210411CC8B20428E6DB79
:10195000154909684FF47A73B1FBF3F2B2F1807F55
:1019600000D31DE022F07F41491E4FF0E023596172
:1019700059170F23002907DA1C07260E0B4C01F01C
:101980000F052D1F665503E01C07250E084C6554F6
:1019900000BF00214FF0E02399610721196100BFCA
:1019A00070BD00004C0000202400002018ED00E075
:1019B00000E400E010B5002404E02046FFF754FEE8
:1019C000601CC4B2062CF8DB10BD0000012806D153
:1019D0000749096881F02001054A116007E00228E3
:1019E00005D10449096881F02001024A116070475D
:1019F0000C0C01400C1801400649C97A054A5054A4
:101A00001146C97A491CC9B2D1720A2901DB0021E9
:101A1000D1727047DC00002010B5FFF7CBFF10BD7E
:101A20007047416851B14168491E416031B9012197
:101A300041700178012901D181684160704700003F
:101A400070B504460D46E1B20548FFF797FB00BFAD
:101A500080210348FFF7CAFA0028F9D0204670BD5C
:101A600000480040FFF76EFEFEF7CEFEFEF750FF87
:101A700000201949088009E06F201849164A128889
:101A8000885415480088401C134908801248008873
:101A9000B0F5FA7FF0DB012280211148FFF74EFA02
:101AA0000220FEF799FC68B92020FEF795FC48B9A2
:101AB0004FF40070FEF790FC20B94FF40050FEF791
:101AC0008BFC18B107A0FFF77DFB02E008A0FFF731
:101AD00079FB00BFFEE70000040000202C05002079
:101AE00000480040444D41B4ABCAE4CDEAB3C9005C
:101AF000CAB9D3C3435055B4ABCAE4002AB9CC2009
:101B00002020BCFE202020BFE220202020B0E620A4
:101B1000202020B1BEA3BA5625642E25642E25644C
:101B200020202853544D3332463130785F7354644B
:101B30005065726970685F447269766572290D0A32
:101B4000000000002A2A2A2A2A2A2A2A2A2A2A2A9D
:101B50002A2A2A2A2A2A2A2A2A2A2A2A2A2A2A2AE5
:101B60002A2A2A2A2A2A2A2A2A2A2A2A2A2A2A2AD5
:101B70002A2A2A2A2A2A2A2A2A2A2A2A2A2A2A2AC5
:101B80002A2A2A2A2A2A2A2A2A2A2A2A2A2A2A2AB5
:101B90002A2A2A2A2A2A2A2A2A2A2A2A2A2A2A2AA5
:101BA0002A2A2A2A2A2A2A0D0A000000CC1B000809
:101BB000000000204C000000E4110008181C000880
:101BC0004C000020B4100000F411000800000000D8
:101BD0000000000000000000000000000000000005
:101BE00000000000000000000000000000000000F5
:101BF00000A24A04000000000000000001020304EB
:101C000006070809000000000102030401020304A2
:081C100006070809020406089A
:0400000508000131BD
:00000001FF
