:020000040800F2
:10000000400B0020E1010008D50900083D08000868
:10001000D10900088D0600088911000800000000C1
:10002000000000000000000000000000C50D0008F6
:1000300091060008000000005D0A0008B10E0008EB
:10004000FB010008FB010008FB010008FB010008A0
:10005000FB010008FB010008FB010008FB01000890
:10006000FB010008FB010008FB010008FB01000880
:10007000FB010008FB010008FB010008FB01000870
:10008000FB010008FB010008FB010008FB01000860
:10009000FB010008FB010008FB010008FB01000850
:1000A000FB010008FB010008FB010008FB01000840
:1000B000FB010008FB010008FB010008FB01000830
:1000C000FB010008FB010008FB010008FB01000820
:1000D000FB0100089D0F0008FB010008FB01000860
:1000E000FB010008FB010008FB010008FB01000800
:1000F000FB010008FB010008FB010008FB010008F0
:10010000FB010008FB010008FB010008FB010008DF
:10011000FB010008FB010008FB010008FB010008CF
:10012000FB010008FB010008FB010008FB010008BF
:1001300000F002F800F045F80AA090E8000C8244B4
:100140008344AAF10107DA4501D100F03AF8AFF291
:10015000090EBAE80F0013F0010F18BFFB1A43F0A5
:1001600001031847FC1700001C180000103A24BFB8
:1001700078C878C1FAD8520724BF30C830C144BF0C
:1001800004680C607047000000230024002500264E
:10019000103A28BF78C1FBD8520728BF30C148BFEA
:1001A0000B607047642900F09980782900F0D280B4
:1001B000732900F00682002070471FB51FBD10B5DF
:1001C00010BD00F031FA1146FFF7F7FF01F016FB02
:1001D00000F04FFA03B4FFF7F2FF03BC00F0E0FFBA
:1001E0000948804709480047FEE7FEE7FEE7FEE7CB
:1001F000FEE7FEE7FEE7FEE7FEE7FEE70448054907
:10020000054A064B704700003D0F00083101000809
:1002100040050020400B0020400700204007002040
:10022000704700000FB4044910B503AA029800F00B
:10023000CDF910BC5DF814FB1400002070B5044625
:1002400085690068C10601D5302600E02026C00778
:1002500007D070BDD4E9012130469047206A401C88
:1002600020626D1EF6D570BD70B5044685690078B4
:10027000C00707D170BDD4E9012120209047206A32
:10028000401C20626D1EF6D570BD70B50C4605464B
:10029000012A05D02878800600D5EA69002302E00B
:1002A000012305E05B1C934202D2E05C0028F9D1F7
:1002B000A869E618C01AA861286A18442862284666
:1002C000FFF7BCFF04E0D5E9012114F8010B9047CA
:1002D000B442F8D32846FFF7C7FF70BD2DE9F041BF
:1002E0000646002410687529314616A510D0AFF3D4
:1002F0000080002802DA404213A507E031688A072F
:1003000001D512A502E0490704D511A5012401E099
:10031000AFF3008000210A2206F1240709E0B0FBB8
:10032000F2FCB0FBF2F302FB1C00303078541846AC
:10033000491C0028F3D123462A463046BDE8F04147
:1003400000F0D4B8000000002D0000002B000000D9
:100350002000000070B504460D4621461068AFF33A
:1003600000802188090502D50F4A7A4402E00E4A2E
:100370007A440E32002104F1240305E000F00F0658
:100380000009965D5E54491C0028F7D120780023AF
:10039000000704D5702D02D009B102231132204686
:1003A000BDE8704000F0A2B8061500002DE9F05F2E
:1003B000894604464FF0000ADFF824B1FB44C0F838
:1003C00020A02046E168884700287DD0252806D057
:1003D000D4E901219047206A401C2062F1E7002502
:1003E0005F462046E16888472028064607DB312E15
:1003F00005D2B81910F8200C08B10543F1E7A80799
:1004000001D525F00405C4F81CA00027C4F818A0E5
:100410002A2E09D0304600F0BCFE38B304EB870822
:10042000303EC8F8186019E059F8041B204604EB68
:1004300087029161E1688847012F064618D1E0697B
:10044000002820DA25F020051DE0D8F8180000EB80
:10045000800006EB40003038C8F818002046E168FC
:100460008847064600F095FE0028EED1012F0AD0FD
:100470002E2E08D12046E16888477F1C0646022FB1
:1004800045F02005C4DBA069002803DA404245F0AE
:100490000105A061E80701D025F01005A6B1A6F17D
:1004A0004100192802D8203645F400654A463146F5
:1004B000204625604D46FFF775FE60B1012807D044
:1004C000ED1D25F0070000E007E000F1080978E7DE
:1004D00005F1040975E730467AE7206ABDE8F09F28
:1004E000DC14000070477047704770472DE9F047F3
:1004F0000D4699469246044600F124080168880694
:1005000004D5E06921F01001216000E00120A8423B
:1005100001DD471B00E00027A1697A1902EB090001
:10052000081AA0612078C00602D42046FFF786FE94
:10053000002608E0D4E901211AF806009047206A55
:10054000401C761C20624E45F4DB2078C0060AD59C
:100550002046FFF773FE06E0D4E9012130209047E2
:10056000206A401C2062381EA7F10107F4DC07E076
:10057000D4E9012118F805009047206A401C206248
:10058000281EA5F10105F3DC2046FFF76DFE20785B
:10059000000602D50220BDE8F0870120FBE710B578
:1005A000436913B1AFF3008001E0FFF76EFE012055
:1005B00010BD127800F124010A7000224A70012255
:1005C000EDE711684FF0FF32E9E70000074B70B527
:1005D0000D467B4400F011F80446284600F020F850
:1005E00010B14FF0FF3070BD204670BD0B120000FF
:1005F00001694A1C02610878704700B58FB0CDE9E7
:1006000001310021059105497944CDE903101146D6
:100610006846FFF7CBFE0FB000BD0000E5FFFFFF0F
:10062000007B00F080007047754600F02BF8AE4666
:1006300005006946534620F00700854618B020B5EE
:10064000FFF7DCFDBDE820404FF000064FF000074B
:100650004FF000084FF0000B21F00701AC46ACE86A
:10066000C009ACE8C009ACE8C009ACE8C0098D46D7
:10067000704710B50446AFF300802046BDE8104037
:10068000FFF7A8BD00487047E004002000BFFEE768
:1006900070472DE9F0410246002500260020002386
:1006A0000024002791F803C00CF00F0591F803C057
:1006B0000CF0100CBCF1000F03D091F802C04CEA12
:1006C000050591F800C0BCF1000F31D0146800207E
:1006D0002BE04FF0010C0CFA00F3B1F800C00CEA6B
:1006E00003069E4220D183004FF00F0C0CFA03F753
:1006F000BC4305FA03FC4CEA040491F803C0BCF1C6
:10070000280F06D14FF0010C0CFA00FCC2F814C0FF
:100710000AE091F803C0BCF1480F05D14FF0010C7D
:100720000CFA00FCC2F810C0401C0828D1D3146099
:10073000B1F800C0BCF1FF0F34DD546800202EE09A
:1007400000F1080C4FF0010808FA0CF3B1F800C0F2
:100750000CEA03069E4221D183004FF00F0C0CFAE5
:1007600003F7BC4305FA03FC4CEA040491F803C008
:10077000BCF1280F05D100F1080C08FA0CF8C2F8FA
:10078000148091F803C0BCF1480F07D100F1080CA8
:100790004FF0010808FA0CF8C2F81080401C082835
:1007A000CED35460BDE8F081F0B50A4600230024A2
:1007B0000021002500F00046B6F1004F02D11D4E89
:1007C000F16901E01B4E7168C0F3034583B200F488
:1007D0004016B6F5401F08D121F07061154E7668BD
:1007E00026F07066134F7E6012E000F48016B6F5B6
:1007F000801F06D1032606FA05F4A14341F070617B
:1008000006E0460D360103FA06F6B14341F0706189
:1008100022B1460D360103FA06F6314300F00046D8
:10082000B6F1004F02D1034EF16101E0014E71605B
:10083000F0BD000000000140016170470EE0084972
:10084000C96881F40061064AD160002001E0411CC2
:1008500088B242F210718842F9DB00BFEFE7000076
:10086000002001404CF6CC40014908607047000070
:100870000030004010B500F001F810BD4AF6AA2083
:10088000014908607047000000300040014948609D
:100890007047000000300040014988607047000048
:1008A00000300040014908607047000000300040FF
:1008B0000948006801280CD10848006848B1074879
:1008C000001F006828B105480838006808B10120F9
:1008D00070470020FCE70000000121421001234284
:1008E0000948006801280CD00848006848B9074842
:1008F000001F006828B105480838006808B10120C9
:1009000070470020FCE70000000121421001234253
:100910000948006801280CD00848006848B1074819
:10092000001F006828B905480838006808B1012090
:1009300070470020FCE70000000121421001234223
:100940000948006801280CD00848006848B10748E9
:10095000001F006828B105480838006808B9012060
:1009600070470020FCE700000001214210012342F3
:100970000948006801280CD10848006848B90748B0
:10098000001F006828B105480838006808B1012038
:1009900070470020FCE700000001214210012342C3
:1009A0000948006801280CD00848006848B9074881
:1009B000001F006828B905480838006808B1012000
:1009C00070470020FCE70000000121421001234293
:1009D00000BFFEE77047000070B5002100230F2222
:1009E000C47804B3154C246804F4E064C4F5E064EE
:1009F000210AC1F10403CA40447804FA03F184785F
:100A00001440214309010E4C0678A155047804F0E6
:100A10001F050124AC4005786D11AD0005F1E025FE
:100A2000C5F8004109E0047804F01F050124AC403A
:100A3000044D0678761145F8264070BD0CED00E0B7
:100A400000E400E080E100E002490143024A116055
:100A5000704700000000FA050CED00E07047000050
:100A600070B515480468001D0568001D066823461A
:100A70002A46314611A0FFF7D5FB1DA0FFF7D2FB98
:100A80001C48FFF7CFFB1CA124A0FFF7CBFB27A13D
:100A900027A0FFF7C7FB2AA12CA0FFF7C3FB002369
:100AA000052203212D48FFF7BDFB2DA0FFF7BAFB60
:100AB0001048FFF7B7FB70BDE8F7FF1F0D0A435062
:100AC000553A53544D3332463130335A4554362C0F
:100AD0004C5146503134342C5549443D253038581A
:100AE000202530385820253038580A0D00000000E5
:100AF0000D0A0000F8180008B9F9CEC4C1FA5F3237
:100B0000B0E05FB6C0C1A2BFB4C3C5B9B7A3A8B4B3
:100B1000F2D3A1CAB5D1E9A3A9000000C0FDB3CCAE
:100B2000C3FBB3C6A3BA25730D0A0000312E3000F3
:100B3000C0FAB3CCB0E6B1BEA3BA25730D0A00006B
:100B4000323032332E2D352D31300000B7A2B2BCF9
:100B5000C8D5C6DAA3BA25730D0A0000B01800087C
:100B60002A0D0A0010B50BA0FFF75CFB0CA0FFF7E5
:100B700059FB15A0FFF756FB1EA0FFF753FB27A05C
:100B8000FFF750FB32A0FFF74DFB38A0FFF74AFB01
:100B900010BD0000B2D9D7F7CCE1CABE3A0D0A00A9
:100BA000312EB1BEB3CCD0F2D6D0A3ACC3BF20336C
:100BB00030306D7344533020C2CCB5C6B7ADD7AA20
:100BC000D2BBB4CE0D0A0000322EC6F4B6AF20312F
:100BD00020B8F6D6DCC6DAB4F3D4BCCEAA203120D5
:100BE000C3EBB5C4204957444720BFB4C3C5B9B708
:100BF0000D0A0000332EC3BF2032306D7320CEB9F2
:100C0000B9B7D2BBB4CEA3ACCAB9D3C3C8EDBCFE8E
:100C1000B6A8CAB1C6F70D0A00000000342E574B23
:100C2000555020CDA3D6B9C3BF2032306D7320D22A
:100C3000BBB4CEB5C4CEB9B9B7D0D0CEAAA3ACCAD6
:100C4000B9204957444720B8B4CEBB0D0A00000074
:100C5000352ECDA8B9FDB4AEBFDAB4F2D3A1D7B466
:100C6000CCACD0C5CFA20D0A000000000D0A0D0AC1
:100C70000000000029B1064A92690243044B9A61C0
:100C800004E0034A92698243014B9A617047000075
:100C9000001002400348406A40F0807001494862F9
:100CA000704700000010024030B5002100220024EF
:100CB00000232D4D6D6805F00C0121B1042905D0EC
:100CC000082923D105E0294D056022E0274D056064
:100CD0001FE0254D6D6805F47012234D6D6805F415
:100CE0008034022505EB92421CB9214D5543056025
:100CF0000BE01D4D6D6805F400351DB11C4D5543CD
:100D0000056002E0194D5543056002E0174D05608E
:100D100000BF00BF144D6D6805F0F0010909154DC5
:100D20006B5C0568DD4045600F4D6D6805F4E06162
:100D3000090A104D6B5C4568DD4085600A4D6D68A1
:100D400005F46051C90A0B4D6B5C4568DD40C56018
:100D5000054D6D6805F44041890B074D6B5CC56816
:100D6000B5FBF3F5056130BD0010024000127A00BA
:100D700000093D002C0000203C00002010B5014679
:100D80000022002300204A11012A02D1094C2368C5
:100D900006E0022A02D1074C236A01E0054C636A8F
:100DA00001F01F02012494401C400CB1012000E01E
:100DB000002010BD0010024001490860704700008B
:100DC00080044242704710B500F002F810BD0000E8
:100DD0000CB50020019000903348006840F480304A
:100DE0003149086000BF3048006800F400300090CE
:100DF0000198401C0190009818B90198B0F5A06FB7
:100E0000F1D12948006800F4003010B101200090B1
:100E100001E0002000900098012843D12348006899
:100E200040F01000214908600846006820F00300E7
:100E300008600846006840F0020008601A484068F0
:100E4000194948600846406848600846406840F4D0
:100E5000806048600846406820F47C10486008467E
:100E6000406840F4E81048600846006840F0807030
:100E7000086000BF0C48006800F000700028F9D03E
:100E80000948406820F00300074948600846406868
:100E900040F00200486000BF0348406800F00C00CA
:100EA0000828F9D10CBD00000010024000200240CB
:100EB00010B500F001F810BD10B51B48006840B136
:100EC00019480068401E1849086010B901201749E8
:100ED0000870002408E004EB4401154A02EB81008D
:100EE00000F029FC601CC4B2042CF4DB114800683B
:100EF000401C10490860084600686FF000418842B5
:100F000002D100200B49086000F014FC0A48007868
:100F1000401CC0B2084908700A2803DB0020087092
:100F200000F004FC10BD00000400002008000020B8
:100F3000400400200C0000201000002010B51348D1
:100F4000006840F0010011490860084640681049F7
:100F500008400E494860084600680E4908400B49A1
:100F600008600846006820F4802008600846406851
:100F700020F4FE0048604FF41F008860FFF723FF55
:100F80004FF000600449086010BD000000100240EE
:100F90000000FFF8FFFFF6FE08ED00E010B500BF0F
:100FA00040F22551104800F033F858B10E48001DAA
:100FB0000088C1B20D4802880088401C0B4B188085
:100FC0000B48815440F22441074800F021F848B111
:100FD00005480088C4B20448001D0088C4B201203E
:100FE0000449087010BD00000038014002000020D4
:100FF000400000200000002021B1828942F400520C
:10100000828104E082894DF6FF731A408281704725
:1010100070B50246002400230025002040F66A1621
:10102000B14200D100BFC1F3421501F01F030126F8
:1010300006FA03F3012D02D19689334006E0022D12
:1010400002D1168A334001E0968A33400C12012601
:1010500006FA04F41688344013B10CB1012000E004
:10106000002070BDF0B503460024002600250020B6
:1010700040F66A17B94200D100BF1846C1F34214C6
:1010800001F01F06012707FA06F5012C01D10C30EB
:1010900004E0022C01D1103000E014301AB10768CE
:1010A0002F43076002E00768AF430760F0BD000010
:1010B0002DE9F04786B005460E460024A24600BF43
:1010C000A1460027B08900B100BF2F462C8A4CF6FC
:1010D000FF700440F08804432C82AC894EF6F31074
:1010E0000440B08831890843718908430443AC81C6
:1010F000AC8A4FF6FF400440B0890443AC8201A89B
:10110000FFF7D2FD1F48874202D1DDF810A001E0B1
:10111000DDF80CA0A88900F4004040B10AEBCA0039
:1011200000EB0A1031684900B0FBF1F807E00AEB68
:10113000CA0000EB0A1031688900B0FBF1F86420A6
:10114000B8FBF0F004012009642101FB1089A88993
:1011500000F4004040B1322000EBC900B0FBF1F0D8
:1011600000F00700044308E0322000EB091064217E
:10117000B0FBF1F000F00F0004432C8106B0BDE895
:10118000F08700000038014000BFFEE780F31088C0
:10119000704730380A2801D201207047002070477C
:1011A00000BF70470146042901DB0020704701EBB6
:1011B0004100084A02EB80004078012808D1002055
:1011C00001EB4102034B03EB820250700120EDE77B
:1011D0000020EBE74004002070B50546344800EBE2
:1011E00005142068804700283AD02079052802DAC3
:1011F000052020715AE020790A2803DA2079401C62
:10120000207153E0A07A38B90120A07205EB4501A6
:10121000491CC8B200F07AFA2089002846DDE0882F
:10122000218988420FDAE088401C80B2E080218961
:1012300088423BD10320A07205EB4501C91CC8B20E
:1012400000F064FA32E0E07A00282FDDE07A401CFA
:10125000C0B2E072C1B2884228DB0020207325E0D2
:101260002079052802DD052020711CE0207918B1C5
:101270002079401E207116E0A07A012808D10020B4
:10128000A07205EB4501891CC8B200F03FFA0AE0E4
:10129000A07A032807D10020A07205EB4501891C24
:1012A000C8B200F033FA0020E080207370BD000067
:1012B000700400200B48807A0A4AD27A904201D109
:1012C000002070470748807A064A115C1046807AF1
:1012D000401CC0B290720A2801DB002090720846C0
:1012E000EFE70000D004002010B54FF4A060FFF736
:1012F000ABFB00F015F900F093F800F01DF84FF487
:10130000E13000F087F900F037F94FF0FF300021AD
:10131000002807DA0A07140E054A00F00F031B1F06
:10132000D45403E00A07130E024A135400BF10BD41
:1013300018ED00E000E400E008B501210802FFF725
:1013400099FC03208DF8020010208DF80300C001E5
:10135000ADF8000069460248FFF79BF908BD0000A0
:101360000020014070B505460C467D20FFF706FDC4
:1013700028B1FFF78FFC0FA0FEF754FF02E018A082
:10138000FEF750FF0120FFF717FD00BF6120FFF7B8
:10139000F5FC0028FAD045F25550FFF783FA2846AD
:1013A000FFF774FAA0B2FFF777FAFFF767FAFFF7D3
:1013B00059FA70BD2A2AB6C0C1A2BFB4C3C5B9B715
:1013C000B8B4CEBB2A2A2A2A2A2A2A2A2A2A2A2A30
:1013D0002A2A2A2A2A2A2A2A2A2A2A2A0D0A0000FE
:1013E0002A2AB2BBCAC7B6C0C1A2BFB4C3C5B9B767
:1013F000B8B4CEBBA3ACBFC9C4DCCAC7C9CFB5E7BC
:10140000B8B4CEBBBBF2D5DFCAD6B6AFB0B4BCFC65
:10141000B8B4CEBB2A2A2A2A2A2A2A2A0D0A000070
:1014200010B500F03BF800F001F810BD08B501213F
:101430004420FFF71FFC01211548FFF7B5F90120F3
:10144000ADF8000028208DF8030069461148FFF729
:1014500020F91020ADF8000048208DF803006946FF
:101460000D48FFF716F90820ADF8000048208DF868
:10147000030069460848FFF70CF90420ADF80000A6
:1014800048208DF8030069460348FFF702F908BDBC
:101490000002300000080140001801400021184AF5
:1014A0009172D1721173002018E06421154A02EB89
:1014B000001211810221134A02EB00121171002166
:1014C000104A02EB001291720E4A02EB0012D17226
:1014D0000C4A02EB00121173411CC8B20628E4DB6F
:1014E0006421084A118108491160084911610849BD
:1014F0001162084911630849116408491165704770
:10150000D004002070040020B1080008E1080008A1
:10151000110900084109000871090008A109000823
:1015200008B501214820FFF7A5FB012000F0D8F8FD
:10153000022000F0D5F820210D48FFF77DF9202189
:101540000C48FFF779F903208DF8020010208DF880
:1015500003002020ADF8000069460548FFF799F820
:101560002020ADF8000069460248FFF792F808BD58
:10157000000C01400018014070B5002016E0002169
:1015800000EB40021F4B03EB8202516000EB400274
:1015900003EB8202916000EB400203EB8202517088
:1015A00000EB400203F82210411CC8B20428E6DB1D
:1015B000154909684FF47A73B1FBF3F2B2F1807FF9
:1015C00000D31DE022F07F41491E4FF0E023596116
:1015D00059170F23002907DA1C07260E0B4C01F0C0
:1015E0000F052D1F665503E01C07250E084C65549A
:1015F00000BF00214FF0E02399610721196100BF6E
:1016000070BD0000400400201800002018ED00E02C
:1016100000E400E010B586B0044601210420FFF785
:1016200029FB01218803FFF725FB4FF40070ADF87B
:10163000140003208DF8160018208DF8170005A956
:101640001F48FFF726F84FF48060ADF8140004201F
:101650008DF8170005A91A48FFF71BF80194002020
:10166000ADF80800ADF80A00ADF80C00ADF81000B8
:101670000C20ADF80E0001A91248FFF719FD252036
:101680008DF8000003208DF801008DF80200012084
:101690008DF803006846FFF79FF9012240F22551BB
:1016A0000848FFF7DFFC012240F224410548FFF71C
:1016B000D9FC01210348FFF79FFC06B010BD0000D4
:1016C000000801400038014010B5002404E0204625
:1016D000FFF782FD601CC4B2062CF8DB10BD0000D1
:1016E000012806D10749096881F02001054A1160E7
:1016F00007E0022805D10449096881F02001024A67
:10170000116070470C0C01400C1801400649C97A61
:10171000054A50541146C97A491CC9B2D1720A29E6
:1017200001DB0021D1727047D004002010B5FFF713
:10173000CBFF10BD7047416851B14168491E4160FF
:1017400031B9012141700178012901D181684160DD
:101750007047000070B504460D46042C01DB00BF45
:10176000FEE70120FFF712FD04EB44000C4901EBFA
:101770008000456004EB440001EB800085600020A0
:1017800004EB4401064A02EB81014870012004EB9E
:10179000440102F821000020FFF7F8FC70BD0000B2
:1017A0004004002010B50446042C01DB00BFFEE716
:1017B0000120FFF7EBFC002004EB4401074A02EB99
:1017C0008101486004EB440102EB8101487004EBA5
:1017D000440102F82100FFF7D9FC10BD40040020AD
:1017E00000BF054A128802F04002002AF9D0C2B2B6
:1017F000014B1B1D1A80704700380140FFF774FD34
:10180000FFF72EF9FFF7AEF940F271210420FFF740
:10181000A9FD4FF496710020FFF79CFF14210120D1
:10182000FFF798FF1BE00020FFF7BCFC10B102207F
:10183000FFF756FF0120FFF7B5FC08B1FFF71AF8D4
:10184000FFF738FD0446002C09DD012C05D1FFF718
:10185000A9FF03A0FEF7E6FC00E000BF00BFE2E73F
:10186000CDA3D6B9C8EDBCFEB6A8CAB1C6F7203123
:1018700000000000303132333435363738394142D8
:1018800043444546403058003031323334353637E2
:10189000383961626364656640307800040000088E
:1018A0000000000000000002000100001000000025
:1018B0002AB9CC202020BCFE202020BFE2202020FE
:1018C00020B0E620202020B1BEA3BA5625642E25E4
:1018D000642E256420202853544D3332463130780D
:1018E0005F7354645065726970685F4472697665AD
:1018F00072290D0A000000002A2A2A2A2A2A2A2AE6
:101900002A2A2A2A2A2A2A2A2A2A2A2A2A2A2A2A37
:101910002A2A2A2A2A2A2A2A2A2A2A2A2A2A2A2A27
:101920002A2A2A2A2A2A2A2A2A2A2A2A2A2A2A2A17
:101930002A2A2A2A2A2A2A2A2A2A2A2A2A2A2A2A07
:101940002A2A2A2A2A2A2A2A2A2A2A2A2A2A2A2AF7
:101950002A2A2A2A2A2A2A2A2A2A2A0D0A000000A2
:101960008019000800000020400000006C01000801
:10197000C019000840000020000B0000880100088A
:101980000000000000000000000000000000000057
:10199000000000000000000000A24A040000000057
:1019A000000000000102030406070809000000000F
:1019B00001020304010203040607080902040608E1
:0400000508000131BD
:00000001FF
