:020000040800F2
:1000000028070020CD0100088505000839040008F4
:100010008105000887020008990700080000000019
:10002000000000000000000000000000C105000802
:100030008B020008000000009D050008AD060008C6
:10004000E7010008E7010008E7010008E7010008F0
:10005000E7010008E7010008E7010008E7010008E0
:10006000E7010008E7010008E7010008E7010008D0
:10007000E7010008E7010008E7010008E7010008C0
:10008000E7010008E7010008E7010008E7010008B0
:10009000E7010008E7010008E7010008E7010008A0
:1000A000E7010008E7010008E7010008E701000890
:1000B000E7010008E7010008E7010008E701000880
:1000C000E7010008E7010008E7010008E701000870
:1000D000E7010008E7010008E7010008E701000860
:1000E000E7010008E7010008E7010008E701000850
:1000F000E7010008E7010008E7010008E701000840
:10010000E7010008E7010008E7010008E70100082F
:10011000E7010008E7010008E7010008E70100081F
:10012000E7010008E7010008E7010008E70100080F
:1001300000F002F800F03AF80AA090E8000C8244BF
:100140008344AAF10107DA4501D100F02FF8AFF29C
:10015000090EBAE80F0013F0010F18BFFB1A43F0A5
:1001600001031847700B0000900B0000103A24BFE9
:1001700078C878C1FAD8520724BF30C830C144BF0C
:1001800004680C607047000000230024002500264E
:10019000103A28BF78C1FBD8520728BF30C148BFEA
:1001A0000B6070471FB51FBD10B510BD00F031F8D2
:1001B0001146FFF7F7FF00F02AFD00F04FF803B4F7
:1001C000FFF7F2FF03BC00F057F800000948804732
:1001D00009480047FEE7FEE7FEE7FEE7FEE7FEE729
:1001E000FEE7FEE7FEE7FEE704480549054A064B41
:1001F000704700003907000831010008280100207D
:10020000280700202803002028030020704770479B
:100210007047754600F02CF8AE4605006946534617
:1002200020F00700854618B020B5FFF7DDFFBDE8D8
:1002300020404FF000064FF000074FF000084FF04D
:10024000000B21F00701AC46ACE8C009ACE8C009DE
:10025000ACE8C009ACE8C0098D46704710B504464B
:10026000AFF300802046BDE81040FFF7A8BF0000B4
:1002700000487047C400002001491820ABBEFEE7CB
:1002800026000200704700BFFEE770472DE9F041ED
:10029000024600250026002000230024002791F8B4
:1002A00003C00CF00F0591F803C00CF0100CBCF16A
:1002B000000F03D091F802C04CEA050591F800C088
:1002C000BCF1000F31D0146800202BE04FF0010C7E
:1002D0000CFA00F3B1F800C00CEA03069E4220D1EC
:1002E00083004FF00F0C0CFA03F7BC4305FA03FC34
:1002F0004CEA040491F803C0BCF1280F06D14FF07A
:10030000010C0CFA00FCC2F814C00AE091F803C01A
:10031000BCF1480F05D14FF0010C0CFA00FCC2F8FB
:1003200010C0401C0828D1D31460B1F800C0BCF143
:10033000FF0F34DD546800202EE000F1080C4FF070
:10034000010808FA0CF3B1F800C00CEA03069E425B
:1003500021D183004FF00F0C0CFA03F7BC4305FAD0
:1003600003FC4CEA040491F803C0BCF1280F05D14A
:1003700000F1080C08FA0CF8C2F8148091F803C0D8
:10038000BCF1480F07D100F1080C4FF0010808FA42
:100390000CF8C2F81080401C0828CED35460BDE889
:1003A000F0810000F0B50A4600230024002100255A
:1003B00000F00046B6F1004F02D11D4EF16901E098
:1003C0001B4E7168C0F3034583B200F44016B6F5C6
:1003D000401F08D121F07061154E766826F07066D6
:1003E000134F7E6012E000F48016B6F5801F06D130
:1003F000032606FA05F4A14341F0706106E0460DBC
:10040000360103FA06F6B14341F0706122B1460DA0
:10041000360103FA06F6314300F00046B6F1004F0C
:1004200002D1034EF16101E0014E7160F0BD0000A8
:1004300000000140016170470EE00849C96881F47D
:100440000061064AD160002001E0411C88B242F2FE
:1004500010718842F9DB00BFEFE700000020014087
:100460000948006801280CD10848006848B10748CD
:10047000001F006828B105480838006808B101204D
:1004800070470020FCE700000001214210012342D8
:100490000948006801280CD00848006848B9074896
:1004A000001F006828B105480838006808B101201D
:1004B00070470020FCE700000001214210012342A8
:1004C0000948006801280CD00848006848B107486E
:1004D000001F006828B905480838006808B10120E5
:1004E00070470020FCE70000000121421001234278
:1004F0000948006801280CD00848006848B107483E
:10050000001F006828B105480838006808B90120B4
:1005100070470020FCE70000000121421001234247
:100520000948006801280CD10848006848B9074804
:10053000001F006828B105480838006808B101208C
:1005400070470020FCE70000000121421001234217
:100550000948006801280CD00848006848B90748D5
:10056000001F006828B905480838006808B1012054
:1005700070470020FCE700000001214210012342E7
:1005800000BFFEE77047000002490143024A1160C4
:10059000704700000000FA050CED00E07047000015
:1005A00029B1064A92690243044B9A6104E0034A66
:1005B00092698243014B9A6170470000001002402B
:1005C000704710B500F002F810BD00000CB5002017
:1005D000019000903348006840F480303149086051
:1005E00000BF3048006800F4003000900198401CC3
:1005F0000190009818B90198B0F5A06FF1D1294881
:10060000006800F4003010B10120009001E00020EB
:1006100000900098012843D12348006840F0100062
:10062000214908600846006820F003000860084679
:10063000006840F0020008601A48406819494860A4
:100640000846406848600846406840F4806048605A
:100650000846406820F47C1048600846406840F432
:10066000E81048600846006840F08070086000BFED
:100670000C48006800F000700028F9D00948406874
:1006800020F00300074948600846406840F0020037
:10069000486000BF0348406800F00C000828F9D10A
:1006A0000CBD0000001002400020024010B500F018
:1006B00001F810BD10B51B48006840B1194800682A
:1006C000401E1849086010B901201749087000241D
:1006D00008E004EB4401154A02EB810000F083FAC4
:1006E000601CC4B2042CF4DB11480068401C1049A3
:1006F0000860084600686FF00041884202D100207F
:100700000B49086000F06EFA0A480078401CC0B23D
:10071000084908700A2803DB0020087000F05EFA20
:1007200010BD000000000020040000202400002074
:10073000080000200C00002010B51348006840F0AD
:1007400001001149086008464068104908400E49F8
:100750004860084600680E4908400B490860084692
:10076000006820F4802008600846406820F4FE00FD
:1007700048604FF41F008860FFF723FF4FF00060D0
:100780000449086010BD0000001002400000FFF89E
:10079000FFFFF6FE08ED00E000BFFEE780F31088E3
:1007A000704700000348C06880F400600149C860D9
:1007B000704700000020014010B5044604B910BD88
:1007C000012C00D102240120FFF7E8FF0948046052
:1007D000002009490870FFF7E1FF06E000F08EF8FD
:1007E00005480078012800D100E0F7E700BF00BF0E
:1007F000E5E70000000000200400002070B5054679
:10080000304800EB05142068804700283ED020794E
:10081000052802DA0520207152E020790A2803DA3F
:100820002079401C20714BE0A07A38B90120A072D9
:1008300005EB4501491CC8B200F0C0F92089002829
:100840003EDDE088218988420DDAE088401C80B2D4
:10085000E0802189884233D105EB4501C91CC8B22B
:1008600000F0ACF92CE0E07A002829DDE07A401CA9
:10087000C0B2E072C1B2884222DB0020207305EBD7
:100880004501491CC8B200F099F919E02079052802
:1008900002DD0520207110E0207918B12079401E7A
:1008A00020710AE0A07A012807D10020A07205EB90
:1008B0004501891CC8B200F081F90020E080207356
:1008C00070BD0000540000200B48807A0A4AD27A9A
:1008D000904201D1002070470748807A064A115C97
:1008E0001046807A401CC0B290720A2801DB0020BA
:1008F00090720846EFE70000B4000020704710B582
:100900004FF4A060FFF740FE00F09CF800F01CF8E8
:1009100000F004F800F0C2F810BD000008B5012195
:100920000802FFF73DFE03208DF8020010208DF82D
:100930000300C001ADF8000069460248FFF7A6FCBD
:1009400008BD00000020014010B500F03BF800F0A9
:1009500001F810BD08B501214420FFF721FE012157
:100960001548FFF71FFD0120ADF8000028208DF885
:10097000030069461148FFF789FC1020ADF800001C
:1009800048208DF8030069460D48FFF77FFC0820DA
:10099000ADF8000048208DF8030069460848FFF7CD
:1009A00075FC0420ADF8000048208DF8030069466E
:1009B0000348FFF76BFC08BD00023000000801404F
:1009C000001801400021174A9172D1721173002062
:1009D00018E06421144A02EB001211810221124A2C
:1009E00002EB0012117100210F4A02EB001291720A
:1009F0000D4A02EB0012D1720B4A02EB0012D172C7
:100A0000411CC8B20628E4DB0849074A11600849BE
:100A100011610849116208491163084911640849C4
:100A200011657047B40000205400002061040008E4
:100A300091040008C1040008F10400082105000821
:100A40005105000808B501214820FFF7A9FD012044
:100A500000F09EF8022000F09BF820210D48FFF7DF
:100A6000E9FC20210C48FFF7E5FC03208DF802008B
:100A700010208DF803002020ADF8000069460548DD
:100A8000FFF704FC2020ADF8000069460248FFF79C
:100A9000FDFB08BD000C01400018014070B50020AE
:100AA00016E0002100EB40021F4B03EB8202516075
:100AB00000EB400203EB8202916000EB400203EB8B
:100AC0008202517000EB400203F82210411CC8B2B0
:100AD0000428E6DB154909684FF47A73B1FBF3F299
:100AE000B2F1807F00D31DE022F07F41491E4FF01C
:100AF000E023596159170F23002907DA1C07260E36
:100B00000B4C01F00F052D1F665503E01C07250E49
:100B1000084C655400BF00214FF0E0239961072184
:100B2000196100BF70BD00002400002010000020EB
:100B300018ED00E000E400E010B5002404E02046D9
:100B4000FFF75CFE601CC4B2062CF8DB10BD000091
:100B5000012803D10121044A116004E0022802D1D6
:100B60000121024A1160704794812142940123427D
:100B7000012803D10021044A116004E0022802D1B7
:100B80000021024A1160704794812142940123425E
:100B9000012806D10749096881F02001054A116042
:100BA00007E0022805D10449096881F02001024AC2
:100BB000116070470C0C01400C1801400649C97ABD
:100BC000054A50541146C97A491CC9B2D1720A2942
:100BD00001DB0021D1727047B400002010B5FFF78F
:100BE000ABFF10BD7047416851B14168491E41607B
:100BF00031B9012141700178012901D18168416039
:100C0000704710B504462046FFF7D6FD10BDFFF72C
:100C100076FE5EE0FFF772FEFFF756FE0446002CFC
:100C200054DD0A2C17D006DC012C09D0042C0AD084
:100C3000072C49D10BE00D2C14D0102C44D12AE004
:100C4000FFF7B0FD41E00220FFF7A2FF3DE00220E8
:100C5000FFF79EFF39E00120FFF79AFF0220FFF720
:100C600097FF32E00120FFF773FF0220FFF770FFCC
:100C700000250DE00120FFF77BFFFA20FFF79CFD28
:100C80000120FFF765FFFA20FFF796FD681CC5B24B
:100C9000032DEFDB19E00120FFF75AFF0220FFF7D9
:100CA00057FF00250DE00220FFF762FFFA20FFF753
:100CB00083FD0220FFF74CFFFA20FFF77DFD681C43
:100CC000C5B2032DEFDB00E000BF00BF0A20FFF735
:100CD00098FF9FE7F40C00080000002024000000AB
:100CE0006C010008180D0008240000200407000013
:100CF0008801000800000000000000000000000063
:100D00000000000000A24A040000000000000000F3
:080D10000102030406070809B3
:0400000508000131BD
:00000001FF
