:020000040800F2
:10000000B8060020CD010008650400083904000886
:10001000610400088702000879060008000000005B
:10002000000000000000000000000000A104000823
:100030008B020008000000007D0400088D05000808
:10004000E7010008E7010008E7010008E7010008F0
:10005000E7010008E7010008E7010008E7010008E0
:10006000E7010008E7010008E7010008E7010008D0
:10007000E7010008E7010008E7010008E7010008C0
:10008000E7010008E7010008E7010008E7010008B0
:10009000E7010008E7010008E7010008E7010008A0
:1000A000E7010008E7010008E7010008E701000890
:1000B000E7010008E7010008E7010008E701000880
:1000C000E7010008E7010008E7010008E701000870
:1000D000E7010008E7010008E7010008E701000860
:1000E000E7010008E7010008E7010008E701000850
:1000F000E7010008E7010008E7010008E701000840
:10010000E7010008E7010008E7010008E70100082F
:10011000E7010008E7010008E7010008E70100081F
:10012000E7010008E7010008E7010008E70100080F
:1001300000F002F800F03AF80AA090E8000C8244BF
:100140008344AAF10107DA4501D100F02FF8AFF29C
:10015000090EBAE80F0013F0010F18BFFB1A43F0A5
:100160000103184788080000A8080000103A24BFBF
:1001700078C878C1FAD8520724BF30C830C144BF0C
:1001800004680C607047000000230024002500264E
:10019000103A28BF78C1FBD8520728BF30C148BFEA
:1001A0000B6070471FB51FBD10B510BD00F031F8D2
:1001B0001146FFF7F7FF00F0EDFB00F04FF803B436
:1001C000FFF7F2FF03BC00F057F800000948804732
:1001D00009480047FEE7FEE7FEE7FEE7FEE7FEE729
:1001E000FEE7FEE7FEE7FEE704480549054A064B41
:1001F000704700001906000831010008B80000200F
:10020000B8060020B8020020B802002070477047EE
:100210007047754600F02CF8AE4605006946534617
:1002200020F00700854618B020B5FFF7DDFFBDE8D8
:1002300020404FF000064FF000074FF000084FF04D
:10024000000B21F00701AC46ACE8C009ACE8C009DE
:10025000ACE8C009ACE8C0098D46704710B504464B
:10026000AFF300802046BDE81040FFF7A8BF0000B4
:10027000004870475400002001491820ABBEFEE73B
:1002800026000200704700BFFEE770472DE9F041ED
:10029000024600250026002000230024002791F8B4
:1002A00003C00CF00F0591F803C00CF0100CBCF16A
:1002B000000F03D091F802C04CEA050591F800C088
:1002C000BCF1000F31D0146800202BE04FF0010C7E
:1002D0000CFA00F3B1F800C00CEA03069E4220D1EC
:1002E00083004FF00F0C0CFA03F7BC4305FA03FC34
:1002F0004CEA040491F803C0BCF1280F06D14FF07A
:10030000010C0CFA00FCC2F814C00AE091F803C01A
:10031000BCF1480F05D14FF0010C0CFA00FCC2F8FB
:1003200010C0401C0828D1D31460B1F800C0BCF143
:10033000FF0F34DD546800202EE000F1080C4FF070
:10034000010808FA0CF3B1F800C00CEA03069E425B
:1003500021D183004FF00F0C0CFA03F7BC4305FAD0
:1003600003FC4CEA040491F803C0BCF1280F05D14A
:1003700000F1080C08FA0CF8C2F8148091F803C0D8
:10038000BCF1480F07D100F1080C4FF0010808FA42
:100390000CF8C2F81080401C0828CED35460BDE889
:1003A000F0810000F0B50A4600230024002100255A
:1003B00000F00046B6F1004F02D11D4EF16901E098
:1003C0001B4E7168C0F3034583B200F44016B6F5C6
:1003D000401F08D121F07061154E766826F07066D6
:1003E000134F7E6012E000F48016B6F5801F06D130
:1003F000032606FA05F4A14341F0706106E0460DBC
:10040000360103FA06F6B14341F0706122B1460DA0
:10041000360103FA06F6314300F00046B6F1004F0C
:1004200002D1034EF16101E0014E7160F0BD0000A8
:1004300000000140016170470EE00849C96881F47D
:100440000061064AD160002001E0411C88B242F2FE
:1004500010718842F9DB00BFEFE700000020014087
:1004600000BFFEE77047000002490143024A1160E5
:10047000704700000000FA050CED00E07047000036
:1004800029B1064A92690243044B9A6104E0034A87
:1004900092698243014B9A6170470000001002404C
:1004A000704710B500F002F810BD00000CB5002038
:1004B000019000903348006840F480303149086072
:1004C00000BF3048006800F4003000900198401CE4
:1004D0000190009818B90198B0F5A06FF1D12948A2
:1004E000006800F4003010B10120009001E000200D
:1004F00000900098012843D12348006840F0100084
:10050000214908600846006820F00300086008469A
:10051000006840F0020008601A48406819494860C5
:100520000846406848600846406840F4806048607B
:100530000846406820F47C1048600846406840F453
:10054000E81048600846006840F08070086000BF0E
:100550000C48006800F000700028F9D00948406895
:1005600020F00300074948600846406840F0020058
:10057000486000BF0348406800F00C000828F9D12B
:100580000CBD0000001002400020024010B500F039
:1005900001F810BD10B51B48006840B1194800684B
:1005A000401E1849086010B901201749087000243E
:1005B00008E004EB4401154A02EB810000F0D6F993
:1005C000601CC4B2042CF4DB11480068401C1049C4
:1005D0000860084600686FF00041884202D10020A0
:1005E0000B49086000F0C1F90A480078401CC0B20D
:1005F000084908700A2803DB0020087000F0B4F9ED
:1006000010BD000000000020040000202400002095
:10061000080000200C00002010B51348006840F0CE
:1006200001001149086008464068104908400E4919
:100630004860084600680E4908400B4908600846B3
:10064000006820F4802008600846406820F4FE001E
:1006500048604FF41F008860FFF723FF4FF00060F1
:100660000449086010BD0000001002400000FFF8BF
:10067000FFFFF6FE08ED00E000BFFEE780F3108804
:10068000704700000348C06880F400600149C860FA
:10069000704700000020014010B5044604B910BDA9
:1006A000012C00D102240120FFF7E8FF0948046073
:1006B000002009490870FFF7E1FF06E000F00EF89E
:1006C00005480078012800D100E0F7E700BF00BF2F
:1006D000E5E700000000002004000020704710B58E
:1006E0004FF4A060FFF7C0FE00F056F800F01CF8D1
:1006F00000F004F800F07CF810BD000008B50121FE
:100700000802FFF7BDFE03208DF8020010208DF8CF
:100710000300C001ADF8000069460248FFF7B6FDCE
:1007200008BD00000020014008B501214420FFF76A
:10073000A7FE01211548FFF735FE1020ADF8000097
:1007400048208DF8030069461148FFF79FFD0820F7
:10075000ADF8000048208DF8030069460C48FFF70B
:1007600095FD0420ADF8000048208DF8030069468F
:100770000748FFF78BFD0120ADF8000028208DF819
:10078000030069460348FFF781FD08BD0002300001
:10079000001801400008014008B501214820FFF77A
:1007A0006FFE012000F0CAF8022000F0C7F82021F7
:1007B0000D48FFF73FFE20210C48FFF73BFE0320CA
:1007C0008DF8020010208DF803002020ADF8000005
:1007D00069460548FFF75AFD2020ADF8000069463C
:1007E0000248FFF753FD08BD000C0140001801400E
:1007F00070B5002016E0002100EB40021F4B03EB18
:100800008202516000EB400203EB8202916000EB38
:10081000400203EB8202517000EB400203F8221009
:10082000411CC8B20428E6DB154909684FF47A7305
:10083000B1FBF3F2B2F1807F00D31DE022F07F41E3
:10084000491E4FF0E023596159170F23002907DA99
:100850001C07260E0B4C01F00F052D1F665503E0FB
:100860001C07250E084C655400BF00214FF0E02303
:1008700099610721196100BF70BD000024000020AC
:100880001000002018ED00E000E400E010B5294859
:10089000006801280FD10A2000F076F8254800688A
:1008A000012806D100BF234800680128FBD00120A1
:1008B00010BD0020FCE72048006870B90A2000F055
:1008C00063F81D48006830B900BF1B480068002865
:1008D000FBD00220ECE70020EAE71748001F006881
:1008E00080B90A2000F050F81348001F006838B99A
:1008F00000BF1148001F00680028FAD00320D7E786
:100900000020D5E70C480838006880B90A2000F0BC
:100910003BF809480838006838B900BF064808386D
:1009200000680028FAD00420C2E70020C0E70020B9
:10093000BEE700000001214210012342012806D138
:100940000749096881F02001054A116007E0022883
:1009500005D10449096881F02001024A11607047FD
:100960000C0C01400C18014070477047416851B1B0
:100970004168491E416031B9012141700178012966
:1009800001D181684160704710B504462046FFF7E9
:1009900083FE10BDFFF7A3FE26E0FFF79FFEFFF7E3
:1009A00075FF0446002C1CDD012C06D0022C07D05C
:1009B000032C09D0042C12D10AE0FFF763FE0FE0EC
:1009C0000120FFF7BBFF0BE00220FFF7B7FF07E0B6
:1009D0000120FFF7B3FF0220FFF7B0FF00E000BFE8
:1009E00000BF0A20FFF7D0FFD7E700000C0A00087D
:1009F00000000020240000006C010008300A0008FC
:100A00002400002094060000880100080000000077
:100A100000000000000000000000000000A24A04E6
:100A2000000000000000000001020304060708099E
:0400000508000131BD
:00000001FF
