:020000040800F2
:10000000400B0020F9010008091B0008BD19000879
:10001000051B0008B316000871220008000000004C
:10002000000000000000000000000000AD1E0008FD
:10003000B117000800000000911B0008991F00087C
:100040008D220008130200081302000813020008A2
:10005000130200081302000813020008130200082C
:10006000130200081302000813020008130200081C
:10007000130200081302000813020008130200080C
:1000800013020008130200081302000813020008FC
:1000900013020008130200081302000813020008EC
:1000A00013020008130200081302000813020008DC
:1000B00013020008130200081302000813020008CC
:1000C00013020008130200081302000813020008BC
:1000D000130200088520000813020008130200081C
:1000E000130200081302000813020008130200089C
:1000F000130200081302000813020008130200088C
:10010000130200081302000813020008130200087B
:10011000130200081302000813020008130200086B
:10012000130200081302000813020008130200085B
:1001300000F002F800F050F80AA090E8000C8244A9
:100140008344AAF10107DA4501D100F045F8AFF286
:10015000090EBAE80F0013F0010F18BFFB1A43F0A5
:1001600001031847502E0000702E0000103A24BFE3
:1001700078C878C1FAD8520724BF30C830C144BF0C
:1001800004680C607047000000230024002500264E
:10019000103A28BF78C1FBD8520728BF30C148BFEA
:1001A0000B607047662902F04386642900F0A28044
:1001B000782900F0DB80732900F01E84002070474E
:1001C0001FB500F02FFC04000020002102F060FCAD
:1001D000E0601FBD10B510BD00F040FD1146FFF7F7
:1001E000EFFF02F0FBFB00F05EFD03B4FFF7F2FF50
:1001F00003BC02F07BF8000009488047094800472B
:10020000FEE7FEE7FEE7FEE7FEE7FEE7FEE7FEE7C6
:10021000FEE7FEE704480549054A064B7047000023
:10022000252000083101000840050020400B002077
:100230004007002040070020704700000FB4044929
:1002400010B503AA029800F0DBFB10BC5DF814FBAC
:100250001400002070B5044685690068C10601D508
:10026000302600E02026C00707D070BDD4E9012168
:1002700030469047206A401C20626D1EF6D570BD46
:1002800070B5044685690078C00707D170BDD4E910
:10029000012120209047206A401C20626D1EF6D567
:1002A00070BD70B50C460546012A05D02878800639
:1002B00000D5EA69002302E0012305E05B1C9342BC
:1002C00002D2E05C0028F9D1A869E618C01AA8613A
:1002D000286A184428622846FFF7BCFF04E0D5E9E5
:1002E000012114F8010B9047B442F8D32846FFF7D8
:1002F000C7FF70BD2DE9F04106460024106875293E
:10030000314616A510D0AFF30080002802DA404233
:1003100013A507E031688A0701D512A502E0490755
:1003200004D511A5012401E0AFF3008000210A22C9
:1003300006F1240709E0B0FBF2FCB0FBF2F302FB8C
:100340001C00303078541846491C0028F3D123464D
:100350002A463046BDE8F04100F0D4B80000000065
:100360002D0000002B0000002000000070B50446A6
:100370000D4621461068AFF300802188090502D59B
:100380000F4A7A4402E00E4A7A440E32002104F108
:10039000240305E000F00F060009965D5E54491C39
:1003A0000028F7D120780023000704D5702D02D053
:1003B00009B1022311322046BDE8704000F0A2B816
:1003C000AE2A00002DE9F05F894604464FF0000A8E
:1003D000DFF824B1FB44C0F820A02046E16888473C
:1003E00000287DD0252806D0D4E901219047206A35
:1003F000401C2062F1E700255F462046E1688847FF
:100400002028064607DB312E05D2B81910F8200C3B
:1004100008B10543F1E7A80701D525F00405C4F8A4
:100420001CA00027C4F818A02A2E09D0304601F0DD
:1004300056FF38B304EB8708303EC8F8186019E05F
:1004400059F8041B204604EB87029161E168884754
:10045000012F064618D1E069002820DA25F0200592
:100460001DE0D8F8180000EB800006EB40003038A3
:10047000C8F818002046E1688847064601F02FFFBB
:100480000028EED1012F0AD02E2E08D12046E16897
:1004900088477F1C0646022F45F02005C4DBA06973
:1004A000002803DA404245F00105A061E80701D0C9
:1004B00025F01005A6B1A6F14100192802D8203672
:1004C00045F400654A463146204625604D46FFF713
:1004D00069FE60B1012807D0ED1D25F0070000E09E
:1004E00007E000F1080978E705F1040975E73046EF
:1004F0007AE7206ABDE8F09F842A000070477047C1
:10050000704770472DE9F0470D46994692460446DC
:1005100000F124080168880604D5E06921F0100183
:10052000216000E00120A84201DD471B00E0002718
:10053000A1697A1902EB0900081AA0612078C006A7
:1005400002D42046FFF786FE002608E0D4E9012108
:100550001AF806009047206A401C761C20624E451F
:10056000F4DB2078C0060AD52046FFF773FE06E0CC
:10057000D4E9012130209047206A401C2062381EB7
:10058000A7F10107F4DC07E0D4E9012118F8050020
:100590009047206A401C2062281EA5F10105F3DC6B
:1005A0002046FFF76DFE2078000602D50220BDE848
:1005B000F0870120FBE770472DE9FF4F0C461E46F0
:1005C0004FF0FF378BB0D2E90001DDF860800A9070
:1005D0008A46C1F30A5505B93D46002108464FF049
:1005E0000000BAF1000F00F4400005DA00EB8000D3
:1005F0004FF4400101EA50004FEA9059B9F1010F60
:1006000000DDB9460A9850EA4A000ED044F6105070
:10061000A5F2FF3545432F14B8F1000F1ED07542E7
:10062000291E1EDDC9F100021CE0B8F1010F4FF0D8
:10063000000001D0302103E0F24305E02154401CCA
:10064000B042FBDB30460022002121540B99C1F857
:100650000880C1E900200FB0BDE8F08FBD1B6D1C04
:10066000DEE74A4600DA694206A800F07DFA06ABEA
:1006700093E8070003AB83E8070050460A9900F0AF
:100680005BFB8DE80700A0F500501F380090039831
:10069000002D0ADD42F21F014A460844002303A947
:1006A0000390684600F0C4FD09E0A0F500504A46FA
:1006B0001F38002303A90390684600F0CEFD8DE8A3
:1006C00007000004000C03D04FF0FF30410800E0A9
:1006D0001046B8F1000F03D00022009215461EE02C
:1006E000751E05D400F0A2F9303262556D1EF9D5A1
:1006F000B3460122084302D000227F1C04E0207888
:10070000302801D100227F1E002A099784D01DE0E5
:10071000112D07DA00F08AF9303262556D1C50EA6B
:100720000102F5D1084302D00098C8B10EE00021C3
:10073000681E05E0235C625C63542254401E491C21
:100740008142F7DBAB46A81B401E0990002004F84D
:100750000B000B98099AC0F80880C0E9002B7AE7D3
:1007600011264FF0000857E72DE9F04F8846044660
:10077000D21D22F0070191B0D1E90001CDE90A01B3
:1007800001F096FD02460B98C00F01D02D2007E026
:100790002068810701D52B2002E0202101EAC0005A
:1007A000032A099001D0072A05DB0346414620466B
:1007B00000F09AF90BE12078800601D5E06900E0AD
:1007C0000620B8F1650F814606D0B8F1660F18D043
:1007D000B8F1670F70D131E00020B9F1110F00902E
:1007E00001DB112301E009F101030AAA01A90CA808
:1007F000FFF7E2FEDDE90C70002609F101058346F2
:1008000047E001204B4600904FF000470AAA01A99B
:100810000CA8FFF7D1FEDDE90DB00C995D4600266E
:1008200010B909F101000D18B9EB050003D4C0F1AE
:10083000FF3609F10105A5EB09002BE0B9F1010F25
:1008400001DA4FF001090020B9F1110F009048467C
:1008500001DD112300E003460AAA01A90CA8FFF755
:10086000ABFEDDE90C704D4600268346207800077C
:100870000AD4AB4500DA5D4601A8012D04DD41191B
:1008800011F8011C302907D04F4502DA17F1040F87
:1008900004DA012082460FE06D1EEEE7002F02DC35
:1008A000ED1B3E4403E0781CA84200DD7D1CB81B14
:1008B00000F1010A4FF000472078000703D4AA4551
:1008C00001DB4FF0FF3A0021B7F1004F0DF1430873
:1008D0008DF8431024D002202B23002F01DA7F4211
:1008E0002D230A21021EA0F1010000DC5FB197FB5D
:1008F000F1FC97FBF1F201FB1C7C17460CF1300C6C
:1009000008F801CDEEE7A8F1010003702188090580
:1009100001D5452100E06521A0F1010800F8011C86
:1009200009980FA9A1EB0807FF1D00B1012041198B
:1009300001EBEA70A1693844081A401EA0612078D2
:10094000C00602D42046FFF785FC099828B1D4E9F7
:1009500001219047206A401C20622078C00622D5E1
:100960002046FFF777FC1EE0002E04DBB34502DDD6
:1009700001A8805D00E03020D4E901219047206A81
:10098000401C2062761CAAF101005FEA000A0AD12D
:1009900000F048F8C0680168405CD4E90121904744
:1009A000206A401C2062281EA5F10105DCDC07E05E
:1009B000D4E9012118F8010B9047206A401C2062FD
:1009C000381EA7F10107F3DC2046FFF759FC03208E
:1009D00011B041E610B5436913B1AFF3008001E0F7
:1009E000FFF75FFC012010BD127800F124010A70AE
:1009F00000224A700122EDE711684FF0FF32E9E76B
:100A0000074B70B50D467B4400F05BF80446284662
:100A100000F01CF910B14FF0FF3070BD204670BDE2
:100A2000B71F0000004870470005002030B5B0F146
:100A30000A024FEA900E71F100034EEA817EB0EB9C
:100A40000E0061EB91014FEA101E4EEA017E10EBA1
:100A50000E0041EB11114FEA102E4EEA016E10EB21
:100A60000E0041EB11214FEA104E4EEA014E10EB01
:100A70000E0041EB1141401841F100014FEAD00056
:100A800040EA41704FEAD10110EB80054FEA810442
:100A900044EA907444EB01046D1944EB0404521BC6
:100AA000A3414FF0000348BF0A3200D530BD401CBF
:100AB00041F1000130BD000001694A1C0261087863
:100AC000704700B58FB0CDE901310021059105498E
:100AD0007944CDE9031011466846FFF773FC0FB067
:100AE00000BD0000E5FFFFFF2DE9F0411F46044671
:100AF00003260168072A01F4006004DB08B116A58B
:100B000005E016A503E008B115A500E015A521F044
:100B100010002060A069C01EA0610FB1401EA0613E
:100B20002046FFF797FB4FB1D4E9012138469047A3
:100B3000206A401C2062C01C206206E0206AFAE79E
:100B4000D4E9012115F8010B9047761EF8D2204612
:100B5000FFF796FBBDE8F0814E414E006E616E00DE
:100B6000494E4600696E66002DE9F04781461646FB
:100B70008AB0354878440DC88DE80D003248784475
:100B8000801C03AC0DC884E80D0041F69B3008447E
:100B9000372190FBF1F290FBF1F5A5F1800501FB07
:100BA00012041B3C02D56442012000E00020DFF863
:100BB00098A080460027FA44AAF1BE0A0EE0E0079A
:100BC0000AD03246684607EB470101230AEB810150
:100BD00000F043FB8DE8070064107F1C002CEED171
:100BE000194F7F44AE3F19E0E80715D007EB04101A
:100BF0000DF1180A90E80E008AE80E00C068F04275
:100C000001D1981908903246012306A903A800F0E3
:100C100024FB03AB83E807006D10641C002DE3D1B7
:100C20004FF0010332466946B8F1000F03A802D025
:100C300000F0FEFA01E000F010FBC9E90001C9F87C
:100C400008200AB0BDE8F08774230000007B00F0A4
:100C50008000704700487047E00400207546FFF7A9
:100C6000F9FFAE4605006946534620F00700854669
:100C700018B020B5FFF7CEFABDE820404FF00006CF
:100C80004FF000074FF000084FF0000B21F0070174
:100C9000AC46ACE8C009ACE8C009ACE8C009ACE8B7
:100CA000C0098D46704710B50446AFF3008020465A
:100CB000BDE81040FFF799BA4FF0013C50F8042B03
:100CC00051F8043B9A4221D1A2EB0C03934313EA5F
:100CD000CC1317D150F8042B51F8043B9A4215D18C
:100CE000A2EB0C03934313EACC130BD150F8042B63
:100CF00051F8043B9A4209D1A2EB0C03934313EA47
:100D0000CC13DBD04FF00000704700BFD01A01BAFF
:100D1000B1FA81F101F0180122FA01F0CB40C1F1E2
:100D20002001DBB2C0B2C01A2CFA01F3D11A9143F0
:100D300011EAC311E6D170475FEA400C08BF91F099
:100D4000000F4FEA8C234FEAC12243EA51514FEA88
:100D50001C5018BF00F5F0404FEA300018BF41F0BA
:100D600000415FEA6C5C00F02980BCF1FF3F08BFE6
:100D700040F080407047130C06BF12044FF0100C77
:100D80004FF0000C130E04BF12020CF1080C130FED
:100D900004BF12010CF1040C930F04BF92000CF17C
:100DA000020CD30F04BF52000CF1010C11464FF09E
:100DB0000002A0F11F00A0EB0C00704711F0004FE3
:100DC00008BF704731F000413FF4D5AF0B0C06BFB0
:100DD00009044FF0100C4FF0000C0B0E04BF090279
:100DE0000CF1080C0B0F04BF09010CF1040C8B0F64
:100DF00004BF89000CF1020CCB0F04BF49000CF1B9
:100E0000010CCCF12003A0EB0C0022FA03F302FA50
:100E10000CF241EA030100F10100704720F07F4C21
:100E200080EA030023F07F47ACEB070303F57C5314
:100E300000F0004003F1FF032DE980494FEA154B14
:100E400009B44FEA144325EA0B4E24EA03480FF293
:100E5000042606EB132749083E785FEA320203FBBB
:100E60000667C7F5000707FB06F64FEA54374FEA57
:100E7000D64606F1020607FB066CCCF1005C4FEA91
:100E80001C472CEA074C07FB06F40CFB06F504EBA9
:100E900015464FEA961634BF00204FF000404FEA47
:100EA000D13706FB07FC4FEA1C4C0CFB0BF7D21B9F
:100EB00003FB0CF761EB07010CFB0EF7B0EB0740EF
:100EC00072EB17420CFB08F734BFA2EB0742B2EB00
:100ED000074261EB17414FEA0C444FEA910706FBCA
:100EE00007FC4FEA1C4C0CFB0BF7B0EBC74072EB56
:100EF000573203FB0CF734BFA2EBC742B2EBC74239
:100F000061EB57310CFB0EF7B0EBC70072EB577279
:100F10000CFB08F734BFA2EBC702B2EBC70261EBD0
:100F20005771039F4FEA816141EA921104EBCC04AF
:100F30004FEAD1374FEA826206FB07FC42EA901281
:100F40004FEA80604FEA1C4C0CFB0BF7D21B03FBF3
:100F50000CF761EB07010CFB0EF7B0EB074072EBEF
:100F600017420CFB08F734BFA2EB0742B2EB074273
:100F700061EB17414FEA8C554FEA910704EB9C2433
:100F800006FB07FC4FEA1C4C0CFB0BF7B0EBC74011
:100F900072EB573203FB0CF734BFA2EBC742B2EB44
:100FA000C74261EB57310CFB0EF7B0EBC70072EB99
:100FB00057720CFB08F734BFA2EBC702B2EBC702B3
:100FC00061EB577115EB4C254FEA816141EA9211B3
:100FD0004FEA82624FEAD13742EA901206FB07FCE1
:100FE00044F100044FEA80604FEA1C4C0CFB0BF705
:100FF000D21B03FB0CF761EB07010CFB0EF7B0EB08
:10100000074072EB17420CFB08F734BFA2EB074214
:10101000B2EB074261EB174115EB1C154FEA81312A
:1010200041EA92414FEA823242EA90424FEA8030EE
:101030004FEA0C7644F1000448EA03434EEA0B48B9
:101040004FF0000EB2EB080C71EB030724BF6246B1
:1010500039464EEB0E0E4FF0000B0018524149413D
:101060004BEB0B0BB2EB080C71EB03077BF1000BA6
:1010700024BF624639464EEB0E0E4FF0000B0018AF
:10108000524149414BEB0B0BB2EB080C71EB0307E0
:101090007BF1000B24BF624639464EEB0E0E51EA3F
:1010A000020718BF46F0010616EB0E7655F1000256
:1010B00054F1000103D5BDE88901BDE80088BDE811
:1010C0008901BDE80048B619524141EB0101A3F185
:1010D0000103704780807F7E7D7C7B7A797877768C
:1010E00076757473727171706F6E6E6D6C6C6B6A05
:1010F0006A696868676666656464636362616160A3
:10110000605F5F5E5E5D5D5C5C5B5B5A5A5959581F
:101110005857575656555555545453535252525189
:10112000515050504F4F4F4E4E4D4D4D4C4C4C4BDF
:101130004B4B4A4A4A494949484848474747474626
:101140004646454545444444444343434342424262
:1011500042414141002B9C4630D477002BD01CB536
:101160004FEA370703B44FF010004FF01001BAF107
:10117000000F06D0BCF1000FDCBF40F0080040F0CB
:1011800008014FF000000FBCBDE810400BF1010B4F
:10119000BBF1010F08BF5FEA170722BF12F101027E
:1011A00011F101014FF0004143F1000300F0004054
:1011B00043EA00007047F9D35708D0E746EA0646ED
:1011C00013F1400F4FEA16461FDD13F1200FDFBF6A
:1011D00016430A46002120335B42BED0C3F12007EC
:1011E00046EA064602FA07F74FEA164646EA0706B7
:1011F000C3F1200722FA03F201FA07F721FA03F1FB
:101200004FF0000342EA0702A7E746EA020646EA71
:1012100006464FEA164646EA0106BCBF46EA0646BF
:10122000360C4FF000034FF000024FF0000194E73E
:101230002DE9804C9A46934670B491E8380007C86F
:1012400031EA400C48BF34EA430C03D5FFF7E6FD12
:10125000FFF780FFF0BCBDE8008C2DE9804C9A467A
:10126000934670B491E8380007C810F0804F08BF6B
:1012700013F0804F03D100F005F8FFF76BFFF0BCCF
:10128000BDE8008C20F07F4780EA030023F07F4C0C
:1012900007EB0C03A3F57C5300F00040A3F1FE0321
:1012A00092F0000F00F0B38095F0000F00F077800F
:1012B0002DE901494FEA11404FEA144621EA00485E
:1012C00000FB06FC24EA064708FB06F607FB08F8C5
:1012D00000FB07F718EB06484CEB164C4FEA124B95
:1012E00018EB07484FEA15464CEB174022EA0B4E25
:1012F0000BFB06FC25EA06470EFB06F607FB0EFE77
:101300000BFB07F71EEB064E4CEB164C4FF000069E
:101310001EEB074E4CEB174B18EB0B0840F100008F
:1013200018EB0E0B58EB000840F100008F1A4FF03D
:1013300000013CBFC943661B14BFB5EB040C002180
:101340003CBFC943F61B4FEA17444EEA8E0E27EA0C
:1013500004454FEA1C4704FB07622CEA074C05FBD7
:1013600007F70CFB05F604FB0CFC16EB074642EBFB
:10137000174216EB0C4642EB1C421BEB060658EBE1
:101380000202414146EA9E0601D5BDE80189B6192F
:10139000524141EB0101A3F10103BDE801894FEA8C
:1013A00014454FEA114724EA054621EA074C05FB9C
:1013B00007F406FB07F70CFB06F105FB0CFC11EB31
:1013C000074144EB17444FEA124711EB0C4144EB41
:1013D0001C4422EA074C05FB07F206FB07F70CFB4F
:1013E00006F605FB0CFC16EB074642EB174216EB24
:1013F0000C4642EB1C456A1854F1000148BF704787
:10140000B619524141EB0101A3F10103704795F078
:10141000000F37D04FEA11424FEA144721EA024643
:1014200024EA074C02FB07F106FB07F70CFB06F466
:1014300002FB0CFC14EB074441EB17414FEA154744
:1014400014EB0C4441EB1C4125EA074C02FB07F569
:1014500006FB07F70CFB06F602FB0CFC16EB074637
:1014600045EB174516EB0C4645EB1C42121951F1A2
:10147000000148BF7047B619524141EB0101A3F189
:10148000010370474FEA14454FEA114724EA054625
:1014900021EA074C05FB07F106FB07F70CFB06F2F8
:1014A0004FF0000605FB0CFC12EB074241EB174125
:1014B00012EB0C4251EB1C4148BF7047921841EBB4
:1014C0000101A3F10103704721B1826842F00102DA
:1014D000826003E0826822F00102826070470000AF
:1014E00010B504461248844208D10121401500F08D
:1014F00063FC0021601500F05FFC17E00D4884429A
:1015000008D10121001500F057FC0021201500F042
:1015100053FC0BE00848844208D10121C80300F0C5
:101520004BFC00214FF4004000F046FC10BD0000D1
:101530000024014000280140003C014001460020F9
:101540008A6802F004020AB1012000E0002070471E
:101550000146C86C80B270470246002013680B40F9
:101560000BB1012000E000207047014600208A688E
:1015700002F008020AB1012000E0002070470000DC
:1015800030B502460020002350680F4C20400D79F2
:101590000C6844EA05242043506090680B4C2040BE
:1015A000D1E902542C434D7944EA4504204390602C
:1015B000D06A20F470000C7C641EE4B2234340EA3D
:1015C0000350D06230BD0000FFFEF0FFFDF7F1FFD9
:1015D000F0B504460D4600200021092D11DDE0681C
:1015E000A5F10A0606EB4607072606FA07F1884327
:1015F000A5F10A0606EB460603FA06F10843E06089
:101600000CE0206905EB4507072606FA07F1884339
:1016100005EB450603FA06F108432061072A0FDAB5
:10162000606B561E06EB86071F2606FA07F18843F5
:10163000561E06EB860605FA06F10843606322E0B3
:101640000D2A0FDA206BD61F06EB86071F2606FA37
:1016500007F18843D61F06EB860605FA06F1084314
:10166000206310E0E06AA2F10D0606EB86071F2654
:1016700006FA07F18843A2F10D0606EB860605FA85
:1016800006F10843E062F0BD816841F00801816025
:10169000704721B1826842F4A002826003E0826850
:1016A00022F4A00282607047816841F004018160E9
:1016B000704700BFFEE7000039B1084A12680123F5
:1016C00083401A43054B1A6006E0044A126801235E
:1016D00083409A43014B1A60704700000074004039
:1016E0002DE9F0470024A14600F05EF904462046AB
:1016F00001F040FB824601F011FB07464FF06632D5
:10170000084B01F00DFA054601F0D8F9814648462C
:1017100001F004FB05462A460B4603A0FEF78EFDAA
:10172000BDE8F08766664A3FB2E2C1BFB5BD20445E
:10173000414320CAE4B3F6B5C4B5E7D1B9D6B5CEB6
:10174000AA252E346656202D2D2D2D2D2D2D2D2DF7
:101750002D2D2D2D2D2D2D0D0A0D0A0030B5002219
:1017600000230A4C226840F6FE748440A243D1E96B
:1017700000452C438D682C43CD6844EA050303FAE9
:1017800000F42243014C226030BD00000074004090
:1017900008B500220092054A009200F10802009B61
:1017A0001A440092009A116008BD000000740040C5
:1017B00070472DE9F0410246002500260020002355
:1017C0000024002791F803C00CF00F0591F803C026
:1017D0000CF0100CBCF1000F03D091F802C04CEAE1
:1017E000050591F800C0BCF1000F31D0146800204D
:1017F0002BE04FF0010C0CFA00F3B1F800C00CEA3A
:1018000003069E4220D183004FF00F0C0CFA03F721
:10181000BC4305FA03FC4CEA040491F803C0BCF194
:10182000280F06D14FF0010C0CFA00FCC2F814C0CE
:101830000AE091F803C0BCF1480F05D14FF0010C4C
:101840000CFA00FCC2F810C0401C0828D1D3146068
:10185000B1F800C0BCF1FF0F34DD546800202EE069
:1018600000F1080C4FF0010808FA0CF3B1F800C0C1
:101870000CEA03069E4221D183004FF00F0C0CFAB4
:1018800003F7BC4305FA03FC4CEA040491F803C0D7
:10189000BCF1280F05D100F1080C08FA0CF8C2F8C9
:1018A000148091F803C0BCF1480F07D100F1080C77
:1018B0004FF0010808FA0CF8C2F81080401C082804
:1018C000CED35460BDE8F081F0B50A460023002471
:1018D0000021002500F00046B6F1004F02D11D4E58
:1018E000F16901E01B4E7168C0F3034583B200F457
:1018F0004016B6F5401F08D121F07061154E76688C
:1019000026F07066134F7E6012E000F48016B6F584
:10191000801F06D1032606FA05F4A14341F0706149
:1019200006E0460D360103FA06F6B14341F0706158
:1019300022B1460D360103FA06F6314300F00046A7
:10194000B6F1004F02D1034EF16101E0014E71602A
:10195000F0BD0000000001400161704710B5044671
:1019600001212046FFF795FE00BF02212046FFF728
:10197000F3FD0028F9D02046FFF7EAFD10BD2DE960
:10198000F04107460C460025002605E03846FFF7E3
:10199000E5FF0544701CC6B2A642F7DBB5FBF4F0C8
:1019A00080B2BDE8F081000010B514210248FFF7B5
:1019B000E6FF0446204610BD002401400EE0084921
:1019C000C96881F40061064AD160002001E0411C31
:1019D00088B242F210718842F9DB00BFEFE70000E5
:1019E000002001400948006801280CD1084800681F
:1019F00048B10748001F006828B10548083800684A
:101A000008B1012070470020FCE7000000012142DE
:101A1000100123420948006801280CD008480068DA
:101A200048B90748001F006828B105480838006811
:101A300008B1012070470020FCE7000000012142AE
:101A4000100123420948006801280CD008480068AA
:101A500048B10748001F006828B9054808380068E1
:101A600008B1012070470020FCE70000000121427E
:101A7000100123420948006801280CD0084800687A
:101A800048B10748001F006828B1054808380068B9
:101A900008B9012070470020FCE700000001214246
:101AA000100123420948006801280CD10848006849
:101AB00048B90748001F006828B105480838006881
:101AC00008B1012070470020FCE70000000121421E
:101AD000100123420948006801280CD0084800681A
:101AE00048B90748001F006828B905480838006849
:101AF00008B1012070470020FCE7000000012142EE
:101B00001001234200BFFEE77047000070B50021BE
:101B100000230F22C47804B3154C246804F4E06455
:101B2000C4F5E064210AC1F10403CA40447804FA10
:101B300003F184781440214309010E4C0678A15525
:101B4000047804F01F050124AC4005786D11AD0048
:101B500005F1E025C5F8004109E0047804F01F050F
:101B60000124AC40044D0678761145F8264070BD3E
:101B70000CED00E000E400E080E100E002490143F8
:101B8000024A1160704700000000FA050CED00E009
:101B90007047000070B515480468001D0568001DF9
:101BA000066823462A46314611A0FEF747FB1DA0D2
:101BB000FEF744FB1C48FEF741FB1CA125A0FEF7E5
:101BC0003DFB28A128A0FEF739FB2BA12DA0FEF795
:101BD00035FB0023052203212E48FEF72FFB2EA004
:101BE000FEF72CFB1048FEF729FB70BDE8F7FF1F3E
:101BF0000D0A4350553A53544D3332463130335A1F
:101C00004554362C4C5146503134342C5549443DC2
:101C100025303858202530385820253038580A0DBE
:101C2000000000000D0A00004C2F0008B9F9CEC4D6
:101C3000C1FA5F32B0E05FCEC2B6C8B4ABB8D0C6AE
:101C4000F7CAB5D1E9A3A8B4F2D3A1CAB5D1E9A323
:101C5000A9000000C0FDB3CCC3FBB3C6A3BA257373
:101C60000D0A0000312E3000C0FAB3CCB0E6B1BE90
:101C7000A3BA25730D0A0000323032332E2D352DD4
:101C800032320000B7A2B2BCC8D5C6DAA3BA2573F7
:101C90000D0A0000042F00082A0D0A0010B508A044
:101CA000FEF7CCFA09A0FEF7C9FA13A0FEF7C6FAB0
:101CB0001FA0FEF7C3FA2EA0FEF7C0FA10BD000069
:101CC000B2D9D7F7CCE1CABE3A0D0A00312EB1BE67
:101CD000B3CCD0F2D6D0A3ACC3BF2033303020BABF
:101CE000C1C3EB2044533020BAECB5C6B7ADD7AA78
:101CF000D2BBB4CE0D0A0000322EB8C4B1E42044E9
:101D000041433120CAE4B3F6B5E7D1B9D6B5B5C47D
:101D1000B7BDB7A8A3BA574B555020D4F6B4F3A318
:101D2000AC4B45593020BCF5D0A10D0A0000000095
:101D3000332EB0B4BCFC20574B555020BACD204BAD
:101D400045593020BEF9BBE1B4A5B7A220414443B8
:101D500020B2C9D1F9A3ACB2C9D1F9BDE1B9FBCD6B
:101D6000A8B9FDB4AEBFDAB4F2D3A10D0A000000E9
:101D70000D0A0D0A0000000029B1064AD26902438B
:101D8000044BDA6104E0034AD2698243014BDA6111
:101D9000704700000010024029B1064A92690243D0
:101DA000044B9A6104E0034A92698243014B9A61B1
:101DB000704700000010024029B1064AD268024371
:101DC000044BDA6004E0034AD2688243014BDA60D4
:101DD000704700000010024030B5002100220024AE
:101DE00000232D4D6D6805F00C0121B1042905D0AB
:101DF000082923D105E0294D056022E0274D056023
:101E00001FE0254D6D6805F47012234D6D6805F4D3
:101E10008034022505EB92421CB9214D55430560E3
:101E20000BE01D4D6D6805F400351DB11C4D55438B
:101E3000056002E0194D5543056002E0174D05604D
:101E400000BF00BF144D6D6805F0F0010909154D84
:101E50006B5C0568DD4045600F4D6D6805F4E06121
:101E6000090A104D6B5C4568DD4085600A4D6D6860
:101E700005F46051C90A0B4D6B5C4568DD40C560D7
:101E8000054D6D6805F44041890B074D6B5CC568D5
:101E9000B5FBF3F5056130BD0010024000127A0079
:101EA00000093D002C0000203C000020704710B5C8
:101EB00000F002F810BD00000CB500200190009069
:101EC0003348006840F480303149086000BF304832
:101ED000006800F4003000900198401C01900098C8
:101EE00018B90198B0F5A06FF1D12948006800F445
:101EF000003010B10120009001E000200090009817
:101F0000012843D12348006840F0100021490860AF
:101F10000846006820F0030008600846006840F0AA
:101F2000020008601A48406819494860084640683D
:101F300048600846406840F4806048600846406851
:101F400020F47C1048600846406840F4E81048607F
:101F50000846006840F08070086000BF0C480068C8
:101F600000F000700028F9D00948406820F0030014
:101F7000074948600846406840F00200486000BFDA
:101F80000348406800F00C000828F9D10CBD00009F
:101F9000001002400020024010B500F001F810BD12
:101FA00010B51B48006840B119480068401E184928
:101FB000086010B9012017490870002408E004EBFC
:101FC0004401154A02EB810000F0C3FC601CC4B25E
:101FD000042CF4DB11480068401C104908600846D6
:101FE00000686FF00041884202D100200B49086070
:101FF00000F0AEFC0A480078401CC0B208490870E6
:102000000A2803DB0020087000F09EFC10BD0000D1
:102010000400002008000020400400200C000020E4
:102020001000002010B51348006840F0010011496D
:10203000086008464068104908400E494860084654
:1020400000680E4908400B4908600846006820F403
:10205000802008600846406820F4FE0048604FF485
:102060001F008860FFF723FF4FF0006004490860FD
:1020700010BD0000001002400000FFF8FFFFF6FE58
:1020800008ED00E010B500BF40F22551104800F007
:1020900033F858B10E48001D0088C1B20D480288BF
:1020A0000088401C0B4B18800B48815440F224419F
:1020B000074800F021F848B105480088C4B2044838
:1020C000001D0088C4B201200449087010BD000042
:1020D00000380140020000204000002000000020E5
:1020E00021B1828942F40052828104E082894DF656
:1020F000FF731A408281704770B5024600240023A6
:102100000025002040F66A16B14200D100BFC1F39D
:10211000421501F01F03012606FA03F3012D02D137
:102120009689334006E0022D02D1168A334001E041
:10213000968A33400C12012606FA04F416883440BD
:1021400013B10CB1012000E0002070BDF0B50346D2
:10215000002400260025002040F66A17B94200D16D
:1021600000BF1846C1F3421401F01F06012707FA09
:1021700006F5012C01D10C3004E0022C01D1103005
:1021800000E014301AB107682F43076002E00768C7
:10219000AF430760F0BD00002DE9F04786B005466B
:1021A0000E460024A24600BFA1460027B08900B118
:1021B00000BF2F462C8A4CF6FF700440F088044381
:1021C0002C82AC894EF6F3100440B0883189084364
:1021D000718908430443AC81AC8A4FF6FF40044048
:1021E000B0890443AC8201A8FFF7F6FD1F4887427F
:1021F00002D1DDF810A001E0DDF80CA0A88900F400
:10220000004040B10AEBCA0000EB0A1031684900F7
:10221000B0FBF1F807E00AEBCA0000EB0A103168E6
:102220008900B0FBF1F86420B8FBF0F0040120094C
:10223000642101FB1089A88900F4004040B13220DC
:1022400000EBC900B0FBF1F000F00700044308E028
:10225000322000EB09106421B0FBF1F000F00F0018
:1022600004432C8106B0BDE8F0870000003801402F
:1022700000BFFEE70020014908607047082C0040BD
:1022800001480068C0B27047082C004010B5FFF745
:10229000F7FF20B1FFF7EEFF7F2000F001F810BD3F
:1022A00000F07F01014A116070470000002C0040DF
:1022B000490050EAC12018BF04204A0D18BF40F061
:1022C000010040F2FF72B2EB515F08BF40F0020024
:1022D000012808BF0520704780F310887047303808
:1022E0000A2801D2012070470020704700BF7047C4
:1022F0000146042901DB0020704701EB4100084A38
:1023000002EB80004078012808D1002001EB410257
:10231000034B03EB820250700120EDE70020EBE756
:102320004004002070B50546344800EB05142068D1
:10233000804700283AD02079052802DA052020714C
:102340005AE020790A2803DA2079401C207153E0F2
:10235000A07A38B90120A07205EB4501491CC8B22A
:1023600000F0E2FA2089002846DDE08821898842D1
:102370000FDAE088401C80B2E080218988423BD19E
:102380000320A07205EB4501C91CC8B200F0CCFACD
:1023900032E0E07A00282FDDE07A401CC0B2E07223
:1023A000C1B2884228DB0020207325E0207905286F
:1023B00002DD052020711CE0207918B12079401E33
:1023C000207116E0A07A012808D10020A07205EB48
:1023D0004501891CC8B200F0A7FA0AE0A07A0328D8
:1023E00007D10020A07205EB4501891CC8B200F09E
:1023F0009BFA0020E080207370BD00007004002074
:102400000B48807A0A4AD27A904201D10020704764
:102410000748807A064A115C1046807A401CC0B298
:1024200090720A2801DB002090720846EFE7000056
:10243000D00400207047000010B54FF4A060FFF7F3
:102440009DFB00F07BF900F0F9F800F0ABF84FF4D9
:10245000E13000F0EDF900F09DF94FF0FF30002180
:10246000002807DA0A07140E054A00F00F031B1FA5
:10247000D45403E00A07130E024A135400BF10BDE0
:1024800018ED00E000E400E070B586B004460E46AA
:102490001546344884420FD101214015FFF77CFCDA
:1024A00001214802FFF788FC00216015FFF784FC3A
:1024B0002046FFF715F825E02B4884420FD1012173
:1024C0000015FFF769FC01218802FFF775FC002168
:1024D0002015FFF771FC2046FFF702F812E02348B1
:1024E00084420FD10121C803FFF756FC0121C80324
:1024F000FFF762FC00214FF40040FFF75DFC20462F
:10250000FEF7EEFF002001908DF808008DF809001D
:102510004FF4602003900020049001208DF81400F7
:1025200001A92046FFF72CF82B4601223146204610
:10253000FFF74EF801212046FEF7C6FF2046FFF7C1
:10254000A3F800BF2046FFF710F80028FAD1204674
:10255000FFF7AAF800BF2046FEF7F0FF0028FAD1E7
:1025600006B070BD0024014000280140003C01403D
:1025700008B501210420FFF70FFC0220ADF8000090
:1025800000208DF8030069460448FFF712F907227E
:1025900001210348FFF778FF08BD00000008014053
:1025A0000024014008B501210802FFF7F5FB0320D4
:1025B0008DF8020010208DF80300C001ADF8000076
:1025C00069460248FFF7F5F808BD00000020014009
:1025D00000B585B001210420FFF7DEFB012148078B
:1025E000FFF7CAFB1020ADF8100000208DF8130093
:1025F00003208DF8120004A90E48FFF7DAF8102125
:102600000C48FFF7A9F900200090019002900220E9
:10261000039069460020FFF7A1F801210020FFF791
:102620004BF800210846FFF7B3F803A0FDF706FEBC
:1026300005B000BD000801403500000010B500F0F5
:102640003BF800F001F810BD08B501214420FFF768
:10265000A3FB01211548FFF737F90120ADF8000071
:1026600028208DF8030069461148FFF7A2F81020D2
:10267000ADF8000048208DF8030069460D48FFF7CB
:1026800098F80820ADF8000048208DF8030069464E
:102690000848FFF78EF80420ADF8000048208DF8B8
:1026A000030069460348FFF784F808BD00023000C4
:1026B00000080140001801400021184A9172D172AF
:1026C0001173002018E06421154A02EB00121181F9
:1026D0000221134A02EB001211710021104A02EB91
:1026E000001291720E4A02EB0012D1720C4A02EBF8
:1026F00000121173411CC8B20628E4DB6421084AA9
:10270000118108491160084911610849116208499D
:10271000116308491164084911657047D00400200D
:1027200070040020E5190008151A0008451A000871
:10273000751A0008A51A0008D51A000808B5012165
:102740004820FFF729FB012000F0D8F8022000F014
:10275000D5F820210D48FFF7FFF820210C48FFF79E
:10276000FBF803208DF8020010208DF803002020D4
:10277000ADF8000069460548FFF71BF82020ADF8CA
:10278000000069460248FFF714F808BD000C01403C
:102790000018014070B5002016E0002100EB400257
:1027A0001F4B03EB8202516000EB400203EB8202FD
:1027B000916000EB400203EB8202517000EB40029B
:1027C00003F82210411CC8B20428E6DB1549096849
:1027D0004FF47A73B1FBF3F2B2F1807F00D31DE0C6
:1027E00022F07F41491E4FF0E023596159170F2312
:1027F000002907DA1C07260E0B4C01F00F052D1FD0
:10280000665503E01C07250E084C655400BF0021E7
:102810004FF0E02399610721196100BF70BD0000EE
:10282000400400201800002018ED00E000E400E063
:1028300010B586B0044601210420FFF7ADFA01214E
:102840008803FFF7A9FA4FF40070ADF814000320D5
:102850008DF8160018208DF8170005A91F48FEF7FF
:10286000A8FF4FF48060ADF8140004208DF8170025
:1028700005A91A48FEF79DFF01940020ADF8080055
:10288000ADF80A00ADF80C00ADF810000C20ADF862
:102890000E0001A91248FFF77FFC25208DF80000EB
:1028A00003208DF801008DF8020001208DF803004F
:1028B0006846FFF72BF9012240F225510848FFF73F
:1028C00045FC012240F224410548FFF73FFC01216D
:1028D0000348FFF705FC06B010BD000000080140EA
:1028E0000038014010B5002404E02046FFF71AFD2F
:1028F000601CC4B2062CF8DB10BD0000012806D114
:102900000749096881F02001054A116007E00228A3
:1029100005D10449096881F02001024A116070471D
:102920000C0C01400C1801400649C97A054A505464
:102930001146C97A491CC9B2D1720A2901DB0021AA
:10294000D1727047D004002010B5FFF7CBFF10BD47
:102950007047416851B14168491E416031B9012158
:1029600041700178012901D1816841607047000000
:1029700070B504460D46042C01DB00BFFEE70120C4
:10298000FFF7AAFC04EB44000C4901EB8000456012
:1029900004EB440001EB80008560002004EB44015F
:1029A000064A02EB81014870012004EB440102F861
:1029B00021000020FFF790FC70BD000040040020C3
:1029C00000BF054A128802F04002002AF9D0C2B2C4
:1029D000014B1B1D1A807047003801400024FFF78F
:1029E0002BFDFFF7D7F8FFF759F9FFF7C1FDFFF708
:1029F000EFFD214620A0FDF721FC4FF49671002049
:102A0000FFF7B6FF36E0FFF715FD0020FFF770FC7B
:102A100010B10120FFF772FFFFF7F2FC0546002D11
:102A200028DD012D02D0042D23D110E0B4F57A6FFA
:102A300002DA04F1C80084B221460020FEF7A8FEA5
:102A400021460DA0FDF7FAFBFEF74AFE11E0C82C67
:102A500003DDA4F1C80084B200E000242146002078
:102A6000FEF796FE214604A0FDF7E8FBFEF738FED0
:102A700000BF00BFC7E70000C9E8D6C320444143F8
:102A800020CAFDD7D6C1BFCEAA25640D0A0000001A
:102A900010B500290AD00878002807D005487844E6
:102AA000FEF70AF9002801D0002010BD0248784442
:102AB00010BD0000360500002E05000021F0004288
:102AC000A2F16052B2F5801F01F0004328BFD2F19D
:102AD0007F6C0BD95FEA001C43EAC20242EB5070E4
:102AE00018BF704728BF20F001007047B2F5801F63
:102AF000BCBF184670474FEA410C1CF5001F02D2BC
:102B0000084600F090B970B500F0B4F800000089F4
:102B1000FFF7F6BF4FF00040A0F5800070470000BF
:102B2000DFF848C170B51CEA111E1EBF1CEA131560
:102B30009EEA0C0F95EA0C0F00F06F8081EA030407
:102B400023EA4C134EEAD47E21EA4C1141F4801161
:102B500043F48013AE44A1FB024CA0FB0365AEF12D
:102B60007F7E361955EB0C05A1FB034C4CF100039D
:102B7000A0FB021C16EB0C06654153F10003094251
:102B800018BF46F0010613F4007F0BD14FEA033162
:102B90004FEA0530340341EA155140EA16506FF010
:102BA00003020AE04FEAC3214FEAC520F40241EADA
:102BB000555140EA56506FF0020202EB2E4201EBF3
:102BC000025585EACE710AD05FEA440C18BF24F0A2
:102BD000004450F1000041F1000120EAD47040F2BD
:102BE000FE7C624500D270BDA84214BF4FF0804405
:102BF0004FF04044002E08BF0024BEF1806FA8BFF4
:102C0000A1F1C041BDE8704080F282804FF0000029
:102C100001F1C04101F0004170479EEA0C0F0CEA3F
:102C2000131518BF95EA0C0F06D04FF0000081EA8B
:102C3000030E0EF0004170BD00F01CF88900013E4B
:102C400000F007B800F009B84FEA430C5FEA5C5C9B
:102C500008D081EA030100F05BB84FEA410C5FEA5B
:102C60005C5CF6D14FF00000014970470000FF079F
:102C70000000F87F0EF1020E2EF0030E5EF8046BDA
:102C8000364205D4012A43EB030515F5001F12D87F
:102C9000012841EB010C1CF5001F0CD80ED14FEAA6
:102CA000D17C15F5001F0CEB4C0C0CF1020C08BF8D
:102CB0004CEBD37C04E04FF0080C01E04FEAD37CEE
:102CC0000CEB4C0526FA05F606F00706B6F1040CE7
:102CD00006D20EEB860CBDE870404CF0010C60474C
:102CE000DFE80CF0090B02024FF000414FF000004A
:102CF000A1F5002170BD19461046012851EB0104D1
:102D000018BFD4F5001484BF002001F0004170BD4D
:102D10000808A0F500114FEA3101704743004FEA5F
:102D2000D30C4FEA3C0C43401FBF40070CF16051ED
:102D300013F0FE4F70471CF0006F03D100200CF021
:102D4000004170470CF0004343EA507010B540EA70
:102D5000CC0000F022F800BF000000924FEA000112
:102D6000FFF7D6BF4FF000414FF00000A1F5002162
:102D700070470000B0FA80F310FA03F2C3F19D032C
:102D80000AD0D90501EB1220530638BF704700F175
:102D9000010008BF20F0010070470EF1020E2EF076
:102DA000030E5EF8044B244204D44FEA4102B2F110
:102DB0007F4F11D84FEA4003B3F17F4F0CD80ED1AB
:102DC0004FEAD07CB2F17F4F0CEB4C0C0CF1020CB3
:102DD00008BF4CEBD17C04E04FF0080C01E04FEA57
:102DE000D17C0CEB4C0324FA03F404F00704B4F197
:102DF000040C06D20EEB840CBDE810404CF0010C24
:102E00006047DFE80CF0070802024FF00040A0F531
:102E1000800010BD0846420018BFD2F1807288BF02
:102E200000F0004010BDFF2141EAD050C0057047BE
:102E3000FDF79ABC303132333435363738394142B8
:102E4000434445464030580030313233343536370C
:102E500038396162636465664030780004000008B8
:102E6000000000000000000200010000100000004F
:102E700002400000000000A000000000054000002B
:102E8000000000C8000000000C4000000000409C52
:102E900000000000194000000020BCBE000000003F
:102EA00034400000BFC91B8E00000004B540000084
:102EB000504BCFD06607E2CF010000006C4100000C
:102EC0003E8251AADFEEA73401000000D942000083
:102ED000DCB5A0E23A301F97FFFFFFFFB4450000CA
:102EE000FD25A0C8E9A3C14FFFFFFFFFFF3F000082
:102EF0000000008000000000FF3F00000000008094
:102F0000000000002AB9CC202020BCFE202020BFD9
:102F1000E220202020B0E620202020B1BEA3BA5617
:102F200025642E25642E256420202853544D3332E9
:102F3000463130785F7354645065726970685F44DD
:102F40007269766572290D0A000000002A2A2A2A71
:102F50002A2A2A2A2A2A2A2A2A2A2A2A2A2A2A2AD1
:102F60002A2A2A2A2A2A2A2A2A2A2A2A2A2A2A2AC1
:102F70002A2A2A2A2A2A2A2A2A2A2A2A2A2A2A2AB1
:102F80002A2A2A2A2A2A2A2A2A2A2A2A2A2A2A2AA1
:102F90002A2A2A2A2A2A2A2A2A2A2A2A2A2A2A2A91
:102FA0002A2A2A2A2A2A2A2A2A2A2A2A2A2A2A0D9E
:102FB0000A000000F02F0008000000204000000080
:102FC0006C0100083030000840000020000B0000B9
:102FD000880100081C00000043000000F8FFFFFF0C
:102FE0000C0000000E0000000F0000002E0000008A
:102FF00000000000000000000000000000000000D1
:10300000000000000000000000A24A0400000000D0
:103010000000000001020304060708090000000088
:10302000010203040102030406070809020406085A
:0400000508000131BD
:00000001FF
